:100000000C942A000C9453090C9486090C94B90999
:100010000C9447000C94600B0C9447000C94470020
:100020000C9447000C9447000C9447000C94A80AC9
:100030000C9447000C947E0C0C94180C0C944B0CF4
:100040000C9447000C9447000C9447000C94470014
:100050000C94470011241FBECFE5D8E0DEBFCDBF12
:1000600011E0A0E6B0E0E4E8F2E402C005900D92F1
:10007000A630B107D9F711E0A6E0B1E001C01D92AA
:10008000A932B107E1F70E9487200C9440210C941B
:100090000000EF92FF920F931F937B018C0120E0F1
:1000A00030E040E05FE40E94490388238CF0C801FF
:1000B000B70120E030E040E05FE40E94C1010E940F
:1000C000A9039B01AC01205030404040504806C07D
:1000D000C801B7010E94A9039B01AC01B901CA0183
:1000E0001F910F91FF90EF900895A0E0B0E0EBE733
:1000F000F0E00C94C420DC012B01FA019C919230B9
:1001000008F439C1EB018881823008F433C194309E
:1001100069F4843009F02FC111969C91119789815F
:10012000981709F428C1A9EEB0E025C1843009F47C
:1001300021C18230A9F4923009F01DC19A01AD01AC
:1001400088E0EA010990AE01E90109929E0181501F
:10015000C1F7E201898111969C918923818308C1AD
:10016000923009F407C112962D903C901397EB0141
:100170008A819B811496AD90BD90CD90DC901797AD
:10018000EC80FD800E811F819101281B390BB90184
:1001900037FF04C066277727621B730B6032710537
:1001A0000CF061C0121613066CF537014801062EDB
:1001B00004C096948794779467940A94D2F721E0C8
:1001C00030E040E050E004C0220F331F441F551FB1
:1001D0006A95D2F721503040404050402E213F21B7
:1001E00040235123211531054105510521F021E01E
:1001F00030E040E050E079018A01E628F72808293C
:1002000019293CC0232BD1F1260E371E350146019A
:10021000062E04C096948794779467940A94D2F734
:1002200021E030E040E050E004C0220F331F441FC3
:10023000551F6A95D2F721503040404050402A2146
:100240003B214C215D21211531054105510521F04E
:1002500021E030E040E050E059016A01A628B728CB
:10026000C828D9280BC0821593052CF01C01AA249C
:10027000BB24650103C0EE24FF24870111969C91E5
:10028000D20111968C91981709F445C0992339F041
:10029000A80197012A193B094C095D0906C0A6016E
:1002A00095012E193F09400B510B57FD08C01182D3
:1002B0003382228224833583468357831DC081E0A5
:1002C00081833382228288279927DC01821B930B4A
:1002D000A40BB50B84839583A683B7830DC0220F2F
:1002E000331F441F551F24833583468357838281E0
:1002F000938101979383828324813581468157813D
:10030000DA01C9010197A109B1098F5F9F4FAF4F72
:10031000BF4328F30BC0918333822282EA0CFB1C7B
:100320000C1D1D1DE482F5820683178383E0808304
:10033000248135814681578157FF1AC0C901AA27F8
:1003400097FDA095BA2F81709070A070B0705695EF
:10035000479537952795822B932BA42BB52B848318
:100360009583A683B7838281938101969383828349
:10037000DF0101C0D201CD01CDB7DEB7E2E10C94BF
:10038000E020A0E2B0E0E7ECF1E00C94D02069833B
:100390007A838B839C832D833E834F835887E9E048
:1003A000EE2EF12CEC0EFD1ECE010196B7010E943F
:1003B000D2048E010F5E1F4FCE010596B8010E9438
:1003C000D2048A8991E089278A8BC701B801AE01DE
:1003D000475E5F4F0E9475000E94FD03A096E6E015
:1003E0000C94EC20A0E2B0E0E8EFF1E00C94D02017
:1003F00069837A838B839C832D833E834F835887C5
:10040000F9E0EF2EF12CEC0EFD1ECE010196B701A6
:100410000E94D2048E010F5E1F4FCE010596B801D7
:100420000E94D204C701B801AE01475E5F4F0E942F
:1004300075000E94FD03A096E6E00C94EC20A0E27B
:10044000B0E0E5E2F2E00C94C42069837A838B8308
:100450009C832D833E834F835887CE010196BE0136
:10046000675F7F4F0E94D204CE010596BE016F5E8A
:100470007F4F0E94D2049985923088F0898982301A
:10048000C8F0943019F4823051F404C0843029F457
:10049000923081F489EE90E0C6C0923049F420E0B9
:1004A0009A858A89981321E02A87CE010996BBC0D4
:1004B000823049F420E09A858A89981321E02A8BBA
:1004C000CE014196B0C02D843E844F8458886D88FB
:1004D0007E888F88988CEE24FF248701AA24BB2471
:1004E000650140E050E060E070E0E0E0F0E0C10174
:1004F00081709070892BE9F0E60CF71C081D191D1E
:100500009A01AB012A0D3B1D4C1D5D1D80E090E062
:10051000A0E0B0E0E614F7040805190520F481E036
:1005200090E0A0E0B0E0BA01A901480F591F6A1F8E
:100530007B1FAA0CBB1CCC1CDD1C97FE08C081E0F5
:1005400090E0A0E0B0E0A82AB92ACA2ADB2A3196B6
:10055000E032F10549F0660C771C881C991C569412
:10056000479437942794C3CFFA85EA892B893C892D
:100570008B859C85280F391F2E5F3F4F17C0CA01FE
:1005800081709070892B61F016950795F794E79428
:1005900080E090E0A0E0B0E8E82AF92A0A2B1B2BC3
:1005A00076956795579547952F5F3F4F77FDE7CF36
:1005B0000CC0440F551F661F771F17FD4160EE0CDE
:1005C000FF1C001F111F21503040403090E05907A0
:1005D00090E0690790E4790760F32B8F3C8FDB0193
:1005E000CA018F779070A070B07080349105A1051A
:1005F000B10561F447FD0AC0E114F10401051105DC
:1006000029F0405C5F4F6F4F7F4F40781A8EFE1786
:1006100011F081E08A8F4D8F5E8F6F8F78A383E01A
:10062000898FCE0149960E94FD03A096E2E10C94C9
:10063000E020A8E1B0E0EFE1F3E00C94D020698382
:100640007A838B839C832D833E834F83588789E0F5
:10065000E82EF12CEC0EFD1ECE010196B7010E9492
:10066000D2048E010F5E1F4FCE010596B8010E9485
:10067000D2048985823040F08989823028F0C70110
:10068000B8010E944A0501C08FEF6896E6E00C941D
:10069000EC20A8E1B0E0EFE4F3E00C94D020698313
:1006A0007A838B839C832D833E834F83588789E095
:1006B000E82EF12CEC0EFD1ECE010196B7010E9432
:1006C000D2048E010F5E1F4FCE010596B8010E9425
:1006D000D2048985823040F08989823028F0C701B0
:1006E000B8010E944A0501C08FEF6896E6E00C94BD
:1006F000EC20A8E1B0E0EFE7F3E00C94D0206983B0
:100700007A838B839C832D833E834F83588789E034
:10071000E82EF12CEC0EFD1ECE010196B7010E94D1
:10072000D2048E010F5E1F4FCE010596B8010E94C4
:10073000D2048985823040F08989823028F0C7014F
:10074000B8010E944A0501C081E06896E6E00C9479
:10075000EC20ACE0B0E0EFEAF3E00C94D420698345
:100760007A838B839C83CE010196BE016B5F7F4FA2
:100770000E94D2048D81823061F1823050F1843048
:1007800021F48E81882351F12EC02F81388537FDC9
:1007900020C06E812F3131051CF06623F9F023C093
:1007A0008EE190E0821B930B29853A854B855C8511
:1007B00004C056954795379527958A95D2F76623B5
:1007C000B1F050954095309521953F4F4F4F5F4F79
:1007D0000EC020E030E040E050E009C02FEF3FEFD6
:1007E0004FEF5FE704C020E030E040E050E8B9019F
:1007F000CA012C96E2E00C94F020DF92EF92FF9277
:100800000F931F93FC01E480F58006811781D1804E
:100810008081823048F480E090E0A0E1B0E0E82AF6
:10082000F92A0A2B1B2BA5C0843009F49FC0823003
:1008300021F4EE24FF24870105C0E114F104010531
:10084000110519F4E0E0F0E096C0628173819FEF3A
:10085000623879070CF05BC022E83FEF261B370BAC
:100860002A3131052CF020E030E040E050E02AC091
:10087000B801A701022E04C0769567955795479554
:100880000A94D2F781E090E0A0E0B0E004C0880FC5
:10089000991FAA1FBB1F2A95D2F70197A109B10979
:1008A0008E219F21A023B1230097A105B10521F03E
:1008B00081E090E0A0E0B0E09A01AB01282B392B59
:1008C0004A2B5B2BDA01C9018F779070A070B07052
:1008D00080349105A105B10539F427FF09C0205CDA
:1008E0003F4F4F4F5F4F04C0215C3F4F4F4F5F4F13
:1008F000E0E0F0E02030A0E03A07A0E04A07A0E402
:100900005A0710F0E1E0F0E079018A0127C0603871
:10091000710564F5FB01E158FF4FD801C7018F77DE
:100920009070A070B07080349105A105B10539F4C4
:10093000E7FE0DC080E490E0A0E0B0E004C08FE3EB
:1009400090E0A0E0B0E0E80EF91E0A1F1B1F17FFA1
:1009500005C016950795F794E794319687E01695AC
:100960000795F794E7948A95D1F705C0EE24FF2404
:100970008701EFEFF0E06E2F679566276795902F60
:100980009F77D794DD24D7948E2F8695492F462BB9
:10099000582F5D29B701CA011F910F91FF90EF9069
:1009A000DF900895FC01DB01408151812281622F9B
:1009B0006F7770E0221F2227221F9381892F880FD3
:1009C000822B282F30E0991F9927991F11969C930D
:1009D000119721153105A9F54115510561057105DD
:1009E00011F482E037C082E89FEF13969C938E93B8
:1009F00012979A01AB0167E0220F331F441F551F66
:100A00006A95D1F783E08C930DC0220F331F441FEA
:100A1000551F12968D919C911397019713969C9355
:100A20008E931297203080E0380780E0480780E4FA
:100A3000580758F314962D933D934D935C93179755
:100A400008952F3F310579F4411551056105710570
:100A500019F484E08C93089564FF03C081E08C93C3
:100A600012C01C9210C02F57304013963C932E9307
:100A7000129783E08C9387E0440F551F661F771F02
:100A80008A95D1F7706414964D935D936D937C9322
:100A9000179708951F93DC01FB019C91923008F495
:100AA00047C08081823008F443C0943051F41196DD
:100AB0001C91843099F58181682F70E0611B710968
:100AC0003FC0843021F0923031F48230B9F181811D
:100AD000882389F12DC011961C9111978230F1F075
:100AE00081811817D9F412962D913C911397828128
:100AF00093818217930794F028173907BCF0149656
:100B00008D919D910D90BC91A02D248135814681C0
:100B10005781281739074A075B0718F4112341F05A
:100B20000AC082179307A407B50740F4112319F0F0
:100B300061E070E005C06FEF7FEF02C060E070E041
:100B4000CB011F910895DF93CF9300D00F92CDB7C3
:100B5000DEB79A8389836B83ECE3F0E08081882F92
:100B600090E0827090700097B9F7EEE3F0E0898131
:100B70009A8191838083EDE3F0E08B818083ACE305
:100B8000B0E0ECE3F0E0808184608C93ACE3B0E013
:100B9000ECE3F0E0808182608C930F900F900F90D7
:100BA000CF91DF910895DF93CF9300D0CDB7DEB71B
:100BB0009A838983ECE3F0E08081882F90E0827053
:100BC00090700097B9F7EEE3F0E089819A81918304
:100BD0008083ACE3B0E0ECE3F0E0808181608C9353
:100BE000EDE3F0E080810F900F90CF91DF910895B9
:100BF000DF93CF9300D000D00F92CDB7DEB78983BB
:100C00006A834B838A81883008F0D5C0898184301B
:100C100008F0D1C08981282F30E03D832C838C815E
:100C20009D818130910509F443C02C813D812230A2
:100C300031052CF48C819D81009771F0BCC02C8112
:100C40003D812230310509F45FC08C819D81833064
:100C5000910509F485C0AFC08B818130A1F4AAE36E
:100C6000B0E0EAE3F0E08081482F8A81282F30E06D
:100C700081E090E0022E02C0880F991F0A94E2F7EB
:100C8000842B8C9398C0AAE3B0E0EAE3F0E0808183
:100C9000482F8A81282F30E081E090E0022E02C0A8
:100CA000880F991F0A94E2F7809584238C9383C060
:100CB0008B818130A1F4A7E3B0E0E7E3F0E080812D
:100CC000482F8A81282F30E081E090E0022E02C078
:100CD000880F991F0A94E2F7842B8C936CC0A7E3CA
:100CE000B0E0E7E3F0E08081482F8A81282F30E0F0
:100CF00081E090E0022E02C0880F991F0A94E2F76B
:100D0000809584238C9357C08B818130A1F4A4E318
:100D1000B0E0E4E3F0E08081482F8A81282F30E0C2
:100D200081E090E0022E02C0880F991F0A94E2F73A
:100D3000842B8C9340C0A4E3B0E0E4E3F0E0808136
:100D4000482F8A81282F30E081E090E0022E02C0F7
:100D5000880F991F0A94E2F7809584238C932BC007
:100D60008B818130A1F4A1E3B0E0E1E3F0E0808188
:100D7000482F8A81282F30E081E090E0022E02C0C7
:100D8000880F991F0A94E2F7842B8C9314C0A1E377
:100D9000B0E0E1E3F0E08081482F8A81282F30E045
:100DA00081E090E0022E02C0880F991F0A94E2F7BA
:100DB000809584238C930F900F900F900F900F903D
:100DC000CF91DF910895DF93CF9300D000D00F92A1
:100DD000CDB7DEB789836A834B838A81883008F078
:100DE000E4C08981843008F0E0C08981282F30E098
:100DF0003D832C838C819D818130910509F447C00E
:100E00002C813D81223031052CF48C819D8100970D
:100E100071F0CBC02C813D812230310509F467C0CF
:100E20008C819D818330910509F491C0BEC08B8176
:100E30008823A9F4ABE3B0E0EBE3F0E08081482F36
:100E40008A81282F30E081E090E0022E02C0880FD6
:100E5000991F0A94E2F7809584238C93A6C08B8116
:100E6000813009F0A2C0ABE3B0E0EBE3F0E08081B9
:100E7000482F8A81282F30E081E090E0022E02C0C6
:100E8000880F991F0A94E2F7842B8C938EC08B8174
:100E90008823A9F4A8E3B0E0E8E3F0E08081482FDC
:100EA0008A81282F30E081E090E0022E02C0880F76
:100EB000991F0A94E2F7809584238C9376C08B81E6
:100EC000813009F072C0A8E3B0E0E8E3F0E080818F
:100ED000482F8A81282F30E081E090E0022E02C066
:100EE000880F991F0A94E2F7842B8C935EC08B8144
:100EF0008823A9F4A5E3B0E0E5E3F0E08081482F82
:100F00008A81282F30E081E090E0022E02C0880F15
:100F1000991F0A94E2F7809584238C9346C08B81B5
:100F2000813009F042C0A5E3B0E0E5E3F0E0808164
:100F3000482F8A81282F30E081E090E0022E02C005
:100F4000880F991F0A94E2F7842B8C932EC08B8113
:100F50008823A9F4A2E3B0E0E2E3F0E08081482F27
:100F60008A81282F30E081E090E0022E02C0880FB5
:100F7000991F0A94E2F7809584238C9316C08B8185
:100F8000813099F4A2E3B0E0E2E3F0E08081482F01
:100F90008A81282F30E081E090E0022E02C0880F85
:100FA000991F0A94E2F7842B8C930F900F900F9067
:100FB0000F900F90CF91DF910895DF93CF93CDB72E
:100FC000DEB729970FB6F894DEBF0FBECDBF898379
:100FD0006A838A81883008F08DC08981843008F066
:100FE00089C08981282F30E039872887488559852D
:100FF0004130510589F1888599858230910534F415
:10100000288539852115310569F074C048855985D1
:1010100042305105D9F1888599858330910509F4CD
:101020004FC068C0E9E3F0E08081282F30E08A817A
:10103000882F90E0A90102C0559547958A95E2F75F
:10104000CA0181709070882319F051E05E8301C05D
:101050001E828E818F834FC0E6E3F0E08081282FCF
:1010600030E08A81882F90E0A90102C0559547950C
:101070008A95E2F7CA0181709070882319F051E0D7
:101080005D8301C01D828D818F8335C0E3E3F0E075
:101090008081282F30E08A81882F90E0A90102C04A
:1010A000559547958A95E2F7CA018170907088231B
:1010B00019F051E05C8301C01C828C818F831BC0BE
:1010C000E0E3F0E08081282F30E08A81882F90E0F3
:1010D000A90102C0559547958A95E2F7CA0181702A
:1010E0009070882319F051E05B8301C01B828B81D3
:1010F0008F8301C01F828F8129960FB6F894DEBFBF
:101100000FBECDBFCF91DF910895DF93CF9300D075
:1011100000D0CDB7DEB789836A838981843090F5AA
:101120008981282F30E03C832B838B819C81813007
:101130009105D1F02B813C81223031052CF48B813B
:101140009C81009761F01EC02B813C8122303105CB
:1011500081F08B819C818330910581F013C0EAE39B
:10116000F0E08A8180830EC0E7E3F0E08A8180832B
:1011700009C0E4E3F0E08A81808304C0E1E3F0E0A9
:101180008A8180830F900F900F900F90CF91DF9105
:101190000895DF93CF9300D000D0CDB7DEB7898319
:1011A0006A838981843090F58981282F30E03C83DF
:1011B0002B838B819C8181309105D1F02B813C81E7
:1011C000223031052CF48B819C81009761F01EC088
:1011D0002B813C812230310581F08B819C818330D1
:1011E000910581F013C0EBE3F0E08A8180830EC0AB
:1011F000E8E3F0E08A81808309C0E5E3F0E08A81DA
:10120000808304C0E2E3F0E08A8180830F900F9036
:101210000F900F90CF91DF910895DF93CF9300D07F
:1012200000D0CDB7DEB789838981843098F5898174
:10123000282F30E03C832B838B819C81813091056A
:10124000D1F02B813C81223031052CF48B819C81A3
:10125000009761F01FC02B813C812230310581F065
:101260008B819C818330910581F014C0E9E3F0E02B
:1012700090819A8310C0E6E3F0E020812A830BC0BE
:10128000E3E3F0E030813A8306C0E0E3F0E0808100
:101290008A8301C01A828A810F900F900F900F905D
:1012A000CF91DF9108951F920F920FB60F921124E4
:1012B0002F933F934F935F936F937F938F939F935E
:1012C000AF93BF93EF93FF93DF93CF93CDB7DEB789
:1012D0008091060190910701009729F0E0910601A5
:1012E000F09107010995CF91DF91FF91EF91BF91A7
:1012F000AF919F918F917F916F915F914F913F91AE
:101300002F910F900FBE0F901F9018951F920F9264
:101310000FB60F9211242F933F934F935F936F93C8
:101320007F938F939F93AF93BF93EF93FF93DF933D
:10133000CF93CDB7DEB78091080190910901009756
:1013400029F0E0910801F09109010995CF91DF9111
:10135000FF91EF91BF91AF919F918F917F916F918D
:101360005F914F913F912F910F900FBE0F901F9063
:1013700018951F920F920FB60F9211242F933F933F
:101380004F935F936F937F938F939F93AF93BF938D
:10139000EF93FF93DF93CF93CDB7DEB780910A0130
:1013A00090910B01009729F0E0910A01F0910B0157
:1013B0000995CF91DF91FF91EF91BF91AF919F91EF
:1013C0008F917F916F915F914F913F912F910F90EE
:1013D0000FBE0F901F901895DF93CF93CDB7DEB758
:1013E000AFE5B0E0EFE5F0E0808180688C93CF91CD
:1013F000DF910895DF93CF9300D00F92CDB7DEB782
:101400009A8389836B8383E062E040E00E94F80561
:10141000ABE5B0E0EBE5F0E0808180648C93A5E57E
:10142000B0E0E5E5F0E080818C7F8C93A5E5B0E04D
:10143000E5E5F0E090818B81892B8C9389819A81FD
:1014400090930701809306010F900F900F90CF911A
:10145000DF910895DF93CF9300D00F92CDB7DEB721
:101460009A8389836B8383E063E040E00E94F80500
:10147000ABE5B0E0EBE5F0E0808180688C93A5E51A
:10148000B0E0E5E5F0E08081837F8C93A5E5B0E0F6
:10149000E5E5F0E08081282F8B81882F90E0880F90
:1014A000991F880F991F822B8C9389819A81909321
:1014B0000901809308010F900F900F90CF91DF9159
:1014C0000895DF93CF9300D00F92CDB7DEB79A8304
:1014D00089836B8381E062E040E00E94F805ABE520
:1014E000B0E0EBE5F0E0808180628C938B818D7FB2
:1014F0008B83A4E5B0E0E4E5F0E08081282F2F7B2A
:101500008B81882F90E00024969587950794969577
:1015100087950794982F802D822B8C9389819A81AF
:1015200090930B0180930A010F900F900F90CF9131
:10153000DF910895DF93CF93CDB7DEB7AFE5B0E08D
:10154000EFE5F0E080818F778C93CF91DF91089564
:101550001F920F920FB60F9211242F933F934F9328
:101560005F936F937F938F939F93AF93BF93EF930B
:10157000FF93DF93CF93CDB7DEB780910C019091AD
:101580000D01009729F0E0910C01F0910D010995F2
:10159000CF91DF91FF91EF91BF91AF919F918F918B
:1015A0007F916F915F914F913F912F910F900FBE5F
:1015B0000F901F901895DF93CF930F92CDB7DEB7A2
:1015C0008983E3E5F0E01082A3E5B0E0E3E5F0E035
:1015D000808180688C93898180930E01E2E5F0E040
:1015E00010820F90CF91DF910895DF93CF93CDB705
:1015F000DEB7A3E5B0E0E3E5F0E08081887F8C937F
:10160000A3E5B0E0E3E5F0E0908180910E01892B45
:101610008C93CF91DF910895DF93CF93CDB7DEB751
:10162000A3E5B0E0E3E5F0E08081887F8C93CF9183
:10163000DF910895DF93CF93CDB7DEB7E2E5F0E019
:101640008081CF91DF910895DF93CF930F92CDB733
:10165000DEB78983E2E5F0E0898180830F90CF9146
:10166000DF910895DF93CF93CDB7DEB7A9E5B0E062
:10167000E9E5F0E0808181608C93CF91DF9108955E
:10168000DF93CF9300D0CDB7DEB79A83898389816A
:101690009A8190930D0180930C010F900F90CF9140
:1016A000DF910895DF93CF93CDB7DEB7A9E5B0E022
:1016B000E9E5F0E080818E7F8C93CF91DF910895F2
:1016C0001F920F920FB60F9211242F933F934F93B7
:1016D0005F936F937F938F939F93AF93BF93EF939A
:1016E000FF93DF93CF93CDB7DEB780910F01909139
:1016F0001001009729F0E0910F01F0911001099578
:10170000CF91DF91FF91EF91BF91AF919F918F9119
:101710007F916F915F914F913F912F910F900FBEED
:101720000F901F901895DF93CF930F92CDB7DEB730
:101730008983E5E4F0E01082A5E4B0E0E5E4F0E0C0
:10174000808180688C93898180931101E4E4F0E0CA
:1017500010820F90CF91DF910895DF93CF93CDB793
:10176000DEB7A5E4B0E0E5E4F0E08081887F8C930B
:10177000A5E4B0E0E5E4F0E0908180911101892BCF
:101780008C93CF91DF910895DF93CF93CDB7DEB7E0
:10179000A5E4B0E0E5E4F0E08081887F8C93CF9110
:1017A000DF910895DF93CF93CDB7DEB7E4E4F0E0A7
:1017B0008081CF91DF910895DF93CF930F92CDB7C2
:1017C000DEB78983E4E4F0E0898180830F90CF91D4
:1017D000DF910895DF93CF93CDB7DEB7A9E5B0E0F1
:1017E000E9E5F0E0808180648C93CF91DF910895EA
:1017F000DF93CF9300D0CDB7DEB79A8389838981F9
:101800009A819093100180930F010F900F90CF91C8
:10181000DF910895DF93CF93CDB7DEB7A9E5B0E0B0
:10182000E9E5F0E080818F7B8C93CF91DF91089583
:101830001F920F920FB60F9211242F933F934F9345
:101840005F936F937F938F939F93AF93BF93EF9328
:10185000FF93DF93CF93CDB7DEB7809112019091C4
:101860001301009729F0E0911201F09113010995FD
:10187000CF91DF91FF91EF91BF91AF919F918F91A8
:101880007F916F915F914F913F912F910F900FBE7C
:101890000F901F9018951F920F920FB60F92112460
:1018A0002F933F934F935F936F937F938F939F9368
:1018B000AF93BF93EF93FF93DF93CF93CDB7DEB793
:1018C0008091140190911501009729F0E091140185
:1018D000F09115010995CF91DF91FF91EF91BF91A3
:1018E000AF919F918F917F916F915F914F913F91B8
:1018F0002F910F900FBE0F901F9018951F920F926F
:101900000FB60F9211242F933F934F935F936F93D2
:101910007F938F939F93AF93BF93EF93FF93DF9347
:10192000CF93CDB7DEB78091160190911701009744
:1019300029F0E0911601F09117010995CF91DF91FF
:10194000FF91EF91BF91AF919F918F917F916F9197
:101950005F914F913F912F910F900FBE0F901F906D
:101960001895DF93CF9300D000D0CDB7DEB79C831E
:101970008B831A821982EBE2F0E082E08083EAE254
:10198000F0E088E18083E0E4F0E080E88083A0E498
:10199000B0E0E0E4F0E08081282F2F7CEB81FC8137
:1019A0008181882F90E082959295907F9827807F03
:1019B0009827822B8C93A0E4B0E0E0E4F0E08081F3
:1019C000282F277FEB81FC818281882F90E0880F70
:1019D000991F880F991F880F991F822B8C93A0E461
:1019E000B0E0E0E4F0E08081282F297FEB81FC81EA
:1019F0008081882F90E0880F991F822B8C93EB8138
:101A0000FC8183819481A581B681880F991FAA1FCB
:101A1000BB1F880F991FAA1FBB1F880F991FAA1FE2
:101A2000BB1F9C01AD0180E092E1AAE7B0E0BC01E0
:101A3000CD010E94A220DA01C90101979A8389830E
:101A4000E0E4F0E089819A81892F99278083E9E297
:101A5000F0E0898180830F900F900F900F90CF91CD
:101A6000DF910895DF93CF930F92CDB7DEB78983CF
:101A7000EBE2F0E08081882F90E080729070009718
:101A8000B9F3ECE2F0E0898180830F90CF91DF9190
:101A90000895DF93CF93CDB7DEB7EBE2F0E080811E
:101AA0008823DCF7ECE2F0E08081CF91DF910895AC
:101AB000DF93CF9300D00F92CDB7DEB79B838A839D
:101AC00019820EC08981282F30E08A819B81FC0118
:101AD000E20FF31F80810E94320D89818F5F89831D
:101AE0008981282F30E08A819B81FC01E20FF31F5E
:101AF0008081882339F70F900F900F90CF91DF915D
:101B000008950F931F93DF93CF9300D00F92CDB71B
:101B1000DEB79B838A8319828981282F30E08A81EE
:101B20009B818C01020F131F0E94490DF8018083D5
:101B30000FC089818F5F89838981282F30E08A8156
:101B40009B818C01020F131F0E94490DF8018083B5
:101B50008981282F30E08A819B81FC01E20FF31FED
:101B60008081833231F78981282F30E08A819B81FF
:101B7000FC01E20FF31F10820F900F900F90CF9196
:101B8000DF911F910F910895DF93CF93CDB7DEB70B
:101B90002A970FB6F894DEBF0FBECDBF9E838D830C
:101BA0004F83588769877A8719821A821B821C8221
:101BB00015C029813A818D819E81FC01E20FF31FBE
:101BC00080810E94320D89819A81AB81BC8101960E
:101BD000A11DB11D89839A83AB83BC8329813A817E
:101BE0004B815C818F819885A985BA852817390733
:101BF0004A075B07F0F22A960FB6F894DEBF0FBED5
:101C0000CDBFCF91DF9108950F931F93DF93CF93B3
:101C1000CDB7DEB72A970FB6F894DEBF0FBECDBFA3
:101C20009E838D834F83588769877A8719821A82AA
:101C30001B821C8216C029813A818D819E818C0174
:101C4000020F131F0E94490DF801808389819A8138
:101C5000AB81BC810196A11DB11D89839A83AB83A1
:101C6000BC8329813A814B815C818F819885A985CC
:101C7000BA85281739074A075B07E8F22A960FB694
:101C8000F894DEBF0FBECDBFCF91DF911F910F91B2
:101C90000895DF93CF930F92CDB7DEB78983AAE281
:101CA000B0E0EAE2F0E080818F718C93AAE2B0E0CC
:101CB000EAE2F0E08081282F8981882F90E0880F68
:101CC000991F82959295907F9827807F9827822BE5
:101CD0008C930F90CF91DF910895DF93CF9300D035
:101CE000CDB7DEB79A83898389819A819093130156
:101CF000809312010F900F90CF91DF910895DF93A1
:101D0000CF9300D0CDB7DEB79A83898389819A813A
:101D100090931501809314010F900F90CF91DF9154
:101D20000895DF93CF9300D0CDB7DEB79A83898330
:101D300089819A8190931701809316010F900F90DB
:101D4000CF91DF910895DF93CF93CDB7DEB783E0D6
:101D500062E040E00E94F805CF91DF910895DF93A3
:101D6000CF93CDB7DEB783E062E00E94DD07CF916D
:101D7000DF910895DF93CF93CDB7DEB783E063E0C3
:101D800040E00E94F805CF91DF910895DF93CF9353
:101D9000CDB7DEB783E063E00E94DD07CF91DF912E
:101DA0000895DF93CF93CDB7DEB781E063E040E0E5
:101DB0000E94F805CF91DF910895DF93CF93CDB7BF
:101DC000DEB781E063E00E94DD07CF91DF910895E7
:101DD000DF93CF93CDB7DEB781E062E040E00E94B1
:101DE000F805CF91DF910895DF93CF93CDB7DEB79C
:101DF00081E062E00E94DD07CF91DF910895DF93DB
:101E0000CF9300D0CDB7DEB79A838983E981FA8179
:101E10008081E981FA819181692F41E00E94F80572
:101E20000F900F90CF91DF910895DF93CF9300D063
:101E3000CDB7DEB79A838983E981FA818081E98110
:101E4000FA819181692F41E00E94E3060F900F9083
:101E5000CF91DF910895DF93CF9300D0CDB7DEB758
:101E60009A838983E981FA818081E981FA8191816C
:101E7000692F40E00E94E3060F900F90CF91DF9111
:101E80000895DF93CF9300D0CDB7DEB79A838983CF
:101E9000E981FA818081E981FA819181692F41E0AC
:101EA0000E94F8050F900F90CF91DF910895DF9376
:101EB000CF9300D0CDB7DEB79A838983E981FA81C9
:101EC0008081E981FA819181692F41E00E94E306D6
:101ED0000F900F90CF91DF910895DF93CF9300D0B3
:101EE000CDB7DEB79A838983E981FA818081E98160
:101EF000FA819181692F40E00E94E3060F900F90D4
:101F0000CF91DF910895DF93CF93CDB7DEB782E015
:101F100060E041E00E94F80582E061E041E00E945B
:101F2000F80582E062E041E00E94F80582E063E0AB
:101F300041E00E94F80582E064E040E00E94F8057C
:101F400082E065E040E00E94F80582E066E040E063
:101F50000E94F805CF91DF910895DF93CF93CDB71D
:101F6000DEB761970FB6F894DEBF0FBECDBF1F86F8
:101F7000A0C082E06F8541E00E94E306188A1CC081
:101F80008889982F9C5F82E0692F0E94DD0781304D
:101F900081F48F85282F30E0C901880F991F820FA7
:101FA000931F982F8889890F8F5F0E946910898BF2
:101FB00086C088898F5F888B8889833008F382E0A8
:101FC0006F8540E00E94E30680E090E0A0E2B1E48B
:101FD0008B879C87AD87BE876B857C858D859E852D
:101FE00020E030E04AEF54E40E941F02DC01CB0104
:101FF0008F839887A987BA876F81788589859A8525
:1020000020E030E040E85FE30E94790388232CF46D
:1020100081E090E09E838D833FC06F8178858985C4
:102020009A8520E03FEF4FE757E40E941903181606
:102030004CF56B857C858D859E8520E030E040E207
:1020400051E40E941F02DC01CB01BC01CD010E94C2
:102050004900DC01CB019E838D830FC088EC90E0AA
:102060009C838B838B819C810197F1F79C838B836D
:102070008D819E8101979E838D838D819E810097A6
:1020800069F714C06F81788589859A850E94490017
:10209000DC01CB019E838D838D819E819A83898310
:1020A00089819A810197F1F79A8389838F858F5F60
:1020B0008F878F85843008F45CCF80E2898B898993
:1020C00061960FB6F894DEBF0FBECDBFCF91DF9102
:1020D0000895DF93CF9300D000D0CDB7DEB78A83C9
:1020E00019828A81282F30E03C832B838B819C814D
:1020F0008A30910581F02B813C812A3031059CF09A
:102100008B819C818B30910549F02B813C812C3057
:10211000310531F008C08AE2898307C0198205C001
:1021200083E2898302C08A81898389810F900F901D
:102130000F900F90CF91DF910895DF93CF93CDB79C
:10214000DEB72E970FB6F894DEBF0FBECDBF80E08E
:1021500060E041E00E94F80580E061E041E00E941B
:10216000F80580E090E0A0EAB1E48B879C87AD871A
:10217000BE876B857C858D859E8520E030E04AEFAB
:1021800054E40E941F02DC01CB018F839887A9874A
:10219000BA876F81788589859A8520E030E040E8AC
:1021A0005FE30E94790388232CF481E090E09E8312
:1021B0008D833FC06F81788589859A8520E03FEFC8
:1021C0004FE757E40E94190318164CF56B857C8580
:1021D0008D859E8520E030E040E251E40E941F02A0
:1021E000DC01CB01BC01CD010E944900DC01CB0127
:1021F0009E838D830FC088EC90E09C838B838B81C2
:102200009C810197F1F79C838B838D819E8101973F
:102210009E838D838D819E81009769F714C06F81A5
:10222000788589859A850E944900DC01CB019E83CF
:102230008D838D819E819A83898389819A8101977B
:10224000F1F79A83898380E062E041E00E94F8051B
:1022500080E063E041E00E94F80580E064E041E056
:102260000E94F80580E065E041E00E94F80583E304
:102270000E944F1182E30E944F1188E20E944F1189
:102280008CE00E944F1181E00E944F112E960FB6F4
:10229000F894DEBF0FBECDBFCF91DF9108950F93AD
:1022A0001F93DF93CF93CDB7DEB7C356D0400FB6A1
:1022B000F894DEBF0FBECDBFFE01ED59FF4F808306
:1022C00080E060E040E00E94E306FE01E15AFF4F3B
:1022D00080E090E0A0E8BFE380839183A283B38392
:1022E0008E01055A1F4FFE01E15AFF4F6081718137
:1022F0008281938120E030E04AEF54E40E941F0283
:10230000DC01CB01F80180839183A283B383FE01BA
:10231000E55AFF4F608171818281938120E030E036
:1023200040E85FE30E947903882344F4FE01E75A02
:10233000FF4F81E090E09183808364C0FE01E55A05
:10234000FF4F608171818281938120E03FEF4FE7F1
:1023500057E40E94190318160CF043C0FE01E15A1D
:10236000FF4F608171818281938120E030E040E203
:1023700051E40E941F02DC01CB018E01075A1F4F5E
:10238000BC01CD010E944900DC01CB01F801918321
:1023900080831FC0FE01E95AFF4F88EC90E09183D3
:1023A0008083FE01E95AFF4F808191810197F1F707
:1023B000FE01E95AFF4F91838083DE01A75ABF4F88
:1023C000FE01E75AFF4F80819181019711969C93FE
:1023D0008E93FE01E75AFF4F808191810097D1F6DD
:1023E00027C08E01075A1F4FFE01E55AFF4F60813B
:1023F0007181828193810E944900DC01CB01F80147
:1024000091838083DE01AB5ABF4FFE01E75AFF4F35
:10241000808191818D939C93FE01EB5AFF4F8081C7
:1024200091810197F1F7FE01EB5AFF4F9183808371
:1024300080E061E041E00E94E306FE01EF5AFF4FB9
:1024400080E090E0A0E8BFE380839183A283B38320
:102450008E01035B1F4FFE01EF5AFF4F60817181B8
:102460008281938120E030E04AEF54E40E941F0211
:10247000DC01CB01F80180839183A283B383FE0149
:10248000E35BFF4F608171818281938120E030E0C6
:1024900040E85FE30E947903882344F4FE01E55B92
:1024A000FF4F81E090E09183808364C0FE01E35B95
:1024B000FF4F608171818281938120E03FEF4FE780
:1024C00057E40E94190318160CF043C0FE01EF5A9E
:1024D000FF4F608171818281938120E030E040E292
:1024E00051E40E941F02DC01CB018E01055B1F4FEE
:1024F000BC01CD010E944900DC01CB01F8019183B0
:1025000080831FC0FE01E75BFF4F88EC90E0918362
:102510008083FE01E75BFF4F808191810197F1F796
:10252000FE01E75BFF4F91838083DE01A55BBF4F18
:10253000FE01E55BFF4F80819181019711969C938D
:102540008E93FE01E55BFF4F808191810097D1F66C
:1025500027C08E01055B1F4FFE01E35BFF4F6081CB
:102560007181828193810E944900DC01CB01F801D5
:1025700091838083DE01A95BBF4FFE01E55BFF4FC6
:10258000808191818D939C93FE01E95BFF4F808157
:1025900091810197F1F7FE01E95BFF4F9183808301
:1025A000FE01ED59FF4F8081882F90E0807190707F
:1025B0009595879595958795959587959595879503
:1025C000982F80E062E0492F0E94E306FE01ED595A
:1025D000FF4F8081882F90E080729070959587954D
:1025E00095958795959587959595879595958795D3
:1025F000982F80E063E0492F0E94E306FE01ED5929
:10260000FF4F8081882F90E080749070082E892F72
:10261000000C881F990B000C881F991F982F80E0D1
:1026200064E0492F0E94E306FE01ED59FF4F8081CF
:10263000982F991F9927991F80E065E0492F0E94E4
:10264000E306FE01ED5BFF4F80E090E0A0E8BFE312
:1026500080839183A283B3838E01015C1F4FFE01AF
:10266000ED5BFF4F608171818281938120E030E0DA
:102670004AEF54E40E941F02DC01CB01F801808381
:102680009183A283B383FE01FF9660817181828171
:10269000938120E030E040E85FE30E9479038823E3
:1026A0002CF481E090E09EAF8DAF46C0FE01FF9616
:1026B000608171818281938120E03FEF4FE757E491
:1026C0000E941903181664F5FE01ED5BFF4F60814F
:1026D00071818281938120E030E040E251E40E94E8
:1026E0001F02DC01CB01BC01CD010E944900DC01CD
:1026F000CB019EAF8DAF0FC088EC90E09CAF8BAF4D
:102700008BAD9CAD0197F1F79CAF8BAF8DAD9EADBE
:1027100001979EAF8DAF8DAD9EAD009769F716C046
:10272000FE01FF9660817181828193810E94490040
:10273000DC01CB019EAF8DAF8DAD9EAD9AAF89AF61
:1027400089AD9AAD0197F1F79AAF89AF80E061E06A
:1027500040E00E94E30680E090E0A0E8BFE38DAB9C
:102760009EABAFABB8AF6DA97EA98FA998AD20E0A5
:1027700030E04AEF54E40E941F02DC01CB0189AB38
:102780009AABABABBCAB69A97AA98BA99CA920E099
:1027900030E040E85FE30E94790388232CF481E075
:1027A00090E098AB8FA73FC069A97AA98BA99CA993
:1027B00020E03FEF4FE757E40E94190318164CF54D
:1027C0006DA97EA98FA998AD20E030E040E251E4E8
:1027D0000E941F02DC01CB01BC01CD010E94490017
:1027E000DC01CB0198AB8FA70FC088EC90E09EA7CF
:1027F0008DA78DA59EA50197F1F79EA78DA78FA503
:1028000098A9019798AB8FA78FA598A9009769F70A
:1028100014C069A97AA98BA99CA90E944900DC016E
:10282000CB0198AB8FA78FA598A99CA78BA78BA549
:102830009CA50197F1F79CA78BA780E061E041E0A0
:102840000E94E30680E090E0A0E8BFE38FA398A792
:10285000A9A7BAA76FA178A589A59AA520E030E01D
:102860004AEF54E40E941F02DC01CB018BA39CA31E
:10287000ADA3BEA36BA17CA18DA19EA120E030E001
:1028800040E85FE30E94790388232CF481E090E024
:102890009AA389A33FC06BA17CA18DA19EA120E03A
:1028A0003FEF4FE757E40E94190318164CF56FA14C
:1028B00078A589A59AA520E030E040E251E40E9485
:1028C0001F02DC01CB01BC01CD010E944900DC01EB
:1028D000CB019AA389A30FC088EC90E098A38F8FB7
:1028E0008F8D98A10197F1F798A38F8F89A19AA155
:1028F00001979AA389A389A19AA1009769F714C0A7
:102900006BA17CA18DA19EA10E944900DC01CB019D
:102910009AA389A389A19AA19E8F8D8F8D8D9E8D5B
:102920000197F1F79E8F8D8FFE01ED59FF4F80814A
:10293000982F917080E062E0492F0E94E306FE012B
:10294000ED59FF4F8081882F90E0827090709595AF
:102950008795982F80E063E0492F0E94E306FE01EF
:10296000ED59FF4F8081882F90E08470907095958D
:10297000879595958795982F80E064E0492F0E9470
:10298000E306FE01ED59FF4F8081882F90E08870AB
:102990009070959587959595879595958795982F9E
:1029A00080E065E0492F0E94E30680E090E0A0E827
:1029B000BFE3898F9A8FAB8FBC8F698D7A8D8B8D9A
:1029C0009C8D20E030E04AEF54E40E941F02DC01BD
:1029D000CB018D8B9E8BAF8BB88F6D897E898F8954
:1029E000988D20E030E040E85FE30E94790388237F
:1029F0002CF481E090E09C8B8B8B3FC06D897E89AD
:102A00008F89988D20E03FEF4FE757E40E9419032C
:102A100018164CF5698D7A8D8B8D9C8D20E030E0F9
:102A200040E251E40E941F02DC01CB01BC01CD0158
:102A30000E944900DC01CB019C8B8B8B0FC088EC82
:102A400090E09A8B898B89899A890197F1F79A8B03
:102A5000898B8B899C8901979C8B8B8B8B899C891B
:102A6000009769F714C06D897E898F89988D0E94BF
:102A70004900DC01CB019C8B8B8B8B899C89988BCB
:102A80008F878F8598890197F1F7988B8F8780E0E2
:102A900061E040E00E94E30680E090E0A0E8BFE350
:102AA0008B879C87AD87BE876B857C858D859E8552
:102AB00020E030E04AEF54E40E941F02DC01CB0129
:102AC0008F839887A987BA876F81788589859A854A
:102AD00020E030E040E85FE30E94790388232CF493
:102AE00081E090E09E838D833FC06F8178858985EA
:102AF0009A8520E03FEF4FE757E40E94190318162C
:102B00004CF56B857C858D859E8520E030E040E22C
:102B100051E40E941F02DC01CB01BC01CD010E94E7
:102B20004900DC01CB019E838D830FC088EC90E0CF
:102B30009C838B838B819C810197F1F79C838B8392
:102B40008D819E8101979E838D838D819E810097CB
:102B500069F714C06F81788589859A850E9449003C
:102B6000DC01CB019E838D838D819E819A83898335
:102B700089819A810197F1F79A838983CD59DF4F33
:102B80000FB6F894DEBF0FBECDBFCF91DF911F917E
:102B90000F9108950F931F93DF93CF93CDB7DEB7B7
:102BA000C356D0400FB6F894DEBF0FBECDBFFE01B6
:102BB000ED59FF4F808380E060E041E00E94E30632
:102BC000FE01E15AFF4F80E090E0A0E8BFE3808380
:102BD0009183A283B3838E01055A1F4FFE01E15AF0
:102BE000FF4F608171818281938120E030E04AEF64
:102BF00054E40E941F02DC01CB01F8018083918321
:102C0000A283B383FE01E55AFF4F60817181828107
:102C1000938120E030E040E85FE30E94790388235D
:102C200044F4FE01E75AFF4F81E090E091838083F6
:102C300064C0FE01E55AFF4F6081718182819381FA
:102C400020E03FEF4FE757E40E94190318160CF0FD
:102C500043C0FE01E15AFF4F6081718182819381FF
:102C600020E030E040E251E40E941F02DC01CB0191
:102C70008E01075A1F4FBC01CD010E944900DC01A3
:102C8000CB01F801918380831FC0FE01E95AFF4FF9
:102C900088EC90E091838083FE01E95AFF4F8081A8
:102CA00091810197F1F7FE01E95AFF4F91838083EB
:102CB000DE01A75ABF4FFE01E75AFF4F8081918185
:102CC000019711969C938E93FE01E75AFF4F8081E6
:102CD00091810097D1F627C08E01075A1F4FFE0140
:102CE000E55AFF4F60817181828193810E94490082
:102CF000DC01CB01F80191838083DE01AB5ABF4F29
:102D0000FE01E75AFF4F808191818D939C93FE01D4
:102D1000EB5AFF4F808191810197F1F7FE01EB5A49
:102D2000FF4F9183808380E061E041E00E94E306F1
:102D3000FE01EF5AFF4F80E090E0A0E8BFE3808300
:102D40009183A283B3838E01035B1F4FFE01EF5A71
:102D5000FF4F608171818281938120E030E04AEFF2
:102D600054E40E941F02DC01CB01F80180839183AF
:102D7000A283B383FE01E35BFF4F60817181828197
:102D8000938120E030E040E85FE30E9479038823EC
:102D900044F4FE01E55BFF4F81E090E09183808386
:102DA00064C0FE01E35BFF4F60817181828193818A
:102DB00020E03FEF4FE757E40E94190318160CF08C
:102DC00043C0FE01EF5AFF4F608171818281938180
:102DD00020E030E040E251E40E941F02DC01CB0120
:102DE0008E01055B1F4FBC01CD010E944900DC0133
:102DF000CB01F801918380831FC0FE01E75BFF4F89
:102E000088EC90E091838083FE01E75BFF4F808137
:102E100091810197F1F7FE01E75BFF4F918380837A
:102E2000DE01A55BBF4FFE01E55BFF4F8081918115
:102E3000019711969C938E93FE01E55BFF4F808175
:102E400091810097D1F627C08E01055B1F4FFE01CF
:102E5000E35BFF4F60817181828193810E94490011
:102E6000DC01CB01F80191838083DE01A95BBF4FB8
:102E7000FE01E55BFF4F808191818D939C93FE0164
:102E8000E95BFF4F808191810197F1F7FE01E95BDA
:102E9000FF4F91838083FE01ED59FF4F8081882F82
:102EA00090E080719070959587959595879595950B
:102EB000879595958795982F80E062E0492F0E942D
:102EC000E306FE01ED59FF4F8081882F90E080726C
:102ED00090709595879595958795959587959595F6
:102EE000879595958795982F80E063E0492F0E94FC
:102EF000E306FE01ED59FF4F8081882F90E080743A
:102F00009070082E892F000C881F990B000C881FC9
:102F1000991F982F80E064E0492F0E94E306FE018C
:102F2000ED59FF4F8081982F991F9927991F80E0B5
:102F300065E0492F0E94E306FE01ED5BFF4F80E054
:102F400090E0A0E8BFE380839183A283B3838E01E6
:102F5000015C1F4FFE01ED5BFF4F6081718182813B
:102F6000938120E030E04AEF54E40E941F02DC012C
:102F7000CB01F80180839183A283B383FE01FF9686
:102F8000608171818281938120E030E040E85FE3DD
:102F90000E94790388232CF481E090E09EAF8DAFEE
:102FA00046C0FE01FF96608171818281938120E09D
:102FB0003FEF4FE757E40E941903181664F5FE012E
:102FC000ED5BFF4F608171818281938120E030E071
:102FD00040E251E40E941F02DC01CB01BC01CD01A3
:102FE0000E944900DC01CB019EAF8DAF0FC088EC81
:102FF00090E09CAF8BAF8BAD9CAD0197F1F79CAF90
:103000008BAF8DAD9EAD01979EAF8DAF8DAD9EAD5B
:10301000009769F716C0FE01FF9660817181828179
:1030200093810E944900DC01CB019EAF8DAF8DAD35
:103030009EAD9AAF89AF89AD9AAD0197F1F79AAF7E
:1030400089AF80E061E040E00E94E30680E090E02C
:10305000A0E8BFE38DAB9EABAFABB8AF6DA97EA9C7
:103060008FA998AD20E030E04AEF54E40E941F029F
:10307000DC01CB0189AB9AABABABBCAB69A97AA93C
:103080008BA99CA920E030E040E85FE30E9479032F
:1030900088232CF481E090E098AB8FA73FC069A90A
:1030A0007AA98BA99CA920E03FEF4FE757E40E9443
:1030B000190318164CF56DA97EA98FA998AD20E0CB
:1030C00030E040E251E40E941F02DC01CB01BC0170
:1030D000CD010E944900DC01CB0198AB8FA70FC046
:1030E00088EC90E09EA78DA78DA59EA50197F1F78E
:1030F0009EA78DA78FA598A9019798AB8FA78FA59D
:1031000098A9009769F714C069A97AA98BA99CA905
:103110000E944900DC01CB0198AB8FA78FA598A92D
:103120009CA78BA78BA59CA50197F1F79CA78BA7C4
:1031300080E061E041E00E94E30680E090E0A0E8EA
:10314000BFE38FA398A7A9A7BAA76FA178A589A560
:103150009AA520E030E04AEF54E40E941F02DC010F
:10316000CB018BA39CA3ADA3BEA36BA17CA18DA11E
:103170009EA120E030E040E85FE30E9479038823CD
:103180002CF481E090E09AA389A33FC06BA17CA1BD
:103190008DA19EA120E03FEF4FE757E40E94190365
:1031A00018164CF56FA178A589A59AA520E030E006
:1031B00040E251E40E941F02DC01CB01BC01CD01C1
:1031C0000E944900DC01CB019AA389A30FC088ECBF
:1031D00090E098A38F8F8F8D98A10197F1F798A316
:1031E0008F8F89A19AA101979AA389A389A19AA1F6
:1031F000009769F714C06BA17CA18DA19EA10E94CC
:103200004900DC01CB019AA389A389A19AA19E8FD1
:103210008D8F8D8D9E8D0197F1F79E8F8D8FFE0185
:10322000ED59FF4F8081982F917080E062E0492F27
:103230000E94E306FE01ED59FF4F8081882F90E048
:103240008270907095958795982F80E063E0492F64
:103250000E94E306FE01ED59FF4F8081882F90E028
:10326000847090709595879595958795982F80E0B7
:1032700064E0492F0E94E306FE01ED59FF4F808173
:10328000882F90E088709070959587959595879593
:1032900095958795982F80E065E0492F0E94E30679
:1032A00080E090E0A0E8BFE3898F9A8FAB8FBC8F5E
:1032B000698D7A8D8B8D9C8D20E030E04AEF54E44F
:1032C0000E941F02DC01CB018D8B9E8BAF8BB88FD0
:1032D0006D897E898F89988D20E030E040E85FE33A
:1032E0000E94790388232CF481E090E09C8B8B8BE7
:1032F0003FC06D897E898F89988D20E03FEF4FE731
:1033000057E40E94190318164CF5698D7A8D8B8D40
:103310009C8D20E030E040E251E40E941F02DC017D
:10332000CB01BC01CD010E944900DC01CB019C8B8B
:103330008B8B0FC088EC90E09A8B898B89899A8956
:103340000197F1F79A8B898B8B899C8901979C8BCC
:103350008B8B8B899C89009769F714C06D897E8956
:103360008F89988D0E944900DC01CB019C8B8B8B4F
:103370008B899C89988B8F878F8598890197F1F726
:10338000988B8F8780E061E040E00E94E30680E058
:1033900090E0A0E8BFE38B879C87AD87BE876B85F5
:1033A0007C858D859E8520E030E04AEF54E40E94C4
:1033B0001F02DC01CB018F839887A987BA876F81B1
:1033C000788589859A8520E030E040E85FE30E94B7
:1033D000790388232CF481E090E09E838D833FC0A5
:1033E0006F81788589859A8520E03FEF4FE757E424
:1033F0000E94190318164CF56B857C858D859E857A
:1034000020E030E040E251E40E941F02DC01CB01E9
:10341000BC01CD010E944900DC01CB019E838D835C
:103420000FC088EC90E09C838B838B819C810197FB
:10343000F1F79C838B838D819E8101979E838D8381
:103440008D819E81009769F714C06F817885898589
:103450009A850E944900DC01CB019E838D838D817A
:103460009E819A83898389819A810197F1F79A8352
:103470008983CD59DF4F0FB6F894DEBF0FBECDBFA5
:10348000CF91DF911F910F910895DF93CF9300D0DB
:103490000F92CDB7DEB79B838A8319820EC08981D4
:1034A000282F30E08A819B81FC01E20FF31F80818D
:1034B0000E94CA1589818F5F89838981282F30E016
:1034C0008A819B81FC01E20FF31F8081882339F7F9
:1034D0000F900F900F90CF91DF910895DF93CF93CE
:1034E00000D000D00F92CDB7DEB78A836B838A817C
:1034F000282F30E03D832C838C819D818130910584
:10350000C1F02C813D81223031052CF48C819D81CC
:10351000009761F019C02C813D812230310569F09E
:103520008C819D818330910561F00EC08B818983F0
:103530000BC08B81805C898307C08B81805F89830E
:1035400003C08B81805B8983898180680E944F11D1
:103550000F900F900F900F900F90CF91DF910895E3
:10356000DF93CF9300D000D0CDB7DEB789836A83D5
:103570005C834B8389816A810E946E1A8B819C8156
:103580000E94451A0F900F900F900F90CF91DF91EE
:103590000895DF93CF93CDB7DEB762970FB6F89457
:1035A000DEBF0FBECDBF9A8B898B89899A899E0118
:1035B0002F5F3F4FB9014AE050E00E94FB20CE014F
:1035C00001960E94451A62960FB6F894DEBF0FBEB0
:1035D000CDBFCF91DF910895DF93CF93CDB7DEB705
:1035E00081E00E944F11CF91DF910895DF93CF9337
:1035F00000D0CDB7DEB79A838983E981FA818081D3
:10360000E981FA819181692F41E00E94F8050F90CC
:103610000F90CF91DF910895DF93CF9300D0CDB776
:10362000DEB79A838983E981FA818081E981FA8111
:103630009181692F41E00E94E3060F900F90CF9196
:10364000DF910895DF93CF9300D0CDB7DEB79A8393
:103650008983E981FA818081E981FA819181692FE9
:1036600040E00E94E3060F900F90CF91DF91089504
:10367000DF93CF9300D0CDB7DEB79A838983E981FA
:10368000FA818081E981FA819181692F41E00E946C
:10369000F8050F900F90CF91DF910895DF93CF93AE
:1036A00000D0CDB7DEB79A838983E981FA81808122
:1036B000E981FA819181692F41E00E94E3060F9030
:1036C0000F90CF91DF910895DF93CF9300D0CDB7C6
:1036D000DEB79A838983E981FA818081E981FA8161
:1036E0009181692F40E00E94E3060F900F90CF91E7
:1036F000DF910895DF93CF9300D0CDB7DEB79A83E3
:103700008983E981FA818081E981FA819181692F38
:103710000E94DD070F900F90CF91DF910895DF9306
:10372000CF93CDB7DEB70E94F40E882379F081EFF6
:1037300090E00E94570F80912401846080932401BF
:103740008FE89BE162E00E94610A0EC081EF90E089
:103750000E946D0F809124018B7F809324018FE85C
:103760009BE163E00E94610ACF91DF910895DF93AE
:10377000CF93CDB7DEB70E94E80E8FE89BE163E000
:103780000E94610A81EF90E00E94410FCF91DF918A
:103790000895DF93CF93CDB7DEB783EF90E00E941B
:1037A0004E1B85E00E94C91FCF91DF910895DF93E2
:1037B000CF93CDB7DEB783EF90E00E94641B85E422
:1037C0000E94C91FCF91DF910895DF93CF930F928D
:1037D000CDB7DEB78983898180931F0181E0809313
:1037E00022010E94AD0B0F90CF91DF910895DF93DE
:1037F000CF93CDB7DEB728970FB6F894DEBF0FBED4
:10380000CDBF89836A838981809321010E94EC1A4C
:103810008981282F30E038872F838F8198858130E8
:10382000910509F44DC02F813885223031052CF4E3
:103830008F819885009771F08AC02F81388522305A
:10384000310509F444C08F8198858330910509F4CE
:1038500063C07DC00E94C91B8A81282F30E03E834F
:103860002D838D819E818230910591F02D813E8145
:1038700023303105A9F08D819E8181309105D9F4E5
:1038800080E690E00E94451A82E00E94E51B5FC03E
:103890008CE690E00E94451A82E00E94E51B57C02A
:1038A0008AE790E00E94451A81E08093210182E03E
:1038B0000E94E51B4CC089E890E00E94451A47C071
:1038C0000E94D71B85E990E00E94451A40C08A817A
:1038D000282F30E03C832B838B819C8181309105A4
:1038E00031F02B813C812230310531F010C083EA68
:1038F00090E00E94451A2BC081EB90E00E94451A8F
:1039000083E08093210182E00E94E51B20C08DEBC3
:1039100090E00E94451A1BC08A818823A1F08DEC9B
:1039200090E00E94451A83EF90E00E947A1B81305C
:1039300019F41092210103C081E08093210182E0FB
:103940000E94E51B04C089ED90E00E94451A81E0C9
:1039500060E00E946E1A10921E0128960FB6F8942D
:10396000DEBF0FBECDBFCF91DF910895DF93CF9320
:10397000CDB7DEB78091180190911901019690930F
:1039800019018093180180911F01282F30E0C9018F
:10399000880F991F820F931F9C01220F331F220F44
:1039A000331F820F931F880F991F9C01809118016C
:1039B000909119012817390769F40E94C40B1092DD
:1039C000220110921901109218018091210160E0EA
:1039D0000E94F71BCF91DF910895DF93CF930F9251
:1039E000CDB7DEB780E090E061E00E94A3051982C8
:1039F00021C08981882F90E00196AC018981882FB0
:103A000090E0FC01EB5DFE4F2081CA01622F0E9415
:103A1000A3058981282F30E08981882F90E0FC015F
:103A2000EB5DFE4F8081F901E65EFE4F8083898168
:103A30008F5F898389818430E0F210921E0183E0D8
:103A400061E00E94F71B0F90CF91DF9108950F93D3
:103A50001F93DF93CF9300D0CDB7DEB780E090E027
:103A60000E94D3058A838A818130C1F481E08983F1
:103A700012C08981882F90E08C010150104089810B
:103A8000882F90E00E94D305F801E65EFE4F808308
:103A900089818F5F89838981853058F30F900F90DA
:103AA000CF91DF911F910F910895DF93CF9300D0B5
:103AB000CDB7DEB781E089831A8214C08A81882F4E
:103AC00090E0FC01EB5DFE4F20818A81882F90E021
:103AD000FC01E65EFE4F8081281709F019828A8179
:103AE0008F5F8A838A81843048F30E94EC1A89812F
:103AF000813071F480912101823029F482E062E00A
:103B00000E94F71B12C080E063E00E94F71B0DC00B
:103B100080912101823029F482E061E00E94F71B4C
:103B200004C080E062E00E94F71B82E00E94E51B77
:103B300010921E010F900F90CF91DF910895DF93A7
:103B4000CF93CDB7DEB72F970FB6F894DEBF0FBE79
:103B5000CDBF8F878F858A3020F5809121018130FC
:103B600001F18F85882F90E00E94C91A20911E01D3
:103B7000822F90E0FC01EB5DFE4F8F858083822FCA
:103B80008F5F80931E0180911E018430B9F5809172
:103B90002101833019F40E94ED1C30C00E94551D94
:103BA0002DC08F858332E9F480912101882321F093
:103BB00080912101813029F482E060E00E94F71BAE
:103BC0001DC083EF90E00E947A1B813029F480E0D1
:103BD00060E00E94F71B12C081E060E00E94F71BCA
:103BE0000DC08F858A3251F483EF90E00E947A1BDA
:103BF000882321F480E061E00E94F71B80E090E0E0
:103C0000A6E9B3E48B879C87AD87BE876B857C85EF
:103C10008D859E8520E030E04AEF54E40E941F022B
:103C2000DC01CB018F839887A987BA876F8178855C
:103C300089859A8520E030E040E85FE30E947903BF
:103C400088232CF481E090E09E838D833FC06F81B8
:103C5000788589859A8520E03FEF4FE757E40E94F9
:103C6000190318164CF56B857C858D859E8520E0A3
:103C700030E040E251E40E941F02DC01CB01BC01B4
:103C8000CD010E944900DC01CB019E838D830FC0D2
:103C900088EC90E09C838B838B819C810197F1F76A
:103CA0009C838B838D819E8101979E838D838D81E3
:103CB0009E81009769F714C06F81788589859A8500
:103CC0000E944900DC01CB019E838D838D819E8102
:103CD0009A83898389819A810197F1F79A838983ED
:103CE0002F960FB6F894DEBF0FBECDBFCF91DF91F8
:103CF0000895DF93CF93CDB7DEB70E949D100E9449
:103D0000830F83EF90E00E94381B83EF90E00E94C6
:103D10004E1B0E94271D80E060E00E94F71B87E099
:103D20000E94930B86EB9CE10E94F80B0E94EA0B29
:103D3000CF91DF910895DF93CF930F92CDB7DEB788
:103D400080912201882349F40E94AD0F89838981E3
:103D5000803219F089810E949F1D0F90CF91DF91D1
:103D60000895DF93CF93CDB7DEB70E94DD0E882391
:103D700049F08091240188608093240184E40E94AA
:103D8000C91F08C080912401877F8093240184E0AB
:103D90000E94C91FCF91DF910895DF93CF93CDB7D4
:103DA000DEB70E94D10ECF91DF910895DF93CF93BC
:103DB000CDB7DEB78091F600882311F00E94B11EC6
:103DC000CF91DF910895DF93CF93CDB7DEB70E94F7
:103DD000C60E8823D1F080912401882F90E0817055
:103DE0009070009729F487EF90E00E94570F04C06D
:103DF00087EF90E00E946D0F809124018260809394
:103E0000240182E40E94C91F0CC087EF90E00E9449
:103E10006D0F809124018D7F8093240182E00E94A8
:103E2000C91FCF91DF910895DF93CF93CDB7DEB750
:103E30000E94BA0E83EE9EE161E00E942A0A87EF9B
:103E400090E00E94410FCF91DF910895DF93CF93CF
:103E5000CDB7DEB70E94AF0E882369F089EF90E0FE
:103E60000E94570F8091240181608093240181E496
:103E70000E94C91F0CC089EF90E00E946D0F8091D5
:103E800024018E7F8093240181E00E94C91F0E943B
:103E9000E31ECF91DF910895DF93CF93CDB7DEB7C7
:103EA0000E94A30E86E29FE161E00E94FA0989EF79
:103EB00090E00E94410FCF91DF910895DF93CF935F
:103EC000CDB7DEB7809123018A3049F48DEF90E0C1
:103ED0000E940C1B8BEF90E00E94150F0EC080918A
:103EE0002301843151F48DEF90E00E94221B8BEF6F
:103EF00090E00E942B0F10922301809123018F5F8D
:103F000080932301CF91DF910895DF93CF93CDB7B5
:103F1000DEB70E94F50ACF91DF910895DF93CF932A
:103F2000CDB7DEB70E940C0B8DEF90E00E94221BF4
:103F30008BEF90E00E942B0F10922301CF91DF9125
:103F40000895DF93CF93CDB7DEB785E00E94DB0AFB
:103F50008EE59FE10E94400B0E94320B8BEF90E0B8
:103F60000E94FF0E8DEF90E00E94F61ACF91DF9134
:103F70000895DF93CF93CDB7DEB7809124018823D6
:103F800019F00E94851F02C00E948E1FCF91DF9101
:103F90000895DF93CF930F92CDB7DEB789838981E0
:103FA0000E94320D0F90CF91DF910895DF93CF9350
:103FB00000D00F92CDB7DEB789838981282F30E0FA
:103FC0003B832A838A819B818938910509F448C003
:103FD0002A813B812A38310584F48A819B81873884
:103FE000910599F12A813B8128383105ECF58A81C8
:103FF0009B818638910501F137C02A813B812739A1
:104000003105E9F08A819B818839910534F42A8150
:104010003B812639310561F027C08A819B8188392F
:10402000910511F12A813B81293E3105A1F01CC087
:1040300081E08093F60018C01092F60015C08091C0
:1040400024018061809324010FC0809124018F7E20
:104050008093240109C080E063E00E94F71B04C044
:1040600080E061E00E94F71B0F900F900F90CF91BE
:10407000DF910895DF93CF930F92CDB7DEB70E9403
:10408000490D898389810E94D61F0F90CF91DF91BE
:104090000895DF93CF93CDB7DEB72C970FB6F89482
:1040A000DEBF0FBECDBFCE01019699878887EFEFA7
:1040B000F0E0FB87EA87F7E0FC87EA85FB85008074
:1040C0008A859B8501969B878A87E885F98500828A
:1040D000888599850196998788879C8591509C87CA
:1040E000EC85EE2351F7CE0101960E94B10C84E0DD
:1040F0000E94490E8AE390E20E94910E2C960FB620
:10410000F894DEBF0FBECDBFCF91DF910895DF934E
:10411000CF93CDB7DEB70E9449200E94A11F0E9415
:104120004C1F0E94141F0E94B71B0E94CD1E0E94AC
:10413000791E0E94EC090E949B1E0E94D61E0E94BE
:10414000B91FF9CFA1E21A2EAA1BBB1BFD010DC09E
:10415000AA1FBB1FEE1FFF1FA217B307E407F50737
:1041600020F0A21BB30BE40BF50B661F771F881F13
:10417000991F1A9469F760957095809590959B01A9
:10418000AC01BD01CF0108952F923F924F925F92F3
:104190006F927F928F929F92AF92BF92CF92DF9257
:1041A000EF92FF920F931F93CF93DF93CDB7DEB7BC
:1041B000CA1BDB0B0FB6F894DEBF0FBECDBF099450
:1041C0002A88398848885F846E847D848C849B84A7
:1041D000AA84B984C884DF80EE80FD800C811B81B5
:1041E000AA81B981CE0FD11D0FB6F894DEBF0FBEE4
:1041F000CDBFED010895FB019F01E8944230C4F06A
:104200004532B4F44A3029F497FB1EF49095819519
:104210009F4F642F77270E942C21805D8A330CF0FA
:10422000895D8193CB010097A1F716F45DE251936C
:104230001082C9010C941C21DC01FC01672F7191D3
:104240007723E1F7329704C07C916D93708362917C
:10425000AE17BF07C8F30895AA1BBB1B51E107C0E7
:10426000AA1FBB1FA617B70710F0A61BB70B881F06
:10427000991F5A95A9F780959095BC01CD01089595
:04428000F894FFCFE0
:10428400446F6F72204C6F636B65640041636365B8
:1042940073732044656E6965640041636365737379
:1042A400204772616E74656400456E7465722050B7
:1042B400696E3A2000446F6F7220556E6C6F636BA9
:1042C400656400496E636F72726563742050696E31
:1042D40000436F72726563742050696E00456E749A
:1042E4006572204F6C642050696E3A200050696EEC
:1042F400204368616E67656400456E746572204E84
:1043040065772050696E3A2000000000000000002C
:104314000003050207010101040304010001010374
:06432400010080250000ED
:00000001FF
