:100000000C94A7000C949D0B0C94D00B0C94030C37
:100010000C94C4000C94640E0C94C4000C94C400A2
:100020000C94C4000C94AA0D0C94C4000C94F20C13
:100030000C94C4000C94820F0C941C0F0C944F0F62
:100040000C94C4000C94C4000C94C4000C94C40020
:100050000C94C40000407A10F35A00A0724E1809A4
:100060000010A5D4E80000E87648170000E40B541F
:10007000020000CA9A3B000000E1F50500008096EE
:100080009800000040420F000000A0860100000020
:10009000102700000000E8030000000064000000DA
:1000A00000000A00000000000100000000002C76A3
:1000B000D888DC674F0823DFC1DFAE59E1B1B796BE
:1000C000E5E3E453C63AE651997696E8E6C284261B
:1000D000EB898C9B62ED407C6FFCEFBC9C9F40F2F7
:1000E000BAA56FA5F490055A2AF75C936B6CF96773
:1000F0006DC11BFCE0E40D47FEF520E6B500D0ED38
:10010000902E0300943577050080841E080000209F
:100110004E0A000000C80C333333330F986E12833D
:100120001141EF8D2114893BE65516CFFEE6DB1811
:10013000D1844B381BF77C1D901DA4BBE4242032D6
:1001400084725E228100C9F124ECA1E53D271124CF
:100150001FBECFE5D8E0DEBFCDBF12E0A0E6B0E025
:10016000E6EFFFE402C005900D92A630B107D9F783
:1001700012E0A6E0B2E001C01D92AE32B107E1F795
:100180000E94DD240C94F9270C940000EF92FF925A
:100190000F931F937B018C0120E030E040E05FE48F
:1001A0000E94720488238CF0C801B70120E030E07F
:1001B00040E05FE40E943E020E94D2049B01AC0139
:1001C000205030404040504806C0C801B7010E944E
:1001D000D2049B01AC01B901CA011F910F91FF909C
:1001E000EF900895A0E0B0E0E8EFF0E00C94222555
:1001F000DC012B01FA019C91923008F439C1EB012A
:100200008881823008F433C1943069F4843009F075
:100210002FC111969C9111978981981709F428C1D3
:10022000A9EEB0E025C1843009F421C18230A9F4DF
:10023000923009F01DC19A01AD0188E0EA010990F0
:10024000AE01E90109929E018150C1F7E201898165
:1002500011969C918923818308C1923009F407C1CA
:1002600012962D903C901397EB018A819B811496F6
:10027000AD90BD90CD90DC901797EC80FD800E8105
:100280001F819101281B390BB90137FF04C0662774
:100290007727621B730B603271050CF061C0121678
:1002A00013066CF537014801062E04C09694879416
:1002B000779467940A94D2F721E030E040E050E070
:1002C00004C0220F331F441F551F6A95D2F72150D7
:1002D0003040404050402E213F21402351232115E2
:1002E00031054105510521F021E030E040E050E0CA
:1002F00079018A01E628F728082919293CC0232B0F
:10030000D1F1260E371E35014601062E04C0969403
:100310008794779467940A94D2F721E030E040E024
:1003200050E004C0220F331F441F551F6A95D2F7B7
:1003300021503040404050402A213B214C215D213A
:10034000211531054105510521F021E030E040E063
:1003500050E059016A01A628B728C828D9280BC03F
:10036000821593052CF01C01AA24BB24650103C04F
:10037000EE24FF24870111969C91D20111968C9155
:10038000981709F445C0992339F0A80197012A1953
:100390003B094C095D0906C0A60195012E193F09CC
:1003A000400B510B57FD08C01182338222822483F7
:1003B0003583468357831DC081E081833382228247
:1003C00088279927DC01821B930BA40BB50B848330
:1003D0009583A683B7830DC0220F331F441F551F7B
:1003E0002483358346835783828193810197938346
:1003F00082832481358146815781DA01C9010197C1
:10040000A109B1098F5F9F4FAF4FBF4328F30BC0C6
:10041000918333822282EA0CFB1C0C1D1D1DE48299
:10042000F5820683178383E08083248135814681AA
:10043000578157FF1AC0C901AA2797FDA095BA2F67
:1004400081709070A070B07056954795379527953C
:10045000822B932BA42BB52B84839583A683B78300
:1004600082819381019693838283DF0101C0D2014F
:10047000CD01CDB7DEB7E2E10C943E25A0E2B0E0BD
:10048000E4E4F2E00C942E2569837A838B839C83C9
:100490002D833E834F835887E9E0EE2EF12CEC0E3E
:1004A000FD1ECE010196B7010E94C3068E010F5EAC
:1004B0001F4FCE010596B8010E94C3068A8991E0BC
:1004C00089278A8BC701B801AE01475E5F4F0E9442
:1004D000F2000E94EE05A096E6E00C944A25A0E208
:1004E000B0E0E5E7F2E00C942E2569837A838B83F4
:1004F0009C832D833E834F835887F9E0EF2EF12CA8
:10050000EC0EFD1ECE010196B7010E94C3068E01BE
:100510000F5E1F4FCE010596B8010E94C306C701AA
:10052000B801AE01475E5F4F0E94F2000E94EE05E7
:10053000A096E6E00C944A25A0E2B0E0E2EAF2E000
:100540000C94222569837A838B839C832D833E833D
:100550004F835887CE010196BE01675F7F4F0E948F
:10056000C306CE010596BE016F5E7F4F0E94C30693
:100570009985923088F089898230C8F0943019F4D6
:10058000823051F404C0843029F4923081F489EE31
:1005900090E0C6C0923049F420E09A858A89981389
:1005A00021E02A87CE010996BBC0823049F420E0C1
:1005B0009A858A89981321E02A8BCE014196B0C092
:1005C0002D843E844F8458886D887E888F88988CCF
:1005D000EE24FF248701AA24BB24650140E050E0FB
:1005E00060E070E0E0E0F0E0C10181709070892B84
:1005F000E9F0E60CF71C081D191D9A01AB012A0D44
:100600003B1D4C1D5D1D80E090E0A0E0B0E0E614D5
:10061000F7040805190520F481E090E0A0E0B0E0BF
:10062000BA01A901480F591F6A1F7B1FAA0CBB1CE6
:10063000CC1CDD1C97FE08C081E090E0A0E0B0E09B
:10064000A82AB92ACA2ADB2A3196E032F10549F0F4
:10065000660C771C881C991C5694479437942794F1
:10066000C3CFFA85EA892B893C898B859C85280F25
:10067000391F2E5F3F4F17C0CA0181709070892BC0
:1006800061F016950795F794E79480E090E0A0E07C
:10069000B0E8E82AF92A0A2B1B2B7695679557951F
:1006A00047952F5F3F4F77FDE7CF0CC0440F551F95
:1006B000661F771F17FD4160EE0CFF1C001F111F06
:1006C00021503040403090E0590790E0690790E4B5
:1006D000790760F32B8F3C8FDB01CA018F77907015
:1006E000A070B07080349105A105B10561F447FD9B
:1006F0000AC0E114F1040105110529F0405C5F4FC7
:100700006F4F7F4F40781A8EFE1711F081E08A8F6D
:100710004D8F5E8F6F8F78A383E0898FCE014996CE
:100720000E94EE05A096E2E10C943E25A8E1B0E01F
:10073000ECE9F3E00C942A2569837A838B839C830C
:100740002D833E834F835887B9E0EB2EF12CEC0EBE
:10075000FD1ECE010196B7010E94C3068E010F5EF9
:100760001F4FCE010596B8010E94C306298522308D
:1007700008F47EC03989323010F4B8017CC08A8513
:100780009A8989278A87243011F0223031F423177F
:1007900009F06EC069EE70E06EC0343039F41D8629
:1007A0001E861F86188A1C861B8604C0323021F4E0
:1007B00084E08987B7015FC02B853C858B899C8944
:1007C000281B390B3C872B87ED84FE840F85188905
:1007D000AD88BE88CF88D88CEA14FB040C051D05B3
:1007E00040F4EE0CFF1C001F111F215030403C87CD
:1007F0002B8720E030E040E050E080E090E0A0E097
:10080000B0E460E070E0EA14FB040C051D0540F064
:10081000282B392B4A2B5B2BEA18FB080C091D09E6
:10082000B695A79597958795EE0CFF1C001F111F95
:100830006F5F7F4F6F31710531F7DA01C9018F7733
:100840009070A070B07080349105A105B10561F47D
:1008500027FD0AC0E114F1040105110529F0205C0F
:100860003F4F4F4F5F4F20782D873E874F87588BE4
:10087000BE01675F7F4FCB010E94EE056896EAE0FC
:100880000C944625A8E1B0E0E8E4F4E00C942E25B1
:1008900069837A838B839C832D833E834F83588720
:1008A00089E0E82EF12CEC0EFD1ECE010196B70179
:1008B0000E94C3068E010F5E1F4FCE010596B80140
:1008C0000E94C3068985823040F08989823028F0F1
:1008D000C701B8010E943B0701C08FEF6896E6E0B0
:1008E0000C944A25A8E1B0E0E8E7F4E00C942E254A
:1008F00069837A838B839C832D833E834F835887C0
:1009000089E0E82EF12CEC0EFD1ECE010196B70118
:100910000E94C3068E010F5E1F4FCE010596B801DF
:100920000E94C3068985823040F08989823028F090
:10093000C701B8010E943B0701C08FEF6896E6E04F
:100940000C944A25A8E1B0E0E8EAF4E00C942E25E6
:1009500069837A838B839C832D833E834F8358875F
:1009600089E0E82EF12CEC0EFD1ECE010196B701B8
:100970000E94C3068E010F5E1F4FCE010596B8017F
:100980000E94C3068985823040F08989823028F030
:10099000C701B8010E943B0701C081E06896E6E00C
:1009A0000C944A25ACE0B0E0E8EDF4E00C9432257C
:1009B00069837A838B839C83CE010196BE016B5F32
:1009C0007F4F0E94C3068D81823061F1823050F1E9
:1009D000843021F48E81882351F12EC02F813885F7
:1009E00037FD20C06E812F3131051CF06623F9F0F0
:1009F00023C08EE190E0821B930B29853A854B85BD
:100A00005C8504C056954795379527958A95D2F70A
:100A10006623B1F050954095309521953F4F4F4F4B
:100A20005F4F0EC020E030E040E050E009C02FEF03
:100A30003FEF4FEF5FE704C020E030E040E050E8D8
:100A4000B901CA012C96E2E00C944E25A8E0B0E072
:100A5000ECE2F5E00C942A257B018C01611571050F
:100A60008105910519F482E0898360C083E0898360
:100A70008EE1C82ED12CDC82CB82ED82FE820F83E8
:100A80001887C801B7010E949F05FC013197F7FF45
:100A90003BC0222733272E1B3F0B57016801022E34
:100AA00004C0D694C794B794A7940A94D2F740E0B0
:100AB00050E060E070E081E090E0A0E0B0E004C0D1
:100AC000880F991FAA1FBB1F2A95D2F70197A1096A
:100AD000B1098E219F21A023B1230097A105B10563
:100AE00021F041E050E060E070E04A295B296C2988
:100AF0007D294D835E836F8378878EE190E08E1B26
:100B00009F0B9C838B8312C0309781F00E2E04C004
:100B1000EE0CFF1C001F111F0A94D2F7ED82FE821B
:100B20000F831887CE1ADF0ADC82CB821A82CE01AD
:100B300001960E94EE052896EAE00C944625EF9275
:100B4000FF920F931F937B018C0180E0E81680E0F9
:100B5000F80681E0080780E0180788F48FEFE816B0
:100B6000F1040105110531F028F088E090E0A0E0E3
:100B7000B0E017C080E090E0A0E0B0E012C080E0FC
:100B8000E81680E0F80680E0080781E0180728F002
:100B900088E190E0A0E0B0E004C080E190E0A0E057
:100BA000B0E020E230E040E050E0281B390B4A0B77
:100BB0005B0B04C016950795F794E7948A95D2F7D6
:100BC000F701EF50FF4F8081281B3109410951097E
:100BD000C9011F910F91FF90EF900895DF92EF925E
:100BE000FF920F931F93FC01E480F580068117812B
:100BF000D1808081823048F480E090E0A0E1B0E0D4
:100C0000E82AF92A0A2B1B2BA5C0843009F49FC0BF
:100C1000823021F4EE24FF24870105C0E114F104A1
:100C20000105110519F4E0E0F0E096C062817381DE
:100C30009FEF623879070CF05BC022E83FEF261B7C
:100C4000370B2A3131052CF020E030E040E050E055
:100C50002AC0B801A701022E04C076956795579562
:100C600047950A94D2F781E090E0A0E0B0E004C09C
:100C7000880F991FAA1FBB1F2A95D2F70197A109B8
:100C8000B1098E219F21A023B1230097A105B105B1
:100C900021F081E090E0A0E0B0E09A01AB01282BC8
:100CA000392B4A2B5B2BDA01C9018F779070A0702A
:100CB000B07080349105A105B10539F427FF09C052
:100CC000205C3F4F4F4F5F4F04C0215C3F4F4F4F61
:100CD0005F4FE0E0F0E02030A0E03A07A0E04A07F4
:100CE000A0E45A0710F0E1E0F0E079018A0127C0A2
:100CF0006038710564F5FB01E158FF4FD801C70169
:100D00008F779070A070B07080349105A105B10507
:100D100039F4E7FE0DC080E490E0A0E0B0E004C04C
:100D20008FE390E0A0E0B0E0E80EF91E0A1F1B1F61
:100D300017FF05C016950795F794E794319687E05D
:100D400016950795F794E7948A95D1F705C0EE2498
:100D5000FF248701EFEFF0E06E2F67956627679518
:100D6000902F9F77D794DD24D7948E2F8695492F87
:100D7000462B582F5D29B701CA011F910F91FF9093
:100D8000EF90DF900895FC01DB01408151812281C9
:100D9000622F6F7770E0221F2227221F9381892FF5
:100DA000880F822B282F30E0991F9927991F1196C1
:100DB0009C93119721153105A9F541155105610540
:100DC000710511F482E037C082E89FEF13969C937F
:100DD0008E9312979A01AB0167E0220F331F441FD5
:100DE000551F6A95D1F783E08C930DC0220F331FF6
:100DF000441F551F12968D919C911397019713963E
:100E00009C938E931297203080E0380780E048074B
:100E100080E4580758F314962D933D934D935C93BB
:100E2000179708952F3F310579F441155105610554
:100E3000710519F484E08C93089564FF03C081E088
:100E40008C9312C01C9210C02F57304013963C93C5
:100E50002E93129783E08C9387E0440F551F661FF3
:100E6000771F8A95D1F7706414964D935D936D93B7
:100E70007C93179708951F93DC01FB019C9192309E
:100E800008F447C08081823008F443C0943051F4A4
:100E900011961C91843099F58181682F70E0611B57
:100EA00071093FC0843021F0923031F48230B9F1C1
:100EB0008181882389F12DC011961C911197823070
:100EC000F1F081811817D9F412962D913C91139766
:100ED000828193818217930794F028173907BCF019
:100EE00014968D919D910D90BC91A02D24813581FA
:100EF00046815781281739074A075B0718F41123E1
:100F000041F00AC082179307A407B50740F41123E4
:100F100019F061E070E005C06FEF7FEF02C060E0A4
:100F200070E0CB011F910895DF93CF93CDB7DEB76B
:100F30000E94A11381E00E94DD0DCF91DF91089501
:100F4000DF93CF93CDB7DEB70E94F80DCF91DF913D
:100F50000895DF93CF93CDB7DEB70E940B0ECF91EC
:100F6000DF910895DF93CF9300D000D000D0CDB7AC
:100F7000DEB70E94190E9E838D838D819E81CC01E8
:100F8000A0E0B0E0BC01CD010E942605DC01CB0150
:100F9000BC01CD012DEC3CEC4CEC5FE30E949603D0
:100FA000DC01CB0189839A83AB83BC830E94F01D53
:100FB00089819A81AB81BC81BC01CD010E94FA1D5F
:100FC00080E090E00E94240E26960FB6F894DEBFD3
:100FD0000FBECDBFCF91DF910895DF93CF9300D0A7
:100FE0000F92CDB7DEB79A8389836B83ECE3F0E091
:100FF0008081882F90E0827090700097B9F7EEE3BF
:10100000F0E089819A8191838083EDE3F0E08B8128
:101010008083ACE3B0E0ECE3F0E0808184608C930B
:10102000ACE3B0E0ECE3F0E0808182608C930F9061
:101030000F900F90CF91DF910895DF93CF9300D061
:10104000CDB7DEB79A838983ECE3F0E08081882F07
:1010500090E0827090700097B9F7EEE3F0E089813C
:101060009A8191838083ACE3B0E0ECE3F0E080818F
:1010700081608C93EDE3F0E080810F900F90CF9131
:10108000DF910895DF93CF9300D000D00F92CDB7BA
:10109000DEB789836A834B838A81883008F0D5C0A4
:1010A0008981843008F0D1C08981282F30E03D83C8
:1010B0002C838C819D818130910509F443C02C8162
:1010C0003D81223031052CF48C819D81009771F097
:1010D000BCC02C813D812230310509F45FC08C8178
:1010E0009D818330910509F485C0AFC08B8181302B
:1010F000A1F4AAE3B0E0EAE3F0E08081482F8A811E
:10110000282F30E081E090E0022E02C0880F991F66
:101110000A94E2F7842B8C9398C0AAE3B0E0EAE348
:10112000F0E08081482F8A81282F30E081E090E034
:10113000022E02C0880F991F0A94E2F7809584233B
:101140008C9383C08B818130A1F4A7E3B0E0E7E307
:10115000F0E08081482F8A81282F30E081E090E004
:10116000022E02C0880F991F0A94E2F7842B8C93F9
:101170006CC0A7E3B0E0E7E3F0E08081482F8A810C
:10118000282F30E081E090E0022E02C0880F991FE6
:101190000A94E2F7809584238C9357C08B81813029
:1011A000A1F4A4E3B0E0E4E3F0E08081482F8A8179
:1011B000282F30E081E090E0022E02C0880F991FB6
:1011C0000A94E2F7842B8C9340C0A4E3B0E0E4E3FC
:1011D000F0E08081482F8A81282F30E081E090E084
:1011E000022E02C0880F991F0A94E2F7809584238B
:1011F0008C932BC08B818130A1F4A1E3B0E0E1E3BB
:10120000F0E08081482F8A81282F30E081E090E053
:10121000022E02C0880F991F0A94E2F7842B8C9348
:1012200014C0A1E3B0E0E1E3F0E08081482F8A81BF
:10123000282F30E081E090E0022E02C0880F991F35
:101240000A94E2F7809584238C930F900F900F906F
:101250000F900F90CF91DF910895DF93CF9300D03F
:1012600000D00F92CDB7DEB789836A834B838A8122
:10127000883008F0E4C08981843008F0E0C08981BA
:10128000282F30E03D832C838C819D818130910516
:1012900009F447C02C813D81223031052CF48C812A
:1012A0009D81009771F0CBC02C813D8122303105AA
:1012B00009F467C08C819D818330910509F491C048
:1012C000BEC08B818823A9F4ABE3B0E0EBE3F0E090
:1012D0008081482F8A81282F30E081E090E0022E23
:1012E00002C0880F991F0A94E2F7809584238C939B
:1012F000A6C08B81813009F0A2C0ABE3B0E0EBE384
:10130000F0E08081482F8A81282F30E081E090E052
:10131000022E02C0880F991F0A94E2F7842B8C9347
:101320008EC08B818823A9F4A8E3B0E0E8E3F0E065
:101330008081482F8A81282F30E081E090E0022EC2
:1013400002C0880F991F0A94E2F7809584238C933A
:1013500076C08B81813009F072C0A8E3B0E0E8E389
:10136000F0E08081482F8A81282F30E081E090E0F2
:10137000022E02C0880F991F0A94E2F7842B8C93E7
:101380005EC08B818823A9F4A5E3B0E0E5E3F0E03B
:101390008081482F8A81282F30E081E090E0022E62
:1013A00002C0880F991F0A94E2F7809584238C93DA
:1013B00046C08B81813009F042C0A5E3B0E0E5E38F
:1013C000F0E08081482F8A81282F30E081E090E092
:1013D000022E02C0880F991F0A94E2F7842B8C9387
:1013E0002EC08B818823A9F4A2E3B0E0E2E3F0E011
:1013F0008081482F8A81282F30E081E090E0022E02
:1014000002C0880F991F0A94E2F7809584238C9379
:1014100016C08B81813099F4A2E3B0E0E2E3F0E002
:101420008081482F8A81282F30E081E090E0022ED1
:1014300002C0880F991F0A94E2F7842B8C930F90B7
:101440000F900F900F900F90CF91DF910895DF9341
:10145000CF93CDB7DEB729970FB6F894DEBF0FBE96
:10146000CDBF89836A838A81883008F08DC08981E5
:10147000843008F089C08981282F30E03987288797
:10148000488559854130510589F188859985823093
:10149000910534F4288539852115310569F074C02A
:1014A0004885598542305105D9F188859985833021
:1014B000910509F44FC068C0E9E3F0E08081282F6E
:1014C00030E08A81882F90E0A90102C055954795A8
:1014D0008A95E2F7CA0181709070882319F051E073
:1014E0005E8301C01E828E818F834FC0E6E3F0E0F1
:1014F0008081282F30E08A81882F90E0A90102C0E6
:10150000559547958A95E2F7CA01817090708823B6
:1015100019F051E05D8301C01D828D818F8335C03C
:10152000E3E3F0E08081282F30E08A81882F90E08B
:10153000A90102C0559547958A95E2F7CA018170C5
:101540009070882319F051E05C8301C01C828C816B
:101550008F831BC0E0E3F0E08081282F30E08A8198
:10156000882F90E0A90102C0559547958A95E2F72A
:10157000CA0181709070882319F051E05B8301C02B
:101580001B828B818F8301C01F828F8129960FB6AA
:10159000F894DEBF0FBECDBFCF91DF910895DF93EA
:1015A000CF9300D000D0CDB7DEB789836A8389811D
:1015B000843090F58981282F30E03C832B838B8108
:1015C0009C8181309105D1F02B813C812230310505
:1015D0002CF48B819C81009761F01EC02B813C8193
:1015E0002230310581F08B819C818330910581F01F
:1015F00013C0EAE3F0E08A8180830EC0E7E3F0E005
:101600008A81808309C0E4E3F0E08A81808304C09A
:10161000E1E3F0E08A8180830F900F900F900F90AC
:10162000CF91DF910895DF93CF9300D000D0CDB755
:10163000DEB789836A838981843090F58981282F78
:1016400030E03C832B838B819C8181309105D1F0EC
:101650002B813C81223031052CF48B819C810097B9
:1016600061F01EC02B813C812230310581F08B81DD
:101670009C818330910581F013C0EBE3F0E08A8117
:1016800080830EC0E8E3F0E08A81808309C0E5E34F
:10169000F0E08A81808304C0E2E3F0E08A81808305
:1016A0000F900F900F900F90CF91DF910895DF93DF
:1016B000CF9300D000D0CDB7DEB789838981843045
:1016C00098F58981282F30E03C832B838B819C8186
:1016D00081309105D1F02B813C81223031052CF4F1
:1016E0008B819C81009761F01FC02B813C8122304F
:1016F000310581F08B819C818330910581F014C08C
:10170000E9E3F0E090819A8310C0E6E3F0E0208105
:101710002A830BC0E3E3F0E030813A8306C0E0E3C4
:10172000F0E080818A8301C01A828A810F900F9035
:101730000F900F90CF91DF9108951F920F920FB6E7
:101740000F9211242F933F934F935F936F937F9347
:101750008F939F93AF93BF93EF93FF93DF93CF93B9
:10176000CDB7DEB78091060290910702009729F06D
:10177000E0910602F09107020995CF91DF91FF9168
:10178000EF91BF91AF919F918F917F916F915F91F9
:101790004F913F912F910F900FBE0F901F90189572
:1017A0001F920F920FB60F9211242F933F934F93D6
:1017B0005F936F937F938F939F93AF93BF93EF93B9
:1017C000FF93DF93CF93CDB7DEB78091080290915E
:1017D0000902009729F0E0910802F09109020995A9
:1017E000CF91DF91FF91EF91BF91AF919F918F9139
:1017F0007F916F915F914F913F912F910F900FBE0D
:101800000F901F9018951F920F920FB60F921124F0
:101810002F933F934F935F936F937F938F939F93F8
:10182000AF93BF93EF93FF93DF93CF93CDB7DEB723
:1018300080910A0290910B02009729F0E0910A0230
:10184000F0910B020995CF91DF91FF91EF91BF913C
:10185000AF919F918F917F916F915F914F913F9148
:101860002F910F900FBE0F901F901895DF93CF937D
:10187000CDB7DEB7AFE5B0E0EFE5F0E0808180689E
:101880008C93CF91DF910895DF93CF9300D00F9287
:10189000CDB7DEB79A8389836B8383E062E040E053
:1018A0000E944208ABE5B0E0EBE5F0E080818064A7
:1018B0008C93A5E5B0E0E5E5F0E080818C7F8C932A
:1018C000A5E5B0E0E5E5F0E090818B81892B8C9374
:1018D00089819A8190930702809306020F900F905E
:1018E0000F90CF91DF910895DF93CF9300D00F92A7
:1018F000CDB7DEB79A8389836B8383E063E040E0F2
:101900000E944208ABE5B0E0EBE5F0E08081806842
:101910008C93A5E5B0E0E5E5F0E08081837F8C93D2
:10192000A5E5B0E0E5E5F0E08081282F8B81882FE8
:1019300090E0880F991F880F991F822B8C938981C3
:101940009A8190930902809308020F900F900F9054
:10195000CF91DF910895DF93CF9300D00F92CDB751
:10196000DEB79A8389836B8381E062E040E00E9466
:101970004208ABE5B0E0EBE5F0E0808180628C935B
:101980008B818D7F8B83A4E5B0E0E4E5F0E080817E
:10199000282F2F7B8B81882F90E0002496958795A8
:1019A0000794969587950794982F802D822B8C937A
:1019B00089819A8190930B0280930A020F900F9075
:1019C0000F90CF91DF910895DF93CF93CDB7DEB71E
:1019D000AFE5B0E0EFE5F0E080818F778C93CF91B9
:1019E000DF9108951F920F920FB60F9211242F933B
:1019F0003F934F935F936F937F938F939F93AF9397
:101A0000BF93EF93FF93DF93CF93CDB7DEB7809172
:101A10000C0290910D02009729F0E0910C02F091D8
:101A20000D020995CF91DF91FF91EF91BF91AF9199
:101A30009F918F917F916F915F914F913F912F91E6
:101A40000F900FBE0F901F901895DF93CF930F92BA
:101A5000CDB7DEB78983E3E5F0E01082A3E5B0E01F
:101A6000E3E5F0E0808180688C93898180930E02A9
:101A7000E2E5F0E010820F90CF91DF910895DF93BF
:101A8000CF93CDB7DEB7A3E5B0E0E3E5F0E080812A
:101A9000887F8C93A3E5B0E0E3E5F0E0908180914E
:101AA0000E02892B8C93CF91DF910895DF93CF9312
:101AB000CDB7DEB7A3E5B0E0E3E5F0E08081887F55
:101AC0008C93CF91DF910895DF93CF93CDB7DEB79D
:101AD000E2E5F0E08081CF91DF910895DF93CF932D
:101AE0000F92CDB7DEB78983E2E5F0E0898180838C
:101AF0000F90CF91DF910895DF93CF93CDB7DEB7ED
:101B0000A9E5B0E0E9E5F0E0808181608C93CF91B8
:101B1000DF910895DF93CF9300D0CDB7DEB79A83DE
:101B2000898389819A8190930D0280930C020F9092
:101B30000F90CF91DF910895DF93CF93CDB7DEB7AC
:101B4000A9E5B0E0E9E5F0E080818E7F8C93CF914C
:101B5000DF9108951F920F920FB60F9211242F93C9
:101B60003F934F935F936F937F938F939F93AF9325
:101B7000BF93EF93FF93DF93CF93CDB7DEB7809101
:101B80000F0290911002009729F0E0910F02F0915E
:101B900010020995CF91DF91FF91EF91BF91AF9125
:101BA0009F918F917F916F915F914F913F912F9175
:101BB0000F900FBE0F901F901895DF93CF930F9249
:101BC000CDB7DEB78983EFE4F0E01082AFE4B0E098
:101BD000EFE4F0E080818C608C9389818093110226
:101BE000ECE4F0E0118210820F90CF91DF91089524
:101BF000DF93CF93CDB7DEB7AEE4B0E0EEE4F0E034
:101C00008081887F8C93EEE4F0E0809111028083E4
:101C1000CF91DF910895DF93CF93CDB7DEB7AEE4D8
:101C2000B0E0EEE4F0E08081887F8C93CF91DF918B
:101C30000895DF93CF93CDB7DEB7ECE4F0E0808179
:101C40009181CF91DF910895DF93CF9300D0CDB7ED
:101C5000DEB79A838983ECE4F0E089819A819183ED
:101C600080830F900F90CF91DF910895DF93CF93F2
:101C7000CDB7DEB7A9E5B0E0E9E5F0E080818460AA
:101C80008C93CF91DF910895DF93CF9300D0CDB7A0
:101C9000DEB79A83898389819A8190931002809319
:101CA0000F020F900F90CF91DF910895DF93CF93A4
:101CB000CDB7DEB7A9E5B0E0E9E5F0E080818B7F44
:101CC0008C93CF91DF9108951F920F920FB60F92D0
:101CD00011242F933F934F935F936F937F938F9331
:101CE0009F93AF93BF93EF93FF93DF93CF93CDB7C2
:101CF000DEB78091120290911302009729F0E091D3
:101D00001202F09113020995CF91DF91FF91EF91AB
:101D1000BF91AF919F918F917F916F915F914F9103
:101D20003F912F910F900FBE0F901F901895DF934A
:101D3000CF930F92CDB7DEB78983E5E4F0E0108250
:101D4000A5E4B0E0E5E4F0E0808180688C938981CF
:101D500080931402E4E4F0E010820F90CF91DF91C1
:101D60000895DF93CF93CDB7DEB7A5E4B0E0E5E407
:101D7000F0E08081887F8C93A5E4B0E0E5E4F0E0BA
:101D8000908180911402892B8C93CF91DF910895DB
:101D9000DF93CF93CDB7DEB7A5E4B0E0E5E4F0E0A4
:101DA0008081887F8C93CF91DF910895DF93CF93CB
:101DB000CDB7DEB7E4E4F0E08081CF91DF91089504
:101DC000DF93CF930F92CDB7DEB78983E4E4F0E0E1
:101DD000898180830F90CF91DF910895DF93CF9316
:101DE000CDB7DEB7A9E5B0E0E9E5F0E08081806439
:101DF0008C93CF91DF910895DF93CF9300D0CDB72F
:101E0000DEB79A83898389819A81909313028093A4
:101E100012020F900F90CF91DF910895DF93CF932F
:101E2000CDB7DEB7A9E5B0E0E9E5F0E080818F7BD2
:101E30008C93CF91DF9108951F920F920FB60F925E
:101E400011242F933F934F935F936F937F938F93BF
:101E50009F93AF93BF93EF93FF93DF93CF93CDB750
:101E6000DEB78091150290911602009729F0E0915B
:101E70001502F09116020995CF91DF91FF91EF9134
:101E8000BF91AF919F918F917F916F915F914F9192
:101E90003F912F910F900FBE0F901F9018951F929A
:101EA0000F920FB60F9211242F933F934F935F938E
:101EB0006F937F938F939F93AF93BF93EF93FF9312
:101EC000DF93CF93CDB7DEB78091170290911802C0
:101ED000009729F0E0911702F09118020995CF912F
:101EE000DF91FF91EF91BF91AF919F918F917F9182
:101EF0006F915F914F913F912F910F900FBE0F9077
:101F00001F9018951F920F920FB60F9211242F93C6
:101F10003F934F935F936F937F938F939F93AF9371
:101F2000BF93EF93FF93DF93CF93CDB7DEB780914D
:101F3000190290911A02009729F0E0911902F0918C
:101F40001A020995CF91DF91FF91EF91BF91AF9167
:101F50009F918F917F916F915F914F913F912F91C1
:101F60000F900FBE0F901F901895DF93CF9300D066
:101F700000D0CDB7DEB79C838B831A821982EBE247
:101F8000F0E082E08083EAE2F0E088E18083E0E450
:101F9000F0E080E88083A0E4B0E0E0E4F0E080815D
:101FA000282F2F7CEB81FC818181882F90E0829506
:101FB0009295907F9827807F9827822B8C93A0E41E
:101FC000B0E0E0E4F0E08081282F277FEB81FC8106
:101FD0008281882F90E0880F991F880F991F880FA2
:101FE000991F822B8C93A0E4B0E0E0E4F0E08081C4
:101FF000282F297FEB81FC818081882F90E0880F3A
:10200000991F822B8C93EB81FC8183819481A58124
:10201000B681880F991FAA1FBB1F880F991FAA1F7F
:10202000BB1F880F991FAA1FBB1F9C01AD0180E039
:1020300094E2A4EFB0E0BC01CD010E940025DA01DA
:10204000C90101979A838983E0E4F0E089819A814C
:10205000892F99278083E9E2F0E0898180830F90BE
:102060000F900F900F90CF91DF910895DF93CF9352
:102070000F92CDB7DEB78983EBE2F0E08081882F45
:1020800090E0807290700097B9F3ECE2F0E0898103
:1020900080830F90CF91DF910895DF93CF93CDB7D9
:1020A000DEB7EBE2F0E080818823DCF7ECE2F0E0E1
:1020B0008081CF91DF910895DF93CF9300D00F926D
:1020C000CDB7DEB79B838A8319820EC08981282F02
:1020D00030E08A819B81FC01E20FF31F80810E9426
:1020E000361089818F5F89838981282F30E08A812A
:1020F0009B81FC01E20FF31F8081882339F70F9049
:102100000F900F90CF91DF9108950F931F93DF935E
:10211000CF9300D00F92CDB7DEB79B838A8319820D
:102120008981282F30E08A819B818C01020F131F47
:102130000E944D10F80180830FC089818F5F8983D1
:102140008981282F30E08A819B818C01020F131F27
:102150000E944D10F80180838981282F30E08A8108
:102160009B81FC01E20FF31F8081833231F789816B
:10217000282F30E08A819B81FC01E20FF31F10823F
:102180000F900F900F90CF91DF911F910F910895B5
:10219000DF93CF93CDB7DEB72A970FB6F894DEBFA3
:1021A0000FBECDBF9E838D834F83588769877A8703
:1021B00019821A821B821C8215C029813A818D8165
:1021C0009E81FC01E20FF31F80810E9436108981FD
:1021D0009A81AB81BC810196A11DB11D89839A832F
:1021E000AB83BC8329813A814B815C818F81988547
:1021F000A985BA85281739074A075B07F0F22A969E
:102200000FB6F894DEBF0FBECDBFCF91DF9108951A
:102210000F931F93DF93CF93CDB7DEB72A970FB6F7
:10222000F894DEBF0FBECDBF9E838D834F8358874A
:1022300069877A8719821A821B821C8216C02981BB
:102240003A818D819E818C01020F131F0E944D10D7
:10225000F801808389819A81AB81BC810196A11D9F
:10226000B11D89839A83AB83BC8329813A814B81D9
:102270005C818F819885A985BA85281739074A0717
:102280005B07E8F22A960FB6F894DEBF0FBECDBF0B
:10229000CF91DF911F910F910895DF93CF930F920C
:1022A000CDB7DEB78983AAE2B0E0EAE2F0E0808150
:1022B0008F718C93AAE2B0E0EAE2F0E08081282FEF
:1022C0008981882F90E0880F991F82959295907F41
:1022D0009827807F9827822B8C930F90CF91DF9146
:1022E0000895DF93CF9300D0CDB7DEB79A8389836B
:1022F00089819A8190931602809315020F900F9016
:10230000CF91DF910895DF93CF9300D0CDB7DEB7A3
:102310009A83898389819A81909318028093170206
:102320000F900F90CF91DF910895DF93CF9300D05E
:10233000CDB7DEB79A83898389819A8190931A02F7
:10234000809319020F900F90CF91DF910895DF9342
:10235000CF93CDB7DEB783E062E040E00E94420851
:10236000CF91DF910895DF93CF93CDB7DEB783E0B0
:1023700062E00E94270ACF91DF910895DF93CF9307
:10238000CDB7DEB783E063E040E00E944208CF9122
:10239000DF910895DF93CF93CDB7DEB783E063E09D
:1023A0000E94270ACF91DF910895DF93CF93CDB795
:1023B000DEB781E063E040E00E944208CF91DF9108
:1023C0000895DF93CF93CDB7DEB781E063E00E943D
:1023D000270ACF91DF910895DF93CF93CDB7DEB772
:1023E00081E062E040E00E944208CF91DF910895D1
:1023F000DF93CF93CDB7DEB781E062E00E94270A7A
:10240000CF91DF910895DF93CF9300D0CDB7DEB7A2
:102410009A838983E981FA818081E981FA819181B6
:10242000692F41E00E9442080F900F90CF91DF91F9
:102430000895DF93CF9300D0CDB7DEB79A83898319
:10244000E981FA818081E981FA819181692F41E0F6
:102450000E942D090F900F90CF91DF910895DF9387
:10246000CF9300D0CDB7DEB79A838983E981FA8113
:102470008081E981FA819181692F40E00E942D09D4
:102480000F900F90CF91DF910895DF93CF9300D0FD
:10249000CDB7DEB79A838983E981FA818081E981AA
:1024A000FA819181692F41E00E9442080F900F90BC
:1024B000CF91DF910895DF93CF9300D0CDB7DEB7F2
:1024C0009A838983E981FA818081E981FA81918106
:1024D000692F41E00E942D090F900F90CF91DF915D
:1024E0000895DF93CF9300D0CDB7DEB79A83898369
:1024F000E981FA818081E981FA819181692F40E047
:102500000E942D090F900F90CF91DF910895DF93D6
:10251000CF93CDB7DEB782E060E041E00E94420891
:1025200082E061E041E00E94420882E062E041E036
:102530000E94420882E063E041E00E94420882E09B
:1025400064E040E00E94420882E065E040E00E94D2
:10255000420882E066E040E00E944208CF91DF91AD
:102560000895DF93CF93CDB7DEB761970FB6F89498
:10257000DEBF0FBECDBF1F86A0C082E06F8541E0E9
:102580000E942D09188A1CC08889982F9C5F82E0C0
:10259000692F0E94270A813081F48F85282F30E02F
:1025A000C901880F991F820F931F982F8889890F5F
:1025B0008F5F0E946D13898B86C088898F5F888B9F
:1025C0008889833008F382E06F8540E00E942D09FE
:1025D00080E090E0A0E2B1E48B879C87AD87BE8766
:1025E0006B857C858D859E8520E030E04AE755E44B
:1025F0000E949C02DC01CB018F839887A987BA8750
:102600006F81788589859A8520E030E040E85FE336
:102610000E94A20488232CF481E090E09E838D83A5
:102620003FC06F81788589859A8520E03FEF4FE72D
:1026300057E40E94420418164CF56B857C858D8505
:102640009E8520E030E040E251E40E949C02DC01E3
:10265000CB01BC01CD010E94C600DC01CB019E83F1
:102660008D830FC080E991E09C838B838B819C815B
:102670000197F1F79C838B838D819E8101979E83C7
:102680008D838D819E81009769F714C06F81788555
:1026900089859A850E94C600DC01CB019E838D83CB
:1026A0008D819E819A83898389819A810197F1F72F
:1026B0009A8389838F858F5F8F878F85843008F415
:1026C0005CCF80E2898B898961960FB6F894DEBF72
:1026D0000FBECDBFCF91DF910895DF93CF9300D090
:1026E00000D0CDB7DEB78A8319828A81282F30E0E7
:1026F0003C832B838B819C818A30910581F02B81D7
:102700003C812A3031059CF08B819C818B30910576
:1027100049F02B813C812C30310531F008C08AE230
:10272000898307C0198205C083E2898302C08A8138
:10273000898389810F900F900F900F90CF91DF9137
:102740000895DF93CF93CDB7DEB72E970FB6F894E9
:10275000DEBF0FBECDBF80E060E041E00E944208D6
:1027600080E061E041E00E94420880E090E0A0EA61
:10277000B1E48B879C87AD87BE876B857C858D8513
:102780009E8520E030E04AE755E40E949C02DC018F
:10279000CB018F839887A987BA876F8178858985D0
:1027A0009A8520E030E040E85FE30E94A20488239D
:1027B0002CF481E090E09E838D833FC06F8178850B
:1027C00089859A8520E03FEF4FE757E40E94420455
:1027D00018164CF56B857C858D859E8520E030E054
:1027E00040E251E40E949C02DC01CB01BC01CD011E
:1027F0000E94C600DC01CB019E838D830FC080E95F
:1028000091E09C838B838B819C810197F1F79C8362
:102810008B838D819E8101979E838D838D819E8187
:10282000009769F714C06F81788589859A850E9421
:10283000C600DC01CB019E838D838D819E819A83AE
:10284000898389819A810197F1F79A83898380E04E
:1028500062E041E00E94420880E063E041E00E94C3
:10286000420880E064E041E00E94420880E065E0C8
:1028700041E00E94420883E30E94531482E30E94D5
:10288000531488E20E9453148CE00E94531481E098
:102890000E9453142E960FB6F894DEBF0FBECDBF24
:1028A000CF91DF9108950F931F93DF93CF93CDB70F
:1028B000DEB7C356D0400FB6F894DEBF0FBECDBF13
:1028C000FE01ED59FF4F808380E060E040E00E9410
:1028D0002D09FE01E15AFF4F80E090E0A0E8BFE340
:1028E00080839183A283B3838E01055A1F4FFE011B
:1028F000E15AFF4F608171818281938120E030E055
:102900004AE755E40E949C02DC01CB01F801808378
:102910009183A283B383FE01E55AFF4F60817181E9
:102920008281938120E030E040E85FE30E94A204CE
:10293000882344F4FE01E75AFF4F81E090E0918341
:10294000808364C0FE01E55AFF4F608171818281FE
:10295000938120E03FEF4FE757E40E9442041816AE
:102960000CF043C0FE01E15AFF4F6081718182810A
:10297000938120E030E040E251E40E949C02DC01BF
:10298000CB018E01075A1F4FBC01CD010E94C6002A
:10299000DC01CB01F801918380831FC0FE01E95A5D
:1029A000FF4F80E991E091838083FE01E95AFF4F58
:1029B000808191810197F1F7FE01E95AFF4F9183E0
:1029C0008083DE01A75ABF4FFE01E75AFF4F808187
:1029D0009181019711969C938E93FE01E75AFF4FC8
:1029E000808191810097D1F627C08E01075A1F4F31
:1029F000FE01E55AFF4F60817181828193810E94BF
:102A0000C600DC01CB01F80191838083DE01AB5A63
:102A1000BF4FFE01E75AFF4F808191818D939C93B8
:102A2000FE01EB5AFF4F808191810197F1F7FE0182
:102A3000EB5AFF4F9183808380E061E041E00E9488
:102A40002D09FE01EF5AFF4F80E090E0A0E8BFE3C0
:102A500080839183A283B3838E01035B1F4FFE01AA
:102A6000EF5AFF4F608171818281938120E030E0D5
:102A70004AE755E40E949C02DC01CB01F801808307
:102A80009183A283B383FE01E35BFF4F6081718179
:102A90008281938120E030E040E85FE30E94A2045D
:102AA000882344F4FE01E55BFF4F81E090E09183D1
:102AB000808364C0FE01E35BFF4F6081718182818E
:102AC000938120E03FEF4FE757E40E94420418163D
:102AD0000CF043C0FE01EF5AFF4F6081718182818B
:102AE000938120E030E040E251E40E949C02DC014E
:102AF000CB018E01055B1F4FBC01CD010E94C600BA
:102B0000DC01CB01F801918380831FC0FE01E75BEC
:102B1000FF4F80E991E091838083FE01E75BFF4FE7
:102B2000808191810197F1F7FE01E75BFF4F91836F
:102B30008083DE01A55BBF4FFE01E55BFF4F808117
:102B40009181019711969C938E93FE01E55BFF4F57
:102B5000808191810097D1F627C08E01055B1F4FC0
:102B6000FE01E35BFF4F60817181828193810E944E
:102B7000C600DC01CB01F80191838083DE01A95BF3
:102B8000BF4FFE01E55BFF4F808191818D939C9348
:102B9000FE01E95BFF4F808191810197F1F7FE0112
:102BA000E95BFF4F91838083FE01ED59FF4F8081E8
:102BB000882F90E080719070959587959595879571
:102BC0009595879595958795982F80E062E0492F98
:102BD0000E942D09FE01ED59FF4F8081882F90E062
:102BE0008072907095958795959587959595879521
:102BF0009595879595958795982F80E063E0492F67
:102C00000E942D09FE01ED59FF4F8081882F90E031
:102C100080749070082E892F000C881F990B000C6F
:102C2000881F991F982F80E064E0492F0E942D098A
:102C3000FE01ED59FF4F8081982F991F9927991F09
:102C400080E065E0492F0E942D09FE01ED5BFF4FFA
:102C500080E090E0A0E8BFE380839183A283B38308
:102C60008E01015C1F4FFE01ED5BFF4F60817181A2
:102C70008281938120E030E04AE755E40E949C0283
:102C8000DC01CB01F80180839183A283B383FE0131
:102C9000FF96608171818281938120E030E040E87D
:102CA0005FE30E94A20488232CF481E090E09EAFB1
:102CB0008DAF46C0FE01FF96608171818281938154
:102CC00020E03FEF4FE757E40E944204181664F5F6
:102CD000FE01ED5BFF4F608171818281938120E075
:102CE00030E040E251E40E949C02DC01CB01BC01D7
:102CF000CD010E94C600DC01CB019EAF8DAF0FC09D
:102D000080E991E09CAF8BAF8BAD9CAD0197F1F763
:102D10009CAF8BAF8DAD9EAD01979EAF8DAF8DAD4E
:102D20009EAD009769F716C0FE01FF966081718124
:102D3000828193810E94C600DC01CB019EAF8DAFE2
:102D40008DAD9EAD9AAF89AF89AD9AAD0197F1F780
:102D50009AAF89AF80E061E040E00E942D0980E0F9
:102D600090E0A0E8BFE38DAB9EABAFABB8AF6DA971
:102D70007EA98FA998AD20E030E04AE755E40E9493
:102D80009C02DC01CB0189AB9AABABABBCAB69A9B4
:102D90007AA98BA99CA920E030E040E85FE30E947B
:102DA000A20488232CF481E090E098AB8FA73FC069
:102DB00069A97AA98BA99CA920E03FEF4FE757E4C6
:102DC0000E94420418164CF56DA97EA98FA998ADF2
:102DD00020E030E040E251E40E949C02DC01CB01A3
:102DE000BC01CD010E94C600DC01CB0198AB8FA7CE
:102DF0000FC080E991E09EA78DA78DA59EA50197A4
:102E0000F1F79EA78DA78FA598A9019798AB8FA7DB
:102E10008FA598A9009769F714C069A97AA98BA909
:102E20009CA90E94C600DC01CB0198AB8FA78FA59F
:102E300098A99CA78BA78BA59CA50197F1F79CA7A8
:102E40008BA780E061E041E00E942D0980E090E0E6
:102E5000A0E8BFE38FA398A7A9A7BAA76FA178A5F9
:102E600089A59AA520E030E04AE755E40E949C023B
:102E7000DC01CB018BA39CA3ADA3BEA36BA17CA162
:102E80008DA19EA120E030E040E85FE30E94A20413
:102E900088232CF481E090E09AA389A33FC06BA122
:102EA0007CA18DA19EA120E03FEF4FE757E40E9457
:102EB000420418164CF56FA178A589A59AA520E0C3
:102EC00030E040E251E40E949C02DC01CB01BC01F5
:102ED000CD010E94C600DC01CB019AA389A30FC0DB
:102EE00080E991E098A38F8F8F8D98A10197F1F7DA
:102EF00098A38F8F89A19AA101979AA389A389A1E9
:102F00009AA1009769F714C06BA17CA18DA19EA125
:102F10000E94C600DC01CB019AA389A389A19AA1D2
:102F20009E8F8D8F8D8D9E8D0197F1F79E8F8D8F4A
:102F3000FE01ED59FF4F8081982F917080E062E093
:102F4000492F0E942D09FE01ED59FF4F8081882FE6
:102F500090E08270907095958795982F80E063E05F
:102F6000492F0E942D09FE01ED59FF4F8081882FC6
:102F700090E0847090709595879595958795982F9A
:102F800080E064E0492F0E942D09FE01ED59FF4FBA
:102F90008081882F90E088709070959587959595A1
:102FA000879595958795982F80E065E0492F0E9439
:102FB0002D0980E090E0A0E8BFE3898F9A8FAB8F66
:102FC000BC8F698D7A8D8B8D9C8D20E030E04AE737
:102FD00055E40E949C02DC01CB018D8B9E8BAF8B54
:102FE000B88F6D897E898F89988D20E030E040E828
:102FF0005FE30E94A20488232CF481E090E09C8B84
:103000008B8B3FC06D897E898F89988D20E03FEF43
:103010004FE757E40E94420418164CF5698D7A8DEB
:103020008B8D9C8D20E030E040E251E40E949C02B8
:10303000DC01CB01BC01CD010E94C600DC01CB014B
:103040009C8B8B8B0FC080E991E09A8B898B89894F
:103050009A890197F1F79A8B898B8B899C890197C3
:103060009C8B8B8B8B899C89009769F714C06D8929
:103070007E898F89988D0E94C600DC01CB019C8BD4
:103080008B8B8B899C89988B8F878F8598890197EB
:10309000F1F7988B8F8780E061E040E00E942D0976
:1030A00080E090E0A0E8BFE38B879C87AD87BE8778
:1030B0006B857C858D859E8520E030E04AE755E470
:1030C0000E949C02DC01CB018F839887A987BA8775
:1030D0006F81788589859A8520E030E040E85FE35C
:1030E0000E94A20488232CF481E090E09E838D83CB
:1030F0003FC06F81788589859A8520E03FEF4FE753
:1031000057E40E94420418164CF56B857C858D852A
:103110009E8520E030E040E251E40E949C02DC0108
:10312000CB01BC01CD010E94C600DC01CB019E8316
:103130008D830FC080E991E09C838B838B819C8180
:103140000197F1F79C838B838D819E8101979E83EC
:103150008D838D819E81009769F714C06F8178857A
:1031600089859A850E94C600DC01CB019E838D83F0
:103170008D819E819A83898389819A810197F1F754
:103180009A838983CD59DF4F0FB6F894DEBF0FBE07
:10319000CDBFCF91DF911F910F9108950F931F9392
:1031A000DF93CF93CDB7DEB7C356D0400FB6F894B8
:1031B000DEBF0FBECDBFFE01ED59FF4F808380E023
:1031C00060E041E00E942D09FE01E15AFF4F80E0DE
:1031D00090E0A0E8BFE380839183A283B3838E0154
:1031E000055A1F4FFE01E15AFF4F608171818281B4
:1031F000938120E030E04AE755E40E949C02DC0124
:10320000CB01F80180839183A283B383FE01E55A49
:10321000FF4F608171818281938120E030E040E83E
:103220005FE30E94A204882344F4FE01E75AFF4FA3
:1032300081E090E09183808364C0FE01E55AFF4FF6
:10324000608171818281938120E03FEF4FE757E4F5
:103250000E94420418160CF043C0FE01E15AFF4FD1
:10326000608171818281938120E030E040E251E40D
:103270000E949C02DC01CB018E01075A1F4FBC014A
:10328000CD010E94C600DC01CB01F801918380834F
:103290001FC0FE01E95AFF4F80E991E091838083CE
:1032A000FE01E95AFF4F808191810197F1F7FE01FC
:1032B000E95AFF4F91838083DE01A75ABF4FFE0179
:1032C000E75AFF4F80819181019711969C938E93CD
:1032D000FE01E75AFF4F808191810097D1F627C008
:1032E0008E01075A1F4FFE01E55AFF4F6081718121
:1032F000828193810E94C600DC01CB01F801918399
:103300008083DE01AB5ABF4FFE01E75AFF4F808139
:1033100091818D939C93FE01EB5AFF4F80819181A7
:103320000197F1F7FE01EB5AFF4F9183808380E014
:1033300061E041E00E942D09FE01EF5AFF4F80E05D
:1033400090E0A0E8BFE380839183A283B3838E01E2
:10335000035B1F4FFE01EF5AFF4F60817181828135
:10336000938120E030E04AE755E40E949C02DC01B2
:10337000CB01F80180839183A283B383FE01E35BD9
:10338000FF4F608171818281938120E030E040E8CD
:103390005FE30E94A204882344F4FE01E55BFF4F33
:1033A00081E090E09183808364C0FE01E35BFF4F86
:1033B000608171818281938120E03FEF4FE757E484
:1033C0000E94420418160CF043C0FE01EF5AFF4F52
:1033D000608171818281938120E030E040E251E49C
:1033E0000E949C02DC01CB018E01055B1F4FBC01DA
:1033F000CD010E94C600DC01CB01F80191838083DE
:103400001FC0FE01E75BFF4F80E991E0918380835D
:10341000FE01E75BFF4F808191810197F1F7FE018B
:10342000E75BFF4F91838083DE01A55BBF4FFE0109
:10343000E55BFF4F80819181019711969C938E935C
:10344000FE01E55BFF4F808191810097D1F627C097
:103450008E01055B1F4FFE01E35BFF4F60817181B1
:10346000828193810E94C600DC01CB01F801918327
:103470008083DE01A95BBF4FFE01E55BFF4F8081CA
:1034800091818D939C93FE01E95BFF4F8081918137
:103490000197F1F7FE01E95BFF4F91838083FE0105
:1034A000ED59FF4F8081882F90E080719070959545
:1034B0008795959587959595879595958795982F57
:1034C00080E062E0492F0E942D09FE01ED59FF4F77
:1034D0008081882F90E08072907095958795959562
:1034E0008795959587959595879595958795982F27
:1034F00080E063E0492F0E942D09FE01ED59FF4F46
:103500008081882F90E080749070082E892F000CA5
:10351000881F990B000C881F991F982F80E064E08A
:10352000492F0E942D09FE01ED59FF4F8081982FF0
:10353000991F9927991F80E065E0492F0E942D0966
:10354000FE01ED5BFF4F80E090E0A0E8BFE38083E9
:103550009183A283B3838E01015C1F4FFE01ED5B5B
:10356000FF4F608171818281938120E030E04AE7E2
:1035700055E40E949C02DC01CB01F8018083918319
:10358000A283B383FE01FF96608171818281938162
:1035900020E030E040E85FE30E94A20488232CF49E
:1035A00081E090E09EAF8DAF46C0FE01FF96608146
:1035B00071818281938120E03FEF4FE757E40E94C1
:1035C0004204181664F5FE01ED5BFF4F60817181C6
:1035D0008281938120E030E040E251E40E949C022D
:1035E000DC01CB01BC01CD010E94C600DC01CB0196
:1035F0009EAF8DAF0FC080E991E09CAF8BAF8BADDC
:103600009CAD0197F1F79CAF8BAF8DAD9EAD01974F
:103610009EAF8DAF8DAD9EAD009769F716C0FE01D0
:10362000FF9660817181828193810E94C600DC01D6
:10363000CB019EAF8DAF8DAD9EAD9AAF89AF89ADF9
:103640009AAD0197F1F79AAF89AF80E061E040E071
:103650000E942D0980E090E0A0E8BFE38DAB9EAB17
:10366000AFABB8AF6DA97EA98FA998AD20E030E0CF
:103670004AE755E40E949C02DC01CB0189AB9AAB7E
:10368000ABABBCAB69A97AA98BA99CA920E030E0BF
:1036900040E85FE30E94A20488232CF481E090E0DC
:1036A00098AB8FA73FC069A97AA98BA99CA920E0F4
:1036B0003FEF4FE757E40E94420418164CF56DA9FE
:1036C0007EA98FA998AD20E030E040E251E40E944D
:1036D0009C02DC01CB01BC01CD010E94C600DC01D3
:1036E000CB0198AB8FA70FC080E991E09EA78DA773
:1036F0008DA59EA50197F1F79EA78DA78FA598A9E7
:10370000019798AB8FA78FA598A9009769F714C068
:1037100069A97AA98BA99CA90E94C600DC01CB01EA
:1037200098AB8FA78FA598A99CA78BA78BA59CA5C5
:103730000197F1F79CA78BA780E061E041E00E9430
:103740002D0980E090E0A0E8BFE38FA398A7A9A788
:10375000BAA76FA178A589A59AA520E030E04AE72D
:1037600055E40E949C02DC01CB018BA39CA3ADA37A
:10377000BEA36BA17CA18DA19EA120E030E040E81A
:103780005FE30E94A20488232CF481E090E09AA3D6
:1037900089A33FC06BA17CA18DA19EA120E03FEF3A
:1037A0004FE757E40E94420418164CF56FA178A524
:1037B00089A59AA520E030E040E251E40E949C02F5
:1037C000DC01CB01BC01CD010E94C600DC01CB01B4
:1037D0009AA389A30FC080E991E098A38F8F8F8D62
:1037E00098A10197F1F798A38F8F89A19AA10197CA
:1037F0009AA389A389A19AA1009769F714C06BA124
:103800007CA18DA19EA10E94C600DC01CB019AA3E0
:1038100089A389A19AA19E8F8D8F8D8D9E8D0197F1
:10382000F1F79E8F8D8FFE01ED59FF4F8081982F0C
:10383000917080E062E0492F0E942D09FE01ED5950
:10384000FF4F8081882F90E08270907095958795CA
:10385000982F80E063E0492F0E942D09FE01ED5969
:10386000FF4F8081882F90E08470907095958795A8
:1038700095958795982F80E064E0492F0E942D0947
:10388000FE01ED59FF4F8081882F90E08870907085
:10389000959587959595879595958795982F80E02F
:1038A00065E0492F0E942D0980E090E0A0E8BFE389
:1038B000898F9A8FAB8FBC8F698D7A8D8B8D9C8D04
:1038C00020E030E04AE755E40E949C02DC01CB0195
:1038D0008D8B9E8BAF8BB88F6D897E898F89988DEC
:1038E00020E030E040E85FE30E94A20488232CF44B
:1038F00081E090E09C8B8B8B3FC06D897E898F89A6
:10390000988D20E03FEF4FE757E40E9442041816DD
:103910004CF5698D7A8D8B8D9C8D20E030E040E2F6
:1039200051E40E949C02DC01CB01BC01CD010E944C
:10393000C600DC01CB019C8B8B8B0FC080E991E032
:103940009A8B898B89899A890197F1F79A8B898B50
:103950008B899C8901979C8B8B8B8B899C89009789
:1039600069F714C06D897E898F89988D0E94C60081
:10397000DC01CB019C8B8B8B8B899C89988B8F87EF
:103980008F8598890197F1F7988B8F8780E061E0A8
:1039900040E00E942D0980E090E0A0E8BFE38B8723
:1039A0009C87AD87BE876B857C858D859E8520E055
:1039B00030E04AE755E40E949C02DC01CB018F8392
:1039C0009887A987BA876F81788589859A8520E04D
:1039D00030E040E85FE30E94A20488232CF481E0F9
:1039E00090E09E838D833FC06F81788589859A851D
:1039F00020E03FEF4FE757E40E94420418164CF5D1
:103A00006B857C858D859E8520E030E040E251E429
:103A10000E949C02DC01CB01BC01CD010E94C600CA
:103A2000DC01CB019E838D830FC080E991E09C83F4
:103A30008B838B819C810197F1F79C838B838D8194
:103A40009E8101979E838D838D819E81009769F76A
:103A500014C06F81788589859A850E94C600DC0133
:103A6000CB019E838D838D819E819A8389838981F9
:103A70009A810197F1F79A838983CD59DF4F0FB669
:103A8000F894DEBF0FBECDBFCF91DF911F910F9194
:103A90000895DF93CF9300D00F92CDB7DEB79B830D
:103AA0008A8319820EC08981282F30E08A819B8108
:103AB000FC01E20FF31F80810E94CE1889818F5F85
:103AC00089838981282F30E08A819B81FC01E20F64
:103AD000F31F8081882339F70F900F900F90CF91BB
:103AE000DF910895DF93CF9300D000D00F92CDB730
:103AF000DEB78A836B838A81282F30E03D832C8355
:103B00008C819D8181309105C1F02C813D812230D5
:103B100031052CF48C819D81009761F019C02C81B6
:103B20003D812230310569F08C819D818330910582
:103B300061F00EC08B8189830BC08B81805C89838F
:103B400007C08B81805F898303C08B81805B898301
:103B5000898180680E9453140F900F900F900F90EE
:103B60000F90CF91DF910895DF93CF9300D000D0D5
:103B7000CDB7DEB789836A835C834B8389816A8191
:103B80000E94721D8B819C810E94491D0F900F9095
:103B90000F900F90CF91DF910895DF93CF93CDB722
:103BA000DEB762970FB6F894DEBF0FBECDBF9A8B1B
:103BB000898B89899A899E012F5F3F4FB9014AE01D
:103BC00050E00E947A25CE0101960E94491D62961E
:103BD0000FB6F894DEBF0FBECDBFCF91DF91089531
:103BE000DF93CF93CDB7DEB781E00E945314CF911E
:103BF000DF9108950F931F93DF93CF93CDB7DEB777
:103C000068970FB6F894DEBF0FBECDBF6D8B7E8B6D
:103C10008F8B988F8D899E89AF89B88DBC01CD011E
:103C200045E023E0FE0131968F010E945925CE0127
:103C300001960E94491D68960FB6F894DEBF0FBE2C
:103C4000CDBFCF91DF911F910F910895DF93CF9357
:103C500000D0CDB7DEB79A838983E981FA8180816C
:103C6000E981FA819181692F41E00E9442080F9019
:103C70000F90CF91DF910895DF93CF9300D0CDB710
:103C8000DEB79A838983E981FA818081E981FA81AB
:103C90009181692F41E00E942D090F900F90CF91E3
:103CA000DF910895DF93CF9300D0CDB7DEB79A832D
:103CB0008983E981FA818081E981FA819181692F83
:103CC00040E00E942D090F900F90CF91DF91089551
:103CD000DF93CF9300D0CDB7DEB79A838983E98194
:103CE000FA818081E981FA819181692F41E00E9406
:103CF00042080F900F90CF91DF910895DF93CF93FB
:103D000000D0CDB7DEB79A838983E981FA818081BB
:103D1000E981FA819181692F41E00E942D090F907C
:103D20000F90CF91DF910895DF93CF9300D0CDB75F
:103D3000DEB79A838983E981FA818081E981FA81FA
:103D40009181692F40E00E942D090F900F90CF9133
:103D5000DF910895DF93CF9300D0CDB7DEB79A837C
:103D60008983E981FA818081E981FA819181692FD2
:103D70000E94270A0F900F90CF91DF910895DF9353
:103D8000CF93CDB7DEB70E94F811882379F081EF89
:103D900091E00E945B128091280284608093280247
:103DA0008FEB9EE162E00E94AB0C0EC081EF91E0D0
:103DB0000E947112809128028B7F809328028FEBE2
:103DC0009EE163E00E94AB0CCF91DF910895DF93F9
:103DD000CF93CDB7DEB70E94EC118FEB9EE163E08D
:103DE0000E94AB0C81EF91E00E944512CF91DF91D0
:103DF0000895DF93CF93CDB7DEB783EF91E00E94B4
:103E00007E1E80912802806180932802CF91DF91ED
:103E10000895DF93CF93CDB7DEB783EF91E00E9493
:103E2000941E809128028F7E80932802CF91DF918B
:103E30000895DF93CF930F92CDB7DEB78983898141
:103E40008093220281E0809325020E94B10E0F90A0
:103E5000CF91DF910895DF93CF93CDB7DEB7289749
:103E60000FB6F894DEBF0FBECDBF89836A83898108
:103E7000809324020E94F01D8981282F30E038872A
:103E80002F838F8198858130910509F44DC02F8152
:103E90003885223031052CF48F819885009771F098
:103EA0008AC02F8138852230310509F444C08F81C2
:103EB00098858330910509F463C07DC08A81282FDD
:103EC00030E03E832D838D819E8182309105A1F06B
:103ED0002D813E8123303105B9F08D819E81813065
:103EE0009105E9F480E690E00E94491D0E94F91EC8
:103EF00082E00E94191F5FC08CE690E00E94491D7D
:103F000082E00E94191F57C08AE790E00E94491D75
:103F100081E08093240282E00E94191F4CC089E84E
:103F200090E00E94491D47C00E94091F85E990E06A
:103F30000E94491D40C08A81282F30E03C832B839A
:103F40008B819C818130910531F02B813C81223025
:103F5000310531F010C083EA90E00E94491D2BC06A
:103F600081EB90E00E94491D83E08093240282E06F
:103F70000E94191F20C08DEB90E00E94491D1BC0BC
:103F80008A818823A1F08DEC90E00E94491D83EF87
:103F900091E00E94AA1E813019F41092240203C0FD
:103FA00081E08093240282E00E94191F04C089ED01
:103FB00090E00E94491D81E060E00E94721D109215
:103FC000210228960FB6F894DEBF0FBECDBFCF9169
:103FD000DF910895DF93CF93CDB7DEB780911B02B9
:103FE00090911C02019690931C0280931B02809179
:103FF0002202282F30E0C901880F991F820F931FDA
:104000009C01220F331F220F331F820F931F880F33
:10401000991F9C0180911B0290911C02281739075F
:1040200069F40E94C80E1092250210921C02109290
:104030001B028091240260E00E942B1FCF91DF9130
:104040000895DF93CF930F92CDB7DEB780E090E075
:1040500061E00E94ED07198221C08981882F90E0DC
:104060000196AC018981882F90E0FC01E65DFD4F4F
:104070002081CA01622F0E94ED078981282F30E03C
:104080008981882F90E0FC01E65DFD4F8081F90178
:10409000E35EFD4F808389818F5F898389818430CE
:1040A000E0F21092210283E061E00E942B1F0F904A
:1040B000CF91DF9108950F931F93DF93CF9300D09B
:1040C000CDB7DEB780E090E00E941D088A838A8128
:1040D0008130C1F481E0898312C08981882F90E00A
:1040E0008C01015010408981882F90E00E941D08AA
:1040F000F801E35EFD4F808389818F5F8983898129
:10410000853058F30F900F90CF91DF911F910F9151
:104110000895DF93CF9300D0CDB7DEB781E08983D8
:104120001A8214C08A81882F90E0FC01E65DFD4F61
:1041300020818A81882F90E0FC01E35EFD4F808121
:10414000281709F019828A818F5F8A838A818430D7
:1041500048F30E94F01D8981813071F4809124021E
:10416000823029F482E062E00E942B1F12C080E0BE
:1041700063E00E942B1F0DC080912402823029F43D
:1041800082E061E00E942B1F04C080E062E00E9498
:104190002B1F82E00E94191F109221020F900F9096
:1041A000CF91DF910895DF93CF93CDB7DEB72F97EF
:1041B0000FB6F894DEBF0FBECDBF8F878F858A30D4
:1041C00020F580912402813001F18F85882F90E0C5
:1041D0000E94CD1D20912102822F90E0FC01E65D1E
:1041E000FD4F8F858083822F8F5F80932102809186
:1041F00021028430B9F580912402833019F40E94A1
:10420000212030C00E9489202DC08F858332E9F49F
:1042100080912402882321F080912402813029F4A6
:1042200082E060E00E942B1F1DC083EF91E00E949E
:10423000AA1E813029F480E060E00E942B1F12C08A
:1042400081E060E00E942B1F0DC08F858A3251F4FF
:1042500083EF91E00E94AA1E882321F480E061E0B0
:104260000E942B1F80E090E0A6E9B3E48B879C8737
:10427000AD87BE876B857C858D859E8520E030E08F
:104280004AE755E40E949C02DC01CB018F839887AA
:10429000A987BA876F81788589859A8520E030E083
:1042A00040E85FE30E94A20488232CF481E090E0C0
:1042B0009E838D833FC06F81788589859A8520E0B4
:1042C0003FEF4FE757E40E94420418164CF56B8508
:1042D0007C858D859E8520E030E040E251E40E949F
:1042E0009C02DC01CB01BC01CD010E94C600DC01B7
:1042F000CB019E838D830FC080E991E09C838B83EB
:104300008B819C810197F1F79C838B838D819E81AA
:1043100001979E838D838D819E81009769F714C0DC
:104320006F81788589859A850E94C600DC01CB0162
:104330009E838D838D819E819A83898389819A81D1
:104340000197F1F79A8389832F960FB6F894DEBF11
:104350000FBECDBFCF91DF910895DF93CF93CDB73F
:10436000DEB70E94A1130E94871283EF91E00E94A2
:10437000681E83EF91E00E947E1E0E945B2080E019
:1043800060E00E942B1F87E00E94970E8AEE9FE15B
:104390000E94FC0E0E94EE0ECF91DF910895DF93F4
:1043A000CF930F92CDB7DEB780912502882349F4D1
:1043B0000E94B11289838981803219F089810E941B
:1043C000D3200F90CF91DF910895DF93CF93CDB796
:1043D000DEB70E94E111882331F0809128028860C5
:1043E0008093280205C080912802877F809328024D
:1043F000CF91DF910895DF93CF93CDB7DEB70E94C1
:10440000D511CF91DF910895DF93CF93CDB7DEB76C
:1044100080912902882F90E081709070882311F09C
:104420000E94E521CF91DF910895DF93CF93CDB71F
:10443000DEB70E94CA118823B9F080912802882F24
:1044400090E081709070009729F486EF91E00E94CF
:104450005B1204C086EF91E00E94711280912802E5
:1044600084608093280209C086EF91E00E94711257
:10447000809128028B7F80932802CF91DF9108954D
:10448000DF93CF93CDB7DEB70E94BE1185E192E2F4
:1044900061E00E94740C86EF91E00E944512CF917A
:1044A000DF910895DF93CF93CDB7DEB70E94B311AC
:1044B000882351F088EF91E00E945B1280912802DE
:1044C00081608093280209C088EF91E00E947112F8
:1044D000809128028E7F809328020E941522CF911E
:1044E000DF910895DF93CF93CDB7DEB70E94A71178
:1044F00082E592E261E00E94440C88EF91E00E9424
:104500004512CF91DF910895DF93CF93CDB7DEB7FA
:10451000809126028A3049F48CEF91E00E943C1E83
:104520008AEF91E00E9419120EC080912602843118
:1045300051F48CEF91E00E94521E8AEF91E00E94AC
:104540002F1210922602809126028F5F80932602FE
:10455000CF91DF910895DF93CF93CDB7DEB70E945F
:104560003F0DCF91DF910895DF93CF93CDB7DEB7A5
:104570000E94560D8CEF91E00E94521E8AEF91E04E
:104580000E942F1210922602CF91DF910895DF939F
:10459000CF93CDB7DEB785E00E94250D84E892E287
:1045A0000E948A0D0E947C0D8AEF91E00E94031206
:1045B0008CEF91E00E94261ECF91DF910895DF934A
:1045C000CF93CDB7DEB780912802882F90E08F700F
:1045D0009070009741F480912902882F90E08270BA
:1045E0009070009719F00E94AB2202C00E94B42282
:1045F000CF91DF910895DF93CF93CDB7DEB7809150
:104600002802282F30E080912702882F90E082270F
:104610009327817090708823B1F09091270281E0F8
:1046200089278093270280912802882F90E081704B
:104630009070882321F081E00E943610C3C082E090
:104640000E943610BFC080912802882F90E08270AF
:1046500090709C013595279580912702882F90E0D6
:10466000827090709595879528173907B1F09091D1
:10467000270282E089278093270280912802882FD1
:1046800090E082709070009721F083E00E943610D5
:1046900099C084E00E94361095C080912802882F2E
:1046A00090E0847090709C013595279535952795FD
:1046B00080912702882F90E084709070959587955F
:1046C0009595879528173907B1F09091270284E0D6
:1046D00089278093270280912802882F90E0847098
:1046E0009070009721F085E00E9436106BC086E044
:1046F0000E94361067C080912802882F90E0887051
:1047000090709C013595279535952795359527957A
:1047100080912702882F90E08870907095958795FA
:10472000959587959595879528173907B1F09091BC
:10473000270288E089278093270280912802882F0A
:1047400090E088709070009721F087E00E9436100A
:1047500039C088E00E94361035C080912802882F29
:1047600090E0807190709C0135952795359527953F
:10477000359527953595279580912702882F90E0CC
:104780008071907095958795959587959595879566
:104790009595879528173907A9F09091270280E110
:1047A00089278093270280912802882F90E08071CA
:1047B0009070009721F084E00E94361003C084E0DE
:1047C0000E943610CF91DF910895DF93CF9300D0F0
:1047D0000F92CDB7DEB789838981282F30E03B83E4
:1047E0002A838A819B818F30910509F45AC02A81DE
:1047F0003B8120313105E4F48A819B818C30910525
:1048000009F43DC02A813B812D30310534F48A8181
:104810009B818B30910569F169C02A813B812D30E4
:10482000310599F18A819B818E309105A1F15EC09D
:104830002A813B812231310509F443C08A819B8161
:10484000833191055CF42A813B812031310589F166
:104850008A819B8181319105C9F148C02A813B81C0
:1048600023313105C1F18A819B8184319105C9F1E0
:104870003DC08091290281608093290237C08091D8
:1048800029028E7F8093290231C0809129028260A3
:10489000809329022BC0809129028D7F8093290269
:1048A00025C00E94E40C8091290284608093290233
:1048B0001DC00E94360C809129028B7F80932902B3
:1048C00015C080E063E00E942B1F10C080E061E013
:1048D0000E942B1F0BC080912902886080932902BF
:1048E00005C080912902877F809329020F900F9045
:1048F0000F90CF91DF910895DF93CF930F92CDB7B3
:10490000DEB70E944D10898389810E94E5230F90B4
:10491000CF91DF910895DF93CF93CDB7DEB70E949B
:10492000FB22CF91DF910895DF93CF93CDB7DEB710
:104930002C970FB6F894DEBF0FBECDBFCE01019607
:1049400099878887EEEFF1E0FB87EA87F7E0FC873D
:10495000EA85FB8500808A859B8501969B878A87EF
:10496000E885F985008288859985019699878887E9
:104970009C8591509C87EC85EE2351F7CE010196E2
:104980000E94B50F8CE794E20E94951184E00E948A
:104990004D1184E00E94DD0D8BE894E20E94440EEC
:1049A0000E94360E0E94F80D2C960FB6F894DEBFCA
:1049B0000FBECDBFCF91DF910895DF93CF93CDB7D9
:1049C000DEB70E9494240E94C7220E9472220E9495
:1049D00040220E94E71E0E94FB210E94AD210E94FE
:1049E000360C80912902882F90E084709070009797
:1049F000C1F70E94CF210E9404220E94DF22F1CF42
:104A0000A1E21A2EAA1BBB1BFD010DC0AA1FBB1FD2
:104A1000EE1FFF1FA217B307E407F50720F0A21B44
:104A2000B30BE40BF50B661F771F881F991F1A94B1
:104A300069F760957095809590959B01AC01BD01DB
:104A4000CF0108952F923F924F925F926F927F9283
:104A50008F929F92AF92BF92CF92DF92EF92FF928E
:104A60000F931F93CF93DF93CDB7DEB7CA1BDB0B3A
:104A70000FB6F894DEBF0FBECDBF09942A883988DF
:104A800048885F846E847D848C849B84AA84B984E6
:104A9000C884DF80EE80FD800C811B81AA81B981F2
:104AA000CE0FD11D0FB6F894DEBF0FBECDBFED0106
:104AB0000895EF92FF920F931F93F22FF02E47FD70
:104AC00002C0E4E001C0E4E1242F332727FD309544
:104AD00037FF03C0309521953F4F4F2D512F0F2F9A
:104AE000EE2E0E949B258F2D912F1F910F91FF90ED
:104AF000EF900895FB019F01E8944230C4F04532E5
:104B0000B4F44A3029F497FB1EF4909581959F4F99
:104B1000642F77270E94E527805D8A330CF0895D3A
:104B20008193CB010097A1F716F45DE251931082B7
:104B3000C9010C94D527A9E0B0E0E1EAF5E20C94B4
:104B400026256A01122FA02EBE2C2BE3201718F465
:104B50002CE3922E02C0902E9394AE014F5F5F4FD4
:104B600027E0092D0E94FD26BC018981E82EFF2443
:104B7000C70189709070019711F4ADE209C0B1FED0
:104B800002C0ABE205C0B0FC02C0A0E001C0A0E2E0
:104B9000E3FE3BC0AA2311F423E001C024E0211767
:104BA00010F020E002C0121B212FEB2CB4FE02C03B
:104BB000322F0AC0F601322F80E202C081933150B9
:104BC0003323E1F7C20ED11CAA2319F0F601A193F9
:104BD0006F01F6013196E2FE05C09EE4D6019C937A
:104BE00081E404C09EE6D6019C9381E611968C93E5
:104BF00091833296DF01832F90E202C09D93815012
:104C00008823E1F7E30FF11D40C0E2FE42C0AA2372
:104C100011F423E001C024E0211710F020E002C0CD
:104C2000121B212FEB2CB4FE02C0922F0AC0F601FA
:104C3000922F80E202C0819391509923E1F7C20E36
:104C4000D11CAA2319F0F601A1936F01F601319648
:104C5000E2FE08C089E4D6018C938EE411968C9311
:104C600086E407C089E6D6018C938EE611968C9374
:104C700086E681833296DF01892F20E202C02D93E0
:104C800081508823E1F7E90FF11D10822EEF3FEFED
:104C9000AFC0161617061CF041E050E003C0AB0190
:104CA0004F5F5F4FAA2019F480E090E003C08A2D87
:104CB00090E0019620E030E0AA2311F021E030E0FE
:104CC000240F351F280F391F812F90E0281739072F
:104CD00014F020E002C0121B212F4B2D50E0CA011E
:104CE00080719070B4FC0DC0B3FC0BC0F601322F84
:104CF00040E202C0419331503323E1F7C20ED11C90
:104D000001C0322FAA2319F0F601A1936F01892B5C
:104D100011F0132F0AC0F601132F80E302C0819314
:104D200011501123E1F7C30ED11C092D060FBA80D3
:104D300090E1892E912C8E209F20E4FE04C0F1E3A7
:104D4000BF1609F40150101614F001E003C0093039
:104D500008F008E09B0177FF02C020E030E0CB01C3
:104D60000196821B930BFE013196E80FF91F8EE22C
:104D7000F82E3B01601A71088A2D90E044275527D0
:104D8000481B590B8FEF2F3F380719F4D601FD92BE
:104D90006D01621773072CF06216730614F480819C
:104DA00001C080E32150304031962417350724F0AC
:104DB000D6018D936D01E6CF2617370749F4B5E389
:104DC000BB1528F0BB1621F48114910409F481E38A
:104DD000F6018193D601812F90E202C09C9381500D
:104DE00011968823D9F7E10FF11D108220E030E001
:104DF000C9012996EEE00C944225283008F027E0FE
:104E00003327DA01990F311D87FD91600096610506
:104E1000710539F432602E5F3D9330E32A95E1F756
:104E200008959F3F30F080387105610509F03C5FBF
:104E30003C5F3D93913008F08068911DDF93CF93E4
:104E40001F930F93FF92EF92192F987F9695E92F5A
:104E500096959695E90FFF27E255FF4F992733273F
:104E6000EE24FF24A701E70105900894079428F495
:104E7000360FE71EF81E491F511D660F771F881F4A
:104E8000991F0694A1F70590079428F4E70EF81EE1
:104E9000491F561FC11D770F881F991F661F069453
:104EA000A1F70590079428F4F80E491F561FC71F55
:104EB000D11D880F991F661F771F0694A1F70590D3
:104EC000079420F4490F561FC71FD81F990F661F5C
:104ED000771F881F0694A9F784911095177041F0E9
:104EE000D695C79557954795F794E7941A95C1F7C6
:104EF000E4E5F0E0689415901591359165919591F0
:104F000005907FE27395E118F10A430B560BC90B2C
:104F1000D009C0F7E10CF11E431F561FC91FD01D59
:104F20007EF4703311F48A95E6CFE894015030F0A6
:104F3000080F0AF40027021708F4202F2395022FE8
:104F40007A3328F079E37D932A95E9F710C07D93B1
:104F50002A9589F60694979567953795179517942E
:104F6000E118F10A430B560BC90BD00998F02395B1
:104F70007E9173957A3308F070E37C932013B8F731
:104F80007E9170617D9330F0839571E37D9370E342
:104F90002A95E1F71124EF90FF900F911F91CF9187
:104FA000DF91992787FD90950895DC01FC01672F1B
:104FB00071917723E1F7329704C07C916D937083F0
:104FC0006291AE17BF07C8F30895AA1BBB1B51E13E
:104FD00007C0AA1FBB1FA617B70710F0A61BB70B69
:104FE000881F991F5A95A9F780959095BC01CD010E
:064FF0000895F894FFCFC4
:104FF600446F6F72204C6F636B6564004163636539
:1050060073732044656E69656400416363657373F9
:10501600204772616E74656400456E746572205037
:10502600696E3A2000446F6F7220556E6C6F636B29
:10503600656400496E636F72726563742050696EB1
:1050460000436F72726563742050696E00456E741A
:105056006572204F6C642050696E3A200050696E6C
:10506600204368616E67656400456E746572204E04
:1050760065772050696E3A200000000000000000AD
:1050860000000102020303030304040404040404ED
:1050960004050505050505050505050505050505BB
:1050A600050606060606060606060606060606069B
:1050B600060606060606060606060606060606068A
:1050C600060707070707070707070707070707076B
:1050D600070707070707070707070707070707075A
:1050E600070707070707070707070707070707074A
:1050F600070707070707070707070707070707073A
:10510600070808080808080808080808080808081A
:105116000808080808080808080808080808080809
:1051260008080808080808080808080808080808F9
:1051360008080808080808080808080808080808E9
:1051460008080808080808080808080808080808D9
:1051560008080808080808080808080808080808C9
:1051660008080808080808080808080808080808B9
:1051760008080808080808080808080808080808A9
:1051860008030502070101040304010001010002EE
:065196000000C201000050
:00000001FF
