:100000000C942A000C9453090C9486090C94B90999
:100010000C9447000C94600B0C9447000C94470020
:100020000C9447000C9447000C9447000C94A80AC9
:100030000C9447000C9447000C9447000C94470024
:100040000C9447000C9447000C9447000C94470014
:100050000C94470011241FBECFE5D8E0DEBFCDBF12
:1000600010E0A0E6B0E0E4EAFAE302C005900D92E9
:10007000AE39B107D9F710E0AEE9B0E001C01D928A
:10008000A93BB107E1F70E94951C0C94501D0C94FC
:100090000000EF92FF920F931F937B018C0120E0F1
:1000A00030E040E05FE40E94490388238CF0C801FF
:1000B000B70120E030E040E05FE40E94C1010E940F
:1000C000A9039B01AC01205030404040504806C07D
:1000D000C801B7010E94A9039B01AC01B901CA0183
:1000E0001F910F91FF90EF900895A0E0B0E0EBE733
:1000F000F0E00C94D41CDC012B01FA019C919230AD
:1001000008F439C1EB018881823008F433C194309E
:1001100069F4843009F02FC111969C91119789815F
:10012000981709F428C1A8E8B0E025C1843009F483
:1001300021C18230A9F4923009F01DC19A01AD01AC
:1001400088E0EA010990AE01E90109929E0181501F
:10015000C1F7E201898111969C918923818308C1AD
:10016000923009F407C112962D903C901397EB0141
:100170008A819B811496AD90BD90CD90DC901797AD
:10018000EC80FD800E811F819101281B390BB90184
:1001900037FF04C066277727621B730B6032710537
:1001A0000CF061C0121613066CF537014801062EDB
:1001B00004C096948794779467940A94D2F721E0C8
:1001C00030E040E050E004C0220F331F441F551FB1
:1001D0006A95D2F721503040404050402E213F21B7
:1001E00040235123211531054105510521F021E01E
:1001F00030E040E050E079018A01E628F72808293C
:1002000019293CC0232BD1F1260E371E350146019A
:10021000062E04C096948794779467940A94D2F734
:1002200021E030E040E050E004C0220F331F441FC3
:10023000551F6A95D2F721503040404050402A2146
:100240003B214C215D21211531054105510521F04E
:1002500021E030E040E050E059016A01A628B728CB
:10026000C828D9280BC0821593052CF01C01AA249C
:10027000BB24650103C0EE24FF24870111969C91E5
:10028000D20111968C91981709F445C0992339F041
:10029000A80197012A193B094C095D0906C0A6016E
:1002A00095012E193F09400B510B57FD08C01182D3
:1002B0003382228224833583468357831DC081E0A5
:1002C00081833382228288279927DC01821B930B4A
:1002D000A40BB50B84839583A683B7830DC0220F2F
:1002E000331F441F551F24833583468357838281E0
:1002F000938101979383828324813581468157813D
:10030000DA01C9010197A109B1098F5F9F4FAF4F72
:10031000BF4328F30BC0918333822282EA0CFB1C7B
:100320000C1D1D1DE482F5820683178383E0808304
:10033000248135814681578157FF1AC0C901AA27F8
:1003400097FDA095BA2F81709070A070B0705695EF
:10035000479537952795822B932BA42BB52B848318
:100360009583A683B7838281938101969383828349
:10037000DF0101C0D201CD01CDB7DEB7E2E10C94BF
:10038000F01CA0E2B0E0E7ECF1E00C94E01C698323
:100390007A838B839C832D833E834F835887E9E048
:1003A000EE2EF12CEC0EFD1ECE010196B7010E943F
:1003B000D2048E010F5E1F4FCE010596B8010E9438
:1003C000D2048A8991E089278A8BC701B801AE01DE
:1003D000475E5F4F0E9475000E94FD03A096E6E015
:1003E0000C94FC1CA0E2B0E0E8EFF1E00C94E01CFF
:1003F00069837A838B839C832D833E834F835887C5
:10040000F9E0EF2EF12CEC0EFD1ECE010196B701A6
:100410000E94D2048E010F5E1F4FCE010596B801D7
:100420000E94D204C701B801AE01475E5F4F0E942F
:1004300075000E94FD03A096E6E00C94FC1CA0E26F
:10044000B0E0E5E2F2E00C94D41C69837A838B83FC
:100450009C832D833E834F835887CE010196BE0136
:10046000675F7F4F0E94D204CE010596BE016F5E8A
:100470007F4F0E94D2049985923088F0898982301A
:10048000C8F0943019F4823051F404C0843029F457
:10049000923081F488E890E0C6C0923049F420E0C0
:1004A0009A858A89981321E02A87CE010996BBC0D4
:1004B000823049F420E09A858A89981321E02A8BBA
:1004C000CE014196B0C02D843E844F8458886D88FB
:1004D0007E888F88988CEE24FF248701AA24BB2471
:1004E000650140E050E060E070E0E0E0F0E0C10174
:1004F00081709070892BE9F0E60CF71C081D191D1E
:100500009A01AB012A0D3B1D4C1D5D1D80E090E062
:10051000A0E0B0E0E614F7040805190520F481E036
:1005200090E0A0E0B0E0BA01A901480F591F6A1F8E
:100530007B1FAA0CBB1CCC1CDD1C97FE08C081E0F5
:1005400090E0A0E0B0E0A82AB92ACA2ADB2A3196B6
:10055000E032F10549F0660C771C881C991C569412
:10056000479437942794C3CFFA85EA892B893C892D
:100570008B859C85280F391F2E5F3F4F17C0CA01FE
:1005800081709070892B61F016950795F794E79428
:1005900080E090E0A0E0B0E8E82AF92A0A2B1B2BC3
:1005A00076956795579547952F5F3F4F77FDE7CF36
:1005B0000CC0440F551F661F771F17FD4160EE0CDE
:1005C000FF1C001F111F21503040403090E05907A0
:1005D00090E0690790E4790760F32B8F3C8FDB0193
:1005E000CA018F779070A070B07080349105A1051A
:1005F000B10561F447FD0AC0E114F10401051105DC
:1006000029F0405C5F4F6F4F7F4F40781A8EFE1786
:1006100011F081E08A8F4D8F5E8F6F8F78A383E01A
:10062000898FCE0149960E94FD03A096E2E10C94C9
:10063000F01CA8E1B0E0EFE1F3E00C94E01C69836A
:100640007A838B839C832D833E834F83588789E0F5
:10065000E82EF12CEC0EFD1ECE010196B7010E9492
:10066000D2048E010F5E1F4FCE010596B8010E9485
:10067000D2048985823040F08989823028F0C70110
:10068000B8010E944A0501C08FEF6896E6E00C941D
:10069000FC1CA8E1B0E0EFE4F3E00C94E01C6983FB
:1006A0007A838B839C832D833E834F83588789E095
:1006B000E82EF12CEC0EFD1ECE010196B7010E9432
:1006C000D2048E010F5E1F4FCE010596B8010E9425
:1006D000D2048985823040F08989823028F0C701B0
:1006E000B8010E944A0501C08FEF6896E6E00C94BD
:1006F000FC1CA8E1B0E0EFE7F3E00C94E01C698398
:100700007A838B839C832D833E834F83588789E034
:10071000E82EF12CEC0EFD1ECE010196B7010E94D1
:10072000D2048E010F5E1F4FCE010596B8010E94C4
:10073000D2048985823040F08989823028F0C7014F
:10074000B8010E944A0501C081E06896E6E00C9479
:10075000FC1CACE0B0E0EFEAF3E00C94E41C69832D
:100760007A838B839C83CE010196BE016B5F7F4FA2
:100770000E94D2048D81823061F1823050F1843048
:1007800021F48E81882351F12EC02F81388537FDC9
:1007900020C06E812F3131051CF06623F9F023C093
:1007A0008EE190E0821B930B29853A854B855C8511
:1007B00004C056954795379527958A95D2F76623B5
:1007C000B1F050954095309521953F4F4F4F5F4F79
:1007D0000EC020E030E040E050E009C02FEF3FEFD6
:1007E0004FEF5FE704C020E030E040E050E8B9019F
:1007F000CA012C96E2E00C94001DDF92EF92FF926A
:100800000F931F93FC01E480F58006811781D1804E
:100810008081823048F480E090E0A0E1B0E0E82AF6
:10082000F92A0A2B1B2BA5C0843009F49FC0823003
:1008300021F4EE24FF24870105C0E114F104010531
:10084000110519F4E0E0F0E096C0628173819FEF3A
:10085000623879070CF05BC022E83FEF261B370BAC
:100860002A3131052CF020E030E040E050E02AC091
:10087000B801A701022E04C0769567955795479554
:100880000A94D2F781E090E0A0E0B0E004C0880FC5
:10089000991FAA1FBB1F2A95D2F70197A109B10979
:1008A0008E219F21A023B1230097A105B10521F03E
:1008B00081E090E0A0E0B0E09A01AB01282B392B59
:1008C0004A2B5B2BDA01C9018F779070A070B07052
:1008D00080349105A105B10539F427FF09C0205CDA
:1008E0003F4F4F4F5F4F04C0215C3F4F4F4F5F4F13
:1008F000E0E0F0E02030A0E03A07A0E04A07A0E402
:100900005A0710F0E1E0F0E079018A0127C0603871
:10091000710564F5FB01E158FF4FD801C7018F77DE
:100920009070A070B07080349105A105B10539F4C4
:10093000E7FE0DC080E490E0A0E0B0E004C08FE3EB
:1009400090E0A0E0B0E0E80EF91E0A1F1B1F17FFA1
:1009500005C016950795F794E794319687E01695AC
:100960000795F794E7948A95D1F705C0EE24FF2404
:100970008701EFEFF0E06E2F679566276795902F60
:100980009F77D794DD24D7948E2F8695492F462BB9
:10099000582F5D29B701CA011F910F91FF90EF9069
:1009A000DF900895FC01DB01408151812281622F9B
:1009B0006F7770E0221F2227221F9381892F880FD3
:1009C000822B282F30E0991F9927991F11969C930D
:1009D000119721153105A9F54115510561057105DD
:1009E00011F482E037C082E89FEF13969C938E93B8
:1009F00012979A01AB0167E0220F331F441F551F66
:100A00006A95D1F783E08C930DC0220F331F441FEA
:100A1000551F12968D919C911397019713969C9355
:100A20008E931297203080E0380780E0480780E4FA
:100A3000580758F314962D933D934D935C93179755
:100A400008952F3F310579F4411551056105710570
:100A500019F484E08C93089564FF03C081E08C93C3
:100A600012C01C9210C02F57304013963C932E9307
:100A7000129783E08C9387E0440F551F661F771F02
:100A80008A95D1F7706414964D935D936D937C9322
:100A9000179708951F93DC01FB019C91923008F495
:100AA00047C08081823008F443C0943051F41196DD
:100AB0001C91843099F58181682F70E0611B710968
:100AC0003FC0843021F0923031F48230B9F181811D
:100AD000882389F12DC011961C9111978230F1F075
:100AE00081811817D9F412962D913C911397828128
:100AF00093818217930794F028173907BCF0149656
:100B00008D919D910D90BC91A02D248135814681C0
:100B10005781281739074A075B0718F4112341F05A
:100B20000AC082179307A407B50740F4112319F0F0
:100B300061E070E005C06FEF7FEF02C060E070E041
:100B4000CB011F910895DF93CF9300D00F92CDB7C3
:100B5000DEB79A8389836B83ECE3F0E08081882F92
:100B600090E0827090700097B9F7EEE3F0E0898131
:100B70009A8191838083EDE3F0E08B818083ACE305
:100B8000B0E0ECE3F0E0808184608C93ACE3B0E013
:100B9000ECE3F0E0808182608C930F900F900F90D7
:100BA000CF91DF910895DF93CF9300D0CDB7DEB71B
:100BB0009A838983ECE3F0E08081882F90E0827053
:100BC00090700097B9F7EEE3F0E089819A81918304
:100BD0008083ACE3B0E0ECE3F0E0808181608C9353
:100BE000EDE3F0E080810F900F90CF91DF910895B9
:100BF000DF93CF9300D000D00F92CDB7DEB78983BB
:100C00006A834B838A81883008F0D5C0898184301B
:100C100008F0D1C08981282F30E03D832C838C815E
:100C20009D818130910509F443C02C813D812230A2
:100C300031052CF48C819D81009771F0BCC02C8112
:100C40003D812230310509F45FC08C819D81833064
:100C5000910509F485C0AFC08B818130A1F4AAE36E
:100C6000B0E0EAE3F0E08081482F8A81282F30E06D
:100C700081E090E0022E02C0880F991F0A94E2F7EB
:100C8000842B8C9398C0AAE3B0E0EAE3F0E0808183
:100C9000482F8A81282F30E081E090E0022E02C0A8
:100CA000880F991F0A94E2F7809584238C9383C060
:100CB0008B818130A1F4A7E3B0E0E7E3F0E080812D
:100CC000482F8A81282F30E081E090E0022E02C078
:100CD000880F991F0A94E2F7842B8C936CC0A7E3CA
:100CE000B0E0E7E3F0E08081482F8A81282F30E0F0
:100CF00081E090E0022E02C0880F991F0A94E2F76B
:100D0000809584238C9357C08B818130A1F4A4E318
:100D1000B0E0E4E3F0E08081482F8A81282F30E0C2
:100D200081E090E0022E02C0880F991F0A94E2F73A
:100D3000842B8C9340C0A4E3B0E0E4E3F0E0808136
:100D4000482F8A81282F30E081E090E0022E02C0F7
:100D5000880F991F0A94E2F7809584238C932BC007
:100D60008B818130A1F4A1E3B0E0E1E3F0E0808188
:100D7000482F8A81282F30E081E090E0022E02C0C7
:100D8000880F991F0A94E2F7842B8C9314C0A1E377
:100D9000B0E0E1E3F0E08081482F8A81282F30E045
:100DA00081E090E0022E02C0880F991F0A94E2F7BA
:100DB000809584238C930F900F900F900F900F903D
:100DC000CF91DF910895DF93CF9300D000D00F92A1
:100DD000CDB7DEB789836A834B838A81883008F078
:100DE000E4C08981843008F0E0C08981282F30E098
:100DF0003D832C838C819D818130910509F447C00E
:100E00002C813D81223031052CF48C819D8100970D
:100E100071F0CBC02C813D812230310509F467C0CF
:100E20008C819D818330910509F491C0BEC08B8176
:100E30008823A9F4ABE3B0E0EBE3F0E08081482F36
:100E40008A81282F30E081E090E0022E02C0880FD6
:100E5000991F0A94E2F7809584238C93A6C08B8116
:100E6000813009F0A2C0ABE3B0E0EBE3F0E08081B9
:100E7000482F8A81282F30E081E090E0022E02C0C6
:100E8000880F991F0A94E2F7842B8C938EC08B8174
:100E90008823A9F4A8E3B0E0E8E3F0E08081482FDC
:100EA0008A81282F30E081E090E0022E02C0880F76
:100EB000991F0A94E2F7809584238C9376C08B81E6
:100EC000813009F072C0A8E3B0E0E8E3F0E080818F
:100ED000482F8A81282F30E081E090E0022E02C066
:100EE000880F991F0A94E2F7842B8C935EC08B8144
:100EF0008823A9F4A5E3B0E0E5E3F0E08081482F82
:100F00008A81282F30E081E090E0022E02C0880F15
:100F1000991F0A94E2F7809584238C9346C08B81B5
:100F2000813009F042C0A5E3B0E0E5E3F0E0808164
:100F3000482F8A81282F30E081E090E0022E02C005
:100F4000880F991F0A94E2F7842B8C932EC08B8113
:100F50008823A9F4A2E3B0E0E2E3F0E08081482F27
:100F60008A81282F30E081E090E0022E02C0880FB5
:100F7000991F0A94E2F7809584238C9316C08B8185
:100F8000813099F4A2E3B0E0E2E3F0E08081482F01
:100F90008A81282F30E081E090E0022E02C0880F85
:100FA000991F0A94E2F7842B8C930F900F900F9067
:100FB0000F900F90CF91DF910895DF93CF93CDB72E
:100FC000DEB729970FB6F894DEBF0FBECDBF898379
:100FD0006A838A81883008F08DC08981843008F066
:100FE00089C08981282F30E039872887488559852D
:100FF0004130510589F1888599858230910534F415
:10100000288539852115310569F074C048855985D1
:1010100042305105D9F1888599858330910509F4CD
:101020004FC068C0E9E3F0E08081282F30E08A817A
:10103000882F90E0A90102C0559547958A95E2F75F
:10104000CA0181709070882319F051E05E8301C05D
:101050001E828E818F834FC0E6E3F0E08081282FCF
:1010600030E08A81882F90E0A90102C0559547950C
:101070008A95E2F7CA0181709070882319F051E0D7
:101080005D8301C01D828D818F8335C0E3E3F0E075
:101090008081282F30E08A81882F90E0A90102C04A
:1010A000559547958A95E2F7CA018170907088231B
:1010B00019F051E05C8301C01C828C818F831BC0BE
:1010C000E0E3F0E08081282F30E08A81882F90E0F3
:1010D000A90102C0559547958A95E2F7CA0181702A
:1010E0009070882319F051E05B8301C01B828B81D3
:1010F0008F8301C01F828F8129960FB6F894DEBFBF
:101100000FBECDBFCF91DF910895DF93CF9300D075
:1011100000D0CDB7DEB789836A838981843090F5AA
:101120008981282F30E03C832B838B819C81813007
:101130009105D1F02B813C81223031052CF48B813B
:101140009C81009761F01EC02B813C8122303105CB
:1011500081F08B819C818330910581F013C0EAE39B
:10116000F0E08A8180830EC0E7E3F0E08A8180832B
:1011700009C0E4E3F0E08A81808304C0E1E3F0E0A9
:101180008A8180830F900F900F900F90CF91DF9105
:101190000895DF93CF9300D000D0CDB7DEB7898319
:1011A0006A838981843090F58981282F30E03C83DF
:1011B0002B838B819C8181309105D1F02B813C81E7
:1011C000223031052CF48B819C81009761F01EC088
:1011D0002B813C812230310581F08B819C818330D1
:1011E000910581F013C0EBE3F0E08A8180830EC0AB
:1011F000E8E3F0E08A81808309C0E5E3F0E08A81DA
:10120000808304C0E2E3F0E08A8180830F900F9036
:101210000F900F90CF91DF910895DF93CF9300D07F
:1012200000D0CDB7DEB789838981843098F5898174
:10123000282F30E03C832B838B819C81813091056A
:10124000D1F02B813C81223031052CF48B819C81A3
:10125000009761F01FC02B813C812230310581F065
:101260008B819C818330910581F014C0E9E3F0E02B
:1012700090819A8310C0E6E3F0E020812A830BC0BE
:10128000E3E3F0E030813A8306C0E0E3F0E0808100
:101290008A8301C01A828A810F900F900F900F905D
:1012A000CF91DF9108951F920F920FB60F921124E4
:1012B0002F933F934F935F936F937F938F939F935E
:1012C000AF93BF93EF93FF93DF93CF93CDB7DEB789
:1012D00080919E0090919F00009729F0E0919E00E0
:1012E000F0919F000995CF91DF91FF91EF91BF9110
:1012F000AF919F918F917F916F915F914F913F91AE
:101300002F910F900FBE0F901F9018951F920F9264
:101310000FB60F9211242F933F934F935F936F93C8
:101320007F938F939F93AF93BF93EF93FF93DF933D
:10133000CF93CDB7DEB78091A0009091A100009728
:1013400029F0E091A000F091A1000995CF91DF91E3
:10135000FF91EF91BF91AF919F918F917F916F918D
:101360005F914F913F912F910F900FBE0F901F9063
:1013700018951F920F920FB60F9211242F933F933F
:101380004F935F936F937F938F939F93AF93BF938D
:10139000EF93FF93DF93CF93CDB7DEB78091A20099
:1013A0009091A300009729F0E091A200F091A30092
:1013B0000995CF91DF91FF91EF91BF91AF919F91EF
:1013C0008F917F916F915F914F913F912F910F90EE
:1013D0000FBE0F901F901895DF93CF93CDB7DEB758
:1013E000AFE5B0E0EFE5F0E0808180688C93CF91CD
:1013F000DF910895DF93CF9300D00F92CDB7DEB782
:101400009A8389836B8383E062E040E00E94F80561
:10141000ABE5B0E0EBE5F0E0808180648C93A5E57E
:10142000B0E0E5E5F0E080818C7F8C93A5E5B0E04D
:10143000E5E5F0E090818B81892B8C9389819A81FD
:1014400090939F0080939E000F900F900F90CF91EC
:10145000DF910895DF93CF9300D00F92CDB7DEB721
:101460009A8389836B8383E063E040E00E94F80500
:10147000ABE5B0E0EBE5F0E0808180688C93A5E51A
:10148000B0E0E5E5F0E08081837F8C93A5E5B0E0F6
:10149000E5E5F0E08081282F8B81882F90E0880F90
:1014A000991F880F991F822B8C9389819A81909321
:1014B000A1008093A0000F900F900F90CF91DF912B
:1014C0000895DF93CF9300D00F92CDB7DEB79A8304
:1014D00089836B8381E062E040E00E94F805ABE520
:1014E000B0E0EBE5F0E0808180628C938B818D7FB2
:1014F0008B83A4E5B0E0E4E5F0E08081282F2F7B2A
:101500008B81882F90E00024969587950794969577
:1015100087950794982F802D822B8C9389819A81AF
:101520009093A3008093A2000F900F900F90CF9103
:10153000DF910895DF93CF93CDB7DEB7AFE5B0E08D
:10154000EFE5F0E080818F778C93CF91DF91089564
:101550001F920F920FB60F9211242F933F934F9328
:101560005F936F937F938F939F93AF93BF93EF930B
:10157000FF93DF93CF93CDB7DEB78091A400909116
:10158000A500009729F0E091A400F091A50009952D
:10159000CF91DF91FF91EF91BF91AF919F918F918B
:1015A0007F916F915F914F913F912F910F900FBE5F
:1015B0000F901F901895DF93CF930F92CDB7DEB7A2
:1015C0008983E3E5F0E01082A3E5B0E0E3E5F0E035
:1015D000808180688C9389818093A600E2E5F0E0A9
:1015E00010820F90CF91DF910895DF93CF93CDB705
:1015F000DEB7A3E5B0E0E3E5F0E08081887F8C937F
:10160000A3E5B0E0E3E5F0E090818091A600892BAE
:101610008C93CF91DF910895DF93CF93CDB7DEB751
:10162000A3E5B0E0E3E5F0E08081887F8C93CF9183
:10163000DF910895DF93CF93CDB7DEB7E2E5F0E019
:101640008081CF91DF910895DF93CF930F92CDB733
:10165000DEB78983E2E5F0E0898180830F90CF9146
:10166000DF910895DF93CF93CDB7DEB7A9E5B0E062
:10167000E9E5F0E0808181608C93CF91DF9108955E
:10168000DF93CF9300D0CDB7DEB79A83898389816A
:101690009A819093A5008093A4000F900F90CF9112
:1016A000DF910895DF93CF93CDB7DEB7A9E5B0E022
:1016B000E9E5F0E080818E7F8C93CF91DF910895F2
:1016C0001F920F920FB60F9211242F933F934F93B7
:1016D0005F936F937F938F939F93AF93BF93EF939A
:1016E000FF93DF93CF93CDB7DEB78091A7009091A2
:1016F000A800009729F0E091A700F091A8000995B3
:10170000CF91DF91FF91EF91BF91AF919F918F9119
:101710007F916F915F914F913F912F910F900FBEED
:101720000F901F901895DF93CF930F92CDB7DEB730
:101730008983E5E4F0E01082A5E4B0E0E5E4F0E0C0
:10174000808180688C9389818093A900E4E4F0E033
:1017500010820F90CF91DF910895DF93CF93CDB793
:10176000DEB7A5E4B0E0E5E4F0E08081887F8C930B
:10177000A5E4B0E0E5E4F0E090818091A900892B38
:101780008C93CF91DF910895DF93CF93CDB7DEB7E0
:10179000A5E4B0E0E5E4F0E08081887F8C93CF9110
:1017A000DF910895DF93CF93CDB7DEB7E4E4F0E0A7
:1017B0008081CF91DF910895DF93CF930F92CDB7C2
:1017C000DEB78983E4E4F0E0898180830F90CF91D4
:1017D000DF910895DF93CF93CDB7DEB7A9E5B0E0F1
:1017E000E9E5F0E0808180648C93CF91DF910895EA
:1017F000DF93CF9300D0CDB7DEB79A8389838981F9
:101800009A819093A8008093A7000F900F90CF919A
:10181000DF910895DF93CF93CDB7DEB7A9E5B0E0B0
:10182000E9E5F0E080818F7B8C93CF91DF91089583
:10183000DF93CF9300D000D000D0CDB7DEB76B835D
:101840007C838D839E831A821982EBE2F0E082E032
:101850008083EAE2F0E088E18083E0E4F0E086E87B
:1018600080838B819C81AD81BE81880F991FAA1FC7
:10187000BB1F880F991FAA1FBB1F880F991FAA1F84
:10188000BB1F9C01AD0180E092E1AAE7B0E0BC0182
:10189000CD010E94B21CDA01C90101979A838983A4
:1018A000E0E4F0E089819A81892F99278083E9E239
:1018B000F0E08981808326960FB6F894DEBF0FBED4
:1018C000CDBFCF91DF910895DF93CF930F92CDB726
:1018D000DEB78983EBE2F0E08081882F90E08072B0
:1018E00090700097B9F3ECE2F0E0898180830F906B
:1018F000CF91DF910895DF93CF93CDB7DEB7EBE2C1
:10190000F0E080818823DCF7ECE2F0E08081CF9189
:10191000DF910895DF93CF9300D00F92CDB7DEB75C
:101920009B838A8319820EC08981282F30E08A81A7
:101930009B81FC01E20FF31F80810E94640C89816E
:101940008F5F89838981282F30E08A819B81FC0108
:10195000E20FF31F8081882339F70F900F900F90CB
:10196000CF91DF9108950F931F93DF93CF9300D012
:101970000F92CDB7DEB79B838A8319828981282F86
:1019800030E08A819B818C01020F131F0E947B0C27
:10199000F80180830FC089818F5F89838981282F17
:1019A00030E08A819B818C01020F131F0E947B0C07
:1019B000F80180838981282F30E08A819B81FC0196
:1019C000E20FF31F8081833231F78981282F30E0C5
:1019D0008A819B81FC01E20FF31F10820F900F9010
:1019E0000F90CF91DF911F910F910895DF93CF93C7
:1019F000CDB7DEB783E062E040E00E94F805CF910A
:101A0000DF910895DF93CF93CDB7DEB783E062E037
:101A10000E94DD07CF91DF910895DF93CF93CDB77B
:101A2000DEB783E063E040E00E94F805CF91DF91EC
:101A30000895DF93CF93CDB7DEB783E063E00E94D4
:101A4000DD07CF91DF910895DF93CF93CDB7DEB758
:101A500081E063E040E00E94F805CF91DF910895B6
:101A6000DF93CF93CDB7DEB781E063E00E94DD075F
:101A7000CF91DF910895DF93CF93CDB7DEB781E0AB
:101A800062E040E00E94F805CF91DF910895DF9376
:101A9000CF93CDB7DEB781E062E00E94DD07CF9142
:101AA000DF910895DF93CF9300D0CDB7DEB79A834F
:101AB0008983E981FA818081E981FA819181692FA5
:101AC00041E00E94F8050F900F90CF91DF910895AB
:101AD000DF93CF9300D0CDB7DEB79A838983E981B6
:101AE000FA818081E981FA819181692F41E00E9428
:101AF000E3060F900F90CF91DF910895DF93CF937E
:101B000000D0CDB7DEB79A838983E981FA818081DD
:101B1000E981FA819181692F40E00E94E3060F90EC
:101B20000F90CF91DF910895DF93CF9300D0CDB781
:101B3000DEB79A838983E981FA818081E981FA811C
:101B40009181692F41E00E94F8050F900F90CF918D
:101B5000DF910895DF93CF9300D0CDB7DEB79A839E
:101B60008983E981FA818081E981FA819181692FF4
:101B700041E00E94E3060F900F90CF91DF9108950E
:101B8000DF93CF9300D0CDB7DEB79A838983E98105
:101B9000FA818081E981FA819181692F40E00E9478
:101BA000E3060F900F90CF91DF910895DF93CF93CD
:101BB000CDB7DEB782E060E041E00E94F80582E048
:101BC00061E041E00E94F80582E062E041E00E94AD
:101BD000F80582E063E041E00E94F80582E064E0FD
:101BE00040E00E94F80582E065E040E00E94F805D0
:101BF00082E066E040E00E94F805CF91DF91089511
:101C0000DF93CF93CDB7DEB761970FB6F894DEBF01
:101C10000FBECDBF1F86A0C082E06F8541E00E944D
:101C2000E306188A1CC08889982F9C5F82E0692F80
:101C30000E94DD07813081F48F85282F30E0C901B3
:101C4000880F991F820F931F982F8889890F8F5FA4
:101C50000E94BC0E898B86C088898F5F888B88899B
:101C6000833008F382E06F8540E00E94E30680E065
:101C700090E0A0EAB0E48B879C87AD87BE876B8538
:101C80007C858D859E8520E030E04AEF54E40E94FB
:101C90001F02DC01CB018F839887A987BA876F81E8
:101CA000788589859A8520E030E040E85FE30E94EE
:101CB000790388232CF481E090E09E838D833FC0DC
:101CC0006F81788589859A8520E03FEF4FE757E45B
:101CD0000E94190318164CF56B857C858D859E85B1
:101CE00020E030E040E251E40E941F02DC01CB0121
:101CF000BC01CD010E944900DC01CB019E838D8394
:101D00000FC088EC90E09C838B838B819C81019732
:101D1000F1F79C838B838D819E8101979E838D83B8
:101D20008D819E81009769F714C06F8178858985C0
:101D30009A850E944900DC01CB019E838D838D81B1
:101D40009E819A83898389819A810197F1F79A8389
:101D500089838F858F5F8F878F85843008F45CCF70
:101D600080E2898B898961960FB6F894DEBF0FBE39
:101D7000CDBFCF91DF910895DF93CF9300D000D0F6
:101D8000CDB7DEB78A8319828A81282F30E03C8361
:101D90002B838B819C818A30910581F02B813C8142
:101DA0002A3031059CF08B819C818B30910549F064
:101DB0002B813C812C30310531F008C08AE28983C7
:101DC00007C0198205C083E2898302C08A818983A2
:101DD00089810F900F900F900F90CF91DF91089510
:101DE000DF93CF93CDB7DEB72E970FB6F894DEBF53
:101DF0000FBECDBF80E060E041E00E94F80580E0CA
:101E000061E041E00E94F80580E090E0A0EAB1E4E2
:101E10008B879C87AD87BE876B857C858D859E85EE
:101E200020E030E04AEF54E40E941F02DC01CB01C5
:101E30008F839887A987BA876F81788589859A85E6
:101E400020E030E040E85FE30E94790388232CF42F
:101E500081E090E09E838D833FC06F817885898586
:101E60009A8520E03FEF4FE757E40E9419031816C8
:101E70004CF56B857C858D859E8520E030E040E2C9
:101E800051E40E941F02DC01CB01BC01CD010E9484
:101E90004900DC01CB019E838D830FC088EC90E06C
:101EA0009C838B838B819C810197F1F79C838B832F
:101EB0008D819E8101979E838D838D819E81009768
:101EC00069F714C06F81788589859A850E944900D9
:101ED000DC01CB019E838D838D819E819A838983D2
:101EE00089819A810197F1F79A83898380E062E082
:101EF00041E00E94F80580E063E041E00E94F805BF
:101F000080E064E041E00E94F80580E065E041E0A7
:101F10000E94F80583E30E94A20F82E30E94A20FB1
:101F200088E20E94A20F8CE00E94A20F81E00E9432
:101F3000A20F2E960FB6F894DEBF0FBECDBFCF9185
:101F4000DF9108950F931F93DF93CF93CDB7DEB743
:101F5000C356D0400FB6F894DEBF0FBECDBFFE0112
:101F6000ED59FF4F808380E060E040E00E94E3068F
:101F7000FE01E15AFF4F80E090E0A0E8BFE38083DC
:101F80009183A283B3838E01055A1F4FFE01E15A4C
:101F9000FF4F608171818281938120E030E04AEFC0
:101FA00054E40E941F02DC01CB01F801808391837D
:101FB000A283B383FE01E55AFF4F60817181828164
:101FC000938120E030E040E85FE30E9479038823BA
:101FD00044F4FE01E75AFF4F81E090E09183808353
:101FE00064C0FE01E55AFF4F608171818281938157
:101FF00020E03FEF4FE757E40E94190318160CF05A
:1020000043C0FE01E15AFF4F60817181828193815B
:1020100020E030E040E251E40E941F02DC01CB01ED
:102020008E01075A1F4FBC01CD010E944900DC01FF
:10203000CB01F801918380831FC0FE01E95AFF4F55
:1020400088EC90E091838083FE01E95AFF4F808104
:1020500091810197F1F7FE01E95AFF4F9183808347
:10206000DE01A75ABF4FFE01E75AFF4F80819181E1
:10207000019711969C938E93FE01E75AFF4F808142
:1020800091810097D1F627C08E01075A1F4FFE019C
:10209000E55AFF4F60817181828193810E944900DE
:1020A000DC01CB01F80191838083DE01AB5ABF4F85
:1020B000FE01E75AFF4F808191818D939C93FE0131
:1020C000EB5AFF4F808191810197F1F7FE01EB5AA6
:1020D000FF4F9183808380E061E041E00E94E3064E
:1020E000FE01EF5AFF4F80E090E0A0E8BFE380835D
:1020F0009183A283B3838E01035B1F4FFE01EF5ACE
:10210000FF4F608171818281938120E030E04AEF4E
:1021100054E40E941F02DC01CB01F801808391830B
:10212000A283B383FE01E35BFF4F608171818281F3
:10213000938120E030E040E85FE30E947903882348
:1021400044F4FE01E55BFF4F81E090E091838083E2
:1021500064C0FE01E35BFF4F6081718182819381E6
:1021600020E03FEF4FE757E40E94190318160CF0E8
:1021700043C0FE01EF5AFF4F6081718182819381DC
:1021800020E030E040E251E40E941F02DC01CB017C
:102190008E01055B1F4FBC01CD010E944900DC018F
:1021A000CB01F801918380831FC0FE01E75BFF4FE5
:1021B00088EC90E091838083FE01E75BFF4F808194
:1021C00091810197F1F7FE01E75BFF4F91838083D7
:1021D000DE01A55BBF4FFE01E55BFF4F8081918172
:1021E000019711969C938E93FE01E55BFF4F8081D2
:1021F00091810097D1F627C08E01055B1F4FFE012C
:10220000E35BFF4F60817181828193810E9449006D
:10221000DC01CB01F80191838083DE01A95BBF4F14
:10222000FE01E55BFF4F808191818D939C93FE01C0
:10223000E95BFF4F808191810197F1F7FE01E95B36
:10224000FF4F91838083FE01ED59FF4F8081882FDE
:1022500090E0807190709595879595958795959567
:10226000879595958795982F80E062E0492F0E9489
:10227000E306FE01ED59FF4F8081882F90E08072C8
:102280009070959587959595879595958795959552
:10229000879595958795982F80E063E0492F0E9458
:1022A000E306FE01ED59FF4F8081882F90E0807496
:1022B0009070082E892F000C881F990B000C881F26
:1022C000991F982F80E064E0492F0E94E306FE01E9
:1022D000ED59FF4F8081982F991F9927991F80E012
:1022E00065E0492F0E94E306FE01ED5BFF4F80E0B1
:1022F00090E0A0E8BFE380839183A283B3838E0143
:10230000015C1F4FFE01ED5BFF4F60817181828197
:10231000938120E030E04AEF54E40E941F02DC0188
:10232000CB01F80180839183A283B383FE01FF96E2
:10233000608171818281938120E030E040E85FE339
:102340000E94790388232CF481E090E09EAF8DAF4A
:1023500046C0FE01FF96608171818281938120E0F9
:102360003FEF4FE757E40E941903181664F5FE018A
:10237000ED5BFF4F608171818281938120E030E0CD
:1023800040E251E40E941F02DC01CB01BC01CD01FF
:102390000E944900DC01CB019EAF8DAF0FC088ECDD
:1023A00090E09CAF8BAF8BAD9CAD0197F1F79CAFEC
:1023B0008BAF8DAD9EAD01979EAF8DAF8DAD9EADB8
:1023C000009769F716C0FE01FF96608171818281D6
:1023D00093810E944900DC01CB019EAF8DAF8DAD92
:1023E0009EAD9AAF89AF89AD9AAD0197F1F79AAFDB
:1023F00089AF80E061E040E00E94E30680E090E089
:10240000A0E8BFE38DAB9EABAFABB8AF6DA97EA923
:102410008FA998AD20E030E04AEF54E40E941F02FB
:10242000DC01CB0189AB9AABABABBCAB69A97AA998
:102430008BA99CA920E030E040E85FE30E9479038B
:1024400088232CF481E090E098AB8FA73FC069A966
:102450007AA98BA99CA920E03FEF4FE757E40E949F
:10246000190318164CF56DA97EA98FA998AD20E027
:1024700030E040E251E40E941F02DC01CB01BC01CC
:10248000CD010E944900DC01CB0198AB8FA70FC0A2
:1024900088EC90E09EA78DA78DA59EA50197F1F7EA
:1024A0009EA78DA78FA598A9019798AB8FA78FA5F9
:1024B00098A9009769F714C069A97AA98BA99CA962
:1024C0000E944900DC01CB0198AB8FA78FA598A98A
:1024D0009CA78BA78BA59CA50197F1F79CA78BA721
:1024E00080E061E041E00E94E30680E090E0A0E847
:1024F000BFE38FA398A7A9A7BAA76FA178A589A5BD
:102500009AA520E030E04AEF54E40E941F02DC016B
:10251000CB018BA39CA3ADA3BEA36BA17CA18DA17A
:102520009EA120E030E040E85FE30E947903882329
:102530002CF481E090E09AA389A33FC06BA17CA119
:102540008DA19EA120E03FEF4FE757E40E941903C1
:1025500018164CF56FA178A589A59AA520E030E062
:1025600040E251E40E941F02DC01CB01BC01CD011D
:102570000E944900DC01CB019AA389A30FC088EC1B
:1025800090E098A38F8F8F8D98A10197F1F798A372
:102590008F8F89A19AA101979AA389A389A19AA152
:1025A000009769F714C06BA17CA18DA19EA10E9428
:1025B0004900DC01CB019AA389A389A19AA19E8F2E
:1025C0008D8F8D8D9E8D0197F1F79E8F8D8FFE01E2
:1025D000ED59FF4F8081982F917080E062E0492F84
:1025E0000E94E306FE01ED59FF4F8081882F90E0A5
:1025F0008270907095958795982F80E063E0492FC1
:102600000E94E306FE01ED59FF4F8081882F90E084
:10261000847090709595879595958795982F80E013
:1026200064E0492F0E94E306FE01ED59FF4F8081CF
:10263000882F90E0887090709595879595958795EF
:1026400095958795982F80E065E0492F0E94E306D5
:1026500080E090E0A0E8BFE3898F9A8FAB8FBC8FBA
:10266000698D7A8D8B8D9C8D20E030E04AEF54E4AB
:102670000E941F02DC01CB018D8B9E8BAF8BB88F2C
:102680006D897E898F89988D20E030E040E85FE396
:102690000E94790388232CF481E090E09C8B8B8B43
:1026A0003FC06D897E898F89988D20E03FEF4FE78D
:1026B00057E40E94190318164CF5698D7A8D8B8D9D
:1026C0009C8D20E030E040E251E40E941F02DC01DA
:1026D000CB01BC01CD010E944900DC01CB019C8BE8
:1026E0008B8B0FC088EC90E09A8B898B89899A89B3
:1026F0000197F1F79A8B898B8B899C8901979C8B29
:102700008B8B8B899C89009769F714C06D897E89B2
:102710008F89988D0E944900DC01CB019C8B8B8BAB
:102720008B899C89988B8F878F8598890197F1F782
:10273000988B8F8780E061E040E00E94E30680E0B4
:1027400090E0A0E8BFE38B879C87AD87BE876B8551
:102750007C858D859E8520E030E04AEF54E40E9420
:102760001F02DC01CB018F839887A987BA876F810D
:10277000788589859A8520E030E040E85FE30E9413
:10278000790388232CF481E090E09E838D833FC001
:102790006F81788589859A8520E03FEF4FE757E480
:1027A0000E94190318164CF56B857C858D859E85D6
:1027B00020E030E040E251E40E941F02DC01CB0146
:1027C000BC01CD010E944900DC01CB019E838D83B9
:1027D0000FC088EC90E09C838B838B819C81019758
:1027E000F1F79C838B838D819E8101979E838D83DE
:1027F0008D819E81009769F714C06F8178858985E6
:102800009A850E944900DC01CB019E838D838D81D6
:102810009E819A83898389819A810197F1F79A83AE
:102820008983CD59DF4F0FB6F894DEBF0FBECDBF01
:10283000CF91DF911F910F9108950F931F93DF9315
:10284000CF93CDB7DEB7C356D0400FB6F894DEBFF6
:102850000FBECDBFFE01ED59FF4F808380E060E0E9
:1028600041E00E94E306FE01E15AFF4F80E090E064
:10287000A0E8BFE380839183A283B3838E01055ACE
:102880001F4FFE01E15AFF4F608171818281938168
:1028900020E030E04AEF54E40E941F02DC01CB014B
:1028A000F80180839183A283B383FE01E55AFF4F31
:1028B000608171818281938120E030E040E85FE3B4
:1028C0000E947903882344F4FE01E75AFF4F81E018
:1028D00090E09183808364C0FE01E55AFF4F6081E0
:1028E00071818281938120E03FEF4FE757E40E949E
:1028F000190318160CF043C0FE01E15AFF4F608126
:1029000071818281938120E030E040E251E40E94B5
:102910001F02DC01CB018E01075A1F4FBC01CD0104
:102920000E944900DC01CB01F801918380831FC024
:10293000FE01E95AFF4F88EC90E091838083FE010D
:10294000E95AFF4F808191810197F1F7FE01E95A21
:10295000FF4F91838083DE01A75ABF4FFE01E75AE4
:10296000FF4F80819181019711969C938E93FE0178
:10297000E75AFF4F808191810097D1F627C08E01E1
:10298000075A1F4FFE01E55AFF4F60817181828116
:1029900093810E944900DC01CB01F801918380837F
:1029A000DE01AB5ABF4FFE01E75AFF4F8081918194
:1029B0008D939C93FE01EB5AFF4F8081918101978B
:1029C000F1F7FE01EB5AFF4F9183808380E061E0D5
:1029D00041E00E94E306FE01EF5AFF4F80E090E0E5
:1029E000A0E8BFE380839183A283B3838E01035B5E
:1029F0001F4FFE01EF5AFF4F6081718182819381E9
:102A000020E030E04AEF54E40E941F02DC01CB01D9
:102A1000F80180839183A283B383FE01E35BFF4FC0
:102A2000608171818281938120E030E040E85FE342
:102A30000E947903882344F4FE01E55BFF4F81E0A7
:102A400090E09183808364C0FE01E35BFF4F60816F
:102A500071818281938120E03FEF4FE757E40E942C
:102A6000190318160CF043C0FE01EF5AFF4F6081A6
:102A700071818281938120E030E040E251E40E9444
:102A80001F02DC01CB018E01055B1F4FBC01CD0194
:102A90000E944900DC01CB01F801918380831FC0B3
:102AA000FE01E75BFF4F88EC90E091838083FE019D
:102AB000E75BFF4F808191810197F1F7FE01E75BB2
:102AC000FF4F91838083DE01A55BBF4FFE01E55B75
:102AD000FF4F80819181019711969C938E93FE0107
:102AE000E55BFF4F808191810097D1F627C08E0171
:102AF000055B1F4FFE01E35BFF4F608171818281A7
:102B000093810E944900DC01CB01F801918380830D
:102B1000DE01A95BBF4FFE01E55BFF4F8081918124
:102B20008D939C93FE01E95BFF4F8081918101971A
:102B3000F1F7FE01E95BFF4F91838083FE01ED59C0
:102B4000FF4F8081882F90E08071907095958795D8
:102B5000959587959595879595958795982F80E07C
:102B600062E0492F0E94E306FE01ED59FF4F80818C
:102B7000882F90E0807290709595879595958795B0
:102B8000959587959595879595958795982F80E04C
:102B900063E0492F0E94E306FE01ED59FF4F80815B
:102BA000882F90E080749070082E892F000C881F69
:102BB000990B000C881F991F982F80E064E0492F23
:102BC0000E94E306FE01ED59FF4F8081982F991F67
:102BD0009927991F80E065E0492F0E94E306FE01D6
:102BE000ED5BFF4F80E090E0A0E8BFE3808391833E
:102BF000A283B3838E01015C1F4FFE01ED5BFF4F8B
:102C0000608171818281938120E030E04AEF54E459
:102C10000E941F02DC01CB01F80180839183A28313
:102C2000B383FE01FF96608171818281938120E0F0
:102C300030E040E85FE30E94790388232CF481E0D0
:102C400090E09EAF8DAF46C0FE01FF96608171811E
:102C50008281938120E03FEF4FE757E40E94190300
:102C6000181664F5FE01ED5BFF4F60817181828172
:102C7000938120E030E040E251E40E941F02DC0139
:102C8000CB01BC01CD010E944900DC01CB019EAF0C
:102C90008DAF0FC088EC90E09CAF8BAF8BAD9CAD3F
:102CA0000197F1F79CAF8BAF8DAD9EAD01979EAFB5
:102CB0008DAF8DAD9EAD009769F716C0FE01FF96F2
:102CC00060817181828193810E944900DC01CB0186
:102CD0009EAF8DAF8DAD9EAD9AAF89AF89AD9AADE8
:102CE0000197F1F79AAF89AF80E061E040E00E9480
:102CF000E30680E090E0A0E8BFE38DAB9EABAFAB16
:102D0000B8AF6DA97EA98FA998AD20E030E04AEF59
:102D100054E40E941F02DC01CB0189AB9AABABAB40
:102D2000BCAB69A97AA98BA99CA920E030E040E856
:102D30005FE30E94790388232CF481E090E098AB54
:102D40008FA73FC069A97AA98BA99CA920E03FEF72
:102D50004FE757E40E94190318164CF56DA97EA998
:102D60008FA998AD20E030E040E251E40E941F02BC
:102D7000DC01CB01BC01CD010E944900DC01CB018B
:102D800098AB8FA70FC088EC90E09EA78DA78DA56C
:102D90009EA50197F1F79EA78DA78FA598A90197EA
:102DA00098AB8FA78FA598A9009769F714C069A958
:102DB0007AA98BA99CA90E944900DC01CB0198ABA0
:102DC0008FA78FA598A99CA78BA78BA59CA50197DA
:102DD000F1F79CA78BA780E061E041E00E94E30649
:102DE00080E090E0A0E8BFE38FA398A7A9A7BAA7C7
:102DF0006FA178A589A59AA520E030E04AEF54E4B8
:102E00000E941F02DC01CB018BA39CA3ADA3BEA338
:102E10006BA17CA18DA19EA120E030E040E85FE3A2
:102E20000E94790388232CF481E090E09AA389A37F
:102E30003FC06BA17CA18DA19EA120E03FEF4FE799
:102E400057E40E94190318164CF56FA178A589A5BF
:102E50009AA520E030E040E251E40E941F02DC012C
:102E6000CB01BC01CD010E944900DC01CB019AA33A
:102E700089A30FC088EC90E098A38F8F8F8D98A1C5
:102E80000197F1F798A38F8F89A19AA101979AA32F
:102E900089A389A19AA1009769F714C06BA17CA1AD
:102EA0008DA19EA10E944900DC01CB019AA389A3B8
:102EB00089A19AA19E8F8D8F8D8D9E8D0197F1F79F
:102EC0009E8F8D8FFE01ED59FF4F8081982F91705D
:102ED00080E062E0492F0E94E306FE01ED59FF4FBA
:102EE0008081882F90E08270907095958795982FBB
:102EF00080E063E0492F0E94E306FE01ED59FF4F99
:102F00008081882F90E08470907095958795959535
:102F10008795982F80E064E0492F0E94E306FE0128
:102F2000ED59FF4F8081882F90E0887090709595C3
:102F300087959595879595958795982F80E065E07D
:102F4000492F0E94E30680E090E0A0E8BFE3898F6C
:102F50009A8FAB8FBC8F698D7A8D8B8D9C8D20E085
:102F600030E04AEF54E40E941F02DC01CB018D8B5C
:102F70009E8BAF8BB88F6D897E898F89988D20E06D
:102F800030E040E85FE30E94790388232CF481E07D
:102F900090E09C8B8B8B3FC06D897E898F89988D4B
:102FA00020E03FEF4FE757E40E94190318164CF555
:102FB000698D7A8D8B8D9C8D20E030E040E251E46C
:102FC0000E941F02DC01CB01BC01CD010E9449001F
:102FD000DC01CB019C8B8B8B0FC088EC90E09A8B33
:102FE000898B89899A890197F1F79A8B898B8B89CB
:102FF0009C8901979C8B8B8B8B899C89009769F7A7
:1030000014C06D897E898F89988D0E944900DC01EA
:10301000CB019C8B8B8B8B899C89988B8F878F8521
:1030200098890197F1F7988B8F8780E061E040E005
:103030000E94E30680E090E0A0E8BFE38B879C87D6
:10304000AD87BE876B857C858D859E8520E030E0D1
:103050004AEF54E40E941F02DC01CB018F83988762
:10306000A987BA876F81788589859A8520E030E0C5
:1030700040E85FE30E94790388232CF481E090E02C
:103080009E838D833FC06F81788589859A8520E0F6
:103090003FEF4FE757E40E94190318164CF56B8574
:1030A0007C858D859E8520E030E040E251E40E94E1
:1030B0001F02DC01CB01BC01CD010E944900DC01F3
:1030C000CB019E838D830FC088EC90E09C838B8323
:1030D0008B819C810197F1F79C838B838D819E81ED
:1030E00001979E838D838D819E81009769F714C01F
:1030F0006F81788589859A850E944900DC01CB0122
:103100009E838D838D819E819A83898389819A8113
:103110000197F1F79A838983CD59DF4F0FB6F89461
:10312000DEBF0FBECDBFCF91DF911F910F910895EC
:10313000DF93CF9300D00F92CDB7DEB79B838A8306
:1031400019820EC08981282F30E08A819B81FC0181
:10315000E20FF31F80810E941D1489818F5F898394
:103160008981282F30E08A819B81FC01E20FF31FC7
:103170008081882339F70F900F900F90CF91DF91C6
:103180000895DF93CF9300D000D00F92CDB7DEB774
:103190008A836B838A81282F30E03D832C838C8146
:1031A0009D8181309105C1F02C813D812230310516
:1031B0002CF48C819D81009761F019C02C813D8198
:1031C0002230310569F08C819D818330910561F059
:1031D0000EC08B8189830BC08B81805C898307C083
:1031E0008B81805F898303C08B81805B8983898128
:1031F00080680E94A20F0F900F900F900F900F9079
:10320000CF91DF910895DF93CF9300D000D0CDB759
:10321000DEB789836A835C834B8389816A810E94DC
:10322000C1188B819C810E9498180F900F900F906D
:103230000F90CF91DF910895DF93CF93CDB7DEB795
:1032400062970FB6F894DEBF0FBECDBF9A8B898B05
:1032500089899A899E012F5F3F4FB9014AE050E06A
:103260000E940B1DCE0101960E94981862960FB61F
:10327000F894DEBF0FBECDBFCF91DF910895DF93ED
:10328000CF93CDB7DEB781E00E94A20FCF91DF913F
:103290000895DF93CF9300D0CDB7DEB79A838983AB
:1032A000E981FA818081E981FA819181692F41E088
:1032B0000E94F8050F900F90CF91DF910895DF9352
:1032C000CF9300D0CDB7DEB79A838983E981FA81A5
:1032D0008081E981FA819181692F41E00E94E306B2
:1032E0000F900F90CF91DF910895DF93CF9300D08F
:1032F000CDB7DEB79A838983E981FA818081E9813C
:10330000FA819181692F40E00E94E3060F900F90AF
:10331000CF91DF910895DF93CF9300D0CDB7DEB783
:103320009A838983E981FA818081E981FA81918197
:10333000692F41E00E94F8050F900F90CF91DF9127
:103340000895DF93CF9300D0CDB7DEB79A838983FA
:10335000E981FA818081E981FA819181692F41E0D7
:103360000E94E3060F900F90CF91DF910895DF93B5
:10337000CF9300D0CDB7DEB79A838983E981FA81F4
:103380008081E981FA819181692F40E00E94E30602
:103390000F900F90CF91DF910895DF93CF93CDB72A
:1033A000DEB70E94470D882379F080E990E00E9403
:1033B000AA0D8091B40084608093B4008DEC99E1F3
:1033C00062E00E94610A0EC080E990E00E94C00D98
:1033D0008091B4008B7F8093B4008DEC99E163E021
:1033E0000E94610ACF91DF910895DF93CF93CDB70B
:1033F000DEB70E943B0D8DEC99E163E00E94610A0B
:1034000080E990E00E94940DCF91DF910895DF93C1
:10341000CF930F92CDB7DEB7898389818093B100B6
:1034200081E08093B2000E94AD0B0F90CF91DF91AD
:103430000895DF93CF93CDB7DEB70E943F1980E6A2
:1034400090E00E949818CF91DF910895DF93CF9379
:10345000CDB7DEB78091AA009091AB000196909312
:10346000AB008093AA008091B100282F30E0C90101
:10347000880F991F820F931F9C01220F331F220F69
:10348000331F820F931F880F991F9C018091AA0000
:103490009091AB002817390751F40E94C40B109289
:1034A000B2001092AB001092AA000E94191ACF919C
:1034B000DF910895DF93CF9300D0CDB7DEB781E0E1
:1034C00089831A8214C08A81882F90E0FC01E45518
:1034D000FF4F20818A81882F90E0FC01EB54FF4F41
:1034E0008081281709F019828A818F5F8A838A81F7
:1034F000843048F30E943F198981882349F08BE684
:1035000090E00E94981882E990E00E94B71904C0E8
:103510008AE790E00E94981882E00E94071A1092B1
:10352000B0000F900F90CF91DF910895DF93CF936C
:10353000CDB7DEB72F970FB6F894DEBF0FBECDBF65
:103540008F878F858A30B0F48AE20E941D14209103
:10355000B000822F90E0FC01E455FF4F8F858083FF
:10356000822F8F5F8093B0008091B000843011F47F
:103570000E945A1A80E090E0A6E9B3E48B879C870A
:10358000AD87BE876B857C858D859E8520E030E08C
:103590004AEF54E40E941F02DC01CB018F8398871D
:1035A000A987BA876F81788589859A8520E030E080
:1035B00040E85FE30E94790388232CF481E090E0E7
:1035C0009E838D833FC06F81788589859A8520E0B1
:1035D0003FEF4FE757E40E94190318164CF56B852F
:1035E0007C858D859E8520E030E040E251E40E949C
:1035F0001F02DC01CB01BC01CD010E944900DC01AE
:10360000CB019E838D830FC088EC90E09C838B83DD
:103610008B819C810197F1F79C838B838D819E81A7
:1036200001979E838D838D819E81009769F714C0D9
:103630006F81788589859A850E944900DC01CB01DC
:103640009E838D838D819E819A83898389819A81CE
:103650000197F1F79A8389832F960FB6F894DEBF0E
:103660000FBECDBFCF91DF9108950F931F93DF93CE
:10367000CF930F92CDB7DEB780E090E00E94D305E4
:103680008823A9F081E089830FC08981082F10E089
:103690008981882F90E00E94D305F801EB54FF4FF9
:1036A000808389818F5F89838981853070F30F9052
:1036B000CF91DF911F910F910895DF93CF93CDB7F5
:1036C000DEB70E94F00E0E94D60D82E990E00E94C3
:1036D0008B1982E990E00E94A1190E94351B0E947B
:1036E000191A87E00E94930B86E29AE10E94F80B78
:1036F0000E94EA0BCF91DF910895DF93CF930F9251
:10370000CDB7DEB78091B200882349F40E94000E45
:1037100089838981803219F089810E94961A0F90DD
:10372000CF91DF910895DF93CF93CDB7DEB70E949D
:10373000300D882331F08091B40088608093B4000C
:1037400005C08091B400877F8093B400CF91DF9152
:103750000895DF93CF93CDB7DEB70E94240DCF91AC
:10376000DF910895DF93CF93CDB7DEB70E94931B0F
:10377000CF91DF910895DF93CF93CDB7DEB70E944D
:10378000190D8823B9F08091B400882F90E08170E2
:103790009070009729F484E990E00E94AA0D04C07B
:1037A00084E990E00E94C00D8091B4008260809313
:1037B000B40009C084E990E00E94C00D8091B4007B
:1037C0008D7F8093B400CF91DF910895DF93CF93E5
:1037D000CDB7DEB70E940D0D8BEB9BE161E00E943F
:1037E0002A0A84E990E00E94940DCF91DF91089518
:1037F000DF93CF93CDB7DEB70E94020D882351F03F
:1038000086E990E00E94AA0D8091B40081608093C7
:10381000B40009C086E990E00E94C00D8091B40018
:103820008E7F8093B4000E94BB1BCF91DF910895DF
:10383000DF93CF93CDB7DEB70E94F60C88EF9BE104
:1038400061E00E94FA0986E990E00E94940DCF9110
:10385000DF910895DF93CF93CDB7DEB78091B300AA
:103860008A3049F48AE990E00E945F1988E990E083
:103870000E94680D0EC08091B300843151F48AE932
:1038800090E00E94751988E990E00E947E0D1092E8
:10389000B3008091B3008F5F8093B300CF91DF912D
:1038A0000895DF93CF93CDB7DEB70E94F50ACF918D
:1038B000DF910895DF93CF93CDB7DEB70E940C0B55
:1038C0008AE990E00E94751988E990E00E947E0DD7
:1038D0001092B300CF91DF910895DF93CF93CDB7CE
:1038E000DEB785E00E94DB0A8AE29CE10E94400B81
:1038F0000E94320B88E990E00E94520D8AE990E024
:103900000E944919CF91DF910895DF93CF93CDB7EE
:10391000DEB78091B400882319F00E94511C02C0C8
:103920000E945A1CCF91DF910895DF93CF93CDB7BA
:10393000DEB70E946D1C0E94181C0E94E61B0E94AC
:10394000F5190E94A91B0E945D1B0E94EC098CE9DD
:1039500090E00E9449190E947D1B0E94B21B0E94A8
:10396000851CF9CFA1E21A2EAA1BBB1BFD010DC0BD
:10397000AA1FBB1FEE1FFF1FA217B307E407F5071F
:1039800020F0A21BB30BE40BF50B661F771F881FFB
:10399000991F1A9469F760957095809590959B0191
:1039A000AC01BD01CF0108952F923F924F925F92DB
:1039B0006F927F928F929F92AF92BF92CF92DF923F
:1039C000EF92FF920F931F93CF93DF93CDB7DEB7A4
:1039D000CA1BDB0B0FB6F894DEBF0FBECDBF099438
:1039E0002A88398848885F846E847D848C849B848F
:1039F000AA84B984C884DF80EE80FD800C811B819D
:103A0000AA81B981CE0FD11D0FB6F894DEBF0FBECB
:103A1000CDBFED010895FB019F01E8944230C4F051
:103A20004532B4F44A3029F497FB1EF49095819501
:103A30009F4F642F77270E943C1D805D8A330CF0D6
:103A4000895D8193CB010097A1F716F45DE2519354
:103A50001082C9010C942C1DDC01FC01672F7191AF
:103A60007723E1F7329704C07C916D937083629164
:103A7000AE17BF07C8F30895AA1BBB1B51E107C0CF
:103A8000AA1FBB1FA617B70710F0A61BB70B881FEE
:103A9000991F5A95A9F780959095BC01CD0108957D
:043AA000F894FFCFC8
:103AA400456E7465722050696E3A00414343455334
:103AB40053204752414E54454400414343455353D8
:103AC4002044454E49454400000000000000000029
:0E3AD4000305020701040304010001010307BA
:00000001FF
